{
  "_format": "hh-sol-artifact-1",
  "contractName": "FundManagementLogic",
  "sourceName": "contracts/protocol/libraries/logics/FundManagementLogic.sol",
  "abi": [
    {
      "inputs": [],
      "name": "AlreadyRedeemed",
      "type": "error"
    },
    {
      "inputs": [],
      "name": "InsufficientCollateral",
      "type": "error"
    },
    {
      "inputs": [
        {
          "internalType": "string",
          "name": "name",
          "type": "string"
        }
      ],
      "name": "MissingAddress",
      "type": "error"
    },
    {
      "inputs": [],
      "name": "NoRedemptionAmount",
      "type": "error"
    },
    {
      "inputs": [],
      "name": "NoRepaymentAmount",
      "type": "error"
    },
    {
      "inputs": [],
      "name": "NotRedemptionPeriod",
      "type": "error"
    },
    {
      "inputs": [],
      "name": "NotRepaymentPeriod",
      "type": "error"
    },
    {
      "anonymous": false,
      "inputs": [
        {
          "indexed": true,
          "internalType": "address",
          "name": "user",
          "type": "address"
        },
        {
          "indexed": false,
          "internalType": "uint256",
          "name": "amount",
          "type": "uint256"
        }
      ],
      "name": "EmergencySettlementExecuted",
      "type": "event"
    },
    {
      "anonymous": false,
      "inputs": [
        {
          "indexed": true,
          "internalType": "address",
          "name": "taker",
          "type": "address"
        },
        {
          "indexed": true,
          "internalType": "bytes32",
          "name": "ccy",
          "type": "bytes32"
        },
        {
          "indexed": false,
          "internalType": "enum ProtocolTypes.Side",
          "name": "side",
          "type": "uint8"
        },
        {
          "indexed": true,
          "internalType": "uint256",
          "name": "maturity",
          "type": "uint256"
        },
        {
          "indexed": false,
          "internalType": "uint256",
          "name": "amount",
          "type": "uint256"
        },
        {
          "indexed": false,
          "internalType": "uint256",
          "name": "amountInFV",
          "type": "uint256"
        },
        {
          "indexed": false,
          "internalType": "uint256",
          "name": "feeInFV",
          "type": "uint256"
        }
      ],
      "name": "OrderFilled",
      "type": "event"
    },
    {
      "anonymous": false,
      "inputs": [
        {
          "indexed": false,
          "internalType": "uint48",
          "name": "orderId",
          "type": "uint48"
        },
        {
          "indexed": true,
          "internalType": "address",
          "name": "maker",
          "type": "address"
        },
        {
          "indexed": true,
          "internalType": "bytes32",
          "name": "ccy",
          "type": "bytes32"
        },
        {
          "indexed": false,
          "internalType": "enum ProtocolTypes.Side",
          "name": "side",
          "type": "uint8"
        },
        {
          "indexed": false,
          "internalType": "uint256",
          "name": "maturity",
          "type": "uint256"
        },
        {
          "indexed": false,
          "internalType": "uint256",
          "name": "amount",
          "type": "uint256"
        },
        {
          "indexed": false,
          "internalType": "uint256",
          "name": "amountInFV",
          "type": "uint256"
        }
      ],
      "name": "OrderPartiallyFilled",
      "type": "event"
    },
    {
      "anonymous": false,
      "inputs": [
        {
          "indexed": true,
          "internalType": "address",
          "name": "taker",
          "type": "address"
        },
        {
          "indexed": true,
          "internalType": "bytes32",
          "name": "ccy",
          "type": "bytes32"
        },
        {
          "indexed": false,
          "internalType": "enum ProtocolTypes.Side",
          "name": "side",
          "type": "uint8"
        },
        {
          "indexed": true,
          "internalType": "uint256",
          "name": "maturity",
          "type": "uint256"
        },
        {
          "indexed": false,
          "internalType": "uint256",
          "name": "amount",
          "type": "uint256"
        },
        {
          "indexed": false,
          "internalType": "uint256",
          "name": "amountInFV",
          "type": "uint256"
        }
      ],
      "name": "OrdersFilledInAsync",
      "type": "event"
    },
    {
      "anonymous": false,
      "inputs": [
        {
          "indexed": true,
          "internalType": "address",
          "name": "user",
          "type": "address"
        },
        {
          "indexed": true,
          "internalType": "bytes32",
          "name": "ccy",
          "type": "bytes32"
        },
        {
          "indexed": true,
          "internalType": "uint256",
          "name": "maturity",
          "type": "uint256"
        },
        {
          "indexed": false,
          "internalType": "uint256",
          "name": "amount",
          "type": "uint256"
        }
      ],
      "name": "RedemptionExecuted",
      "type": "event"
    },
    {
      "anonymous": false,
      "inputs": [
        {
          "indexed": true,
          "internalType": "address",
          "name": "user",
          "type": "address"
        },
        {
          "indexed": true,
          "internalType": "bytes32",
          "name": "ccy",
          "type": "bytes32"
        },
        {
          "indexed": true,
          "internalType": "uint256",
          "name": "maturity",
          "type": "uint256"
        },
        {
          "indexed": false,
          "internalType": "uint256",
          "name": "amount",
          "type": "uint256"
        }
      ],
      "name": "RepaymentExecuted",
      "type": "event"
    },
    {
      "inputs": [],
      "name": "BASE_MIN_DEBT_UNIT_PRICE",
      "outputs": [
        {
          "internalType": "uint256",
          "name": "",
          "type": "uint256"
        }
      ],
      "stateMutability": "view",
      "type": "function"
    },
    {
      "inputs": [
        {
          "internalType": "bytes32",
          "name": "_ccy",
          "type": "bytes32"
        },
        {
          "internalType": "uint256",
          "name": "_maturity",
          "type": "uint256"
        },
        {
          "internalType": "uint256",
          "name": "_presentValue",
          "type": "uint256"
        }
      ],
      "name": "calculateFVFromPV",
      "outputs": [
        {
          "internalType": "uint256",
          "name": "futureValue",
          "type": "uint256"
        }
      ],
      "stateMutability": "view",
      "type": "function"
    },
    {
      "inputs": [
        {
          "internalType": "bytes32",
          "name": "_ccy",
          "type": "bytes32"
        },
        {
          "internalType": "uint256",
          "name": "_maturity",
          "type": "uint256"
        },
        {
          "internalType": "int256",
          "name": "_presentValue",
          "type": "int256"
        }
      ],
      "name": "calculateFVFromPV",
      "outputs": [
        {
          "internalType": "int256",
          "name": "futureValue",
          "type": "int256"
        }
      ],
      "stateMutability": "view",
      "type": "function"
    },
    {
      "inputs": [
        {
          "internalType": "bytes32",
          "name": "_ccy",
          "type": "bytes32"
        },
        {
          "internalType": "address",
          "name": "_user",
          "type": "address"
        },
        {
          "components": [
            {
              "internalType": "bytes32",
              "name": "ccy",
              "type": "bytes32"
            },
            {
              "internalType": "uint256",
              "name": "workingLendOrdersAmount",
              "type": "uint256"
            },
            {
              "internalType": "uint256",
              "name": "claimableAmount",
              "type": "uint256"
            },
            {
              "internalType": "uint256",
              "name": "workingBorrowOrdersAmount",
              "type": "uint256"
            },
            {
              "internalType": "uint256",
              "name": "debtAmount",
              "type": "uint256"
            },
            {
              "internalType": "uint256",
              "name": "lentAmount",
              "type": "uint256"
            },
            {
              "internalType": "uint256",
              "name": "borrowedAmount",
              "type": "uint256"
            }
          ],
          "internalType": "struct ILendingMarketController.AdditionalFunds",
          "name": "_additionalFunds",
          "type": "tuple"
        },
        {
          "internalType": "uint256",
          "name": "_liquidationThresholdRate",
          "type": "uint256"
        }
      ],
      "name": "calculateFunds",
      "outputs": [
        {
          "components": [
            {
              "internalType": "uint256",
              "name": "workingLendOrdersAmount",
              "type": "uint256"
            },
            {
              "internalType": "uint256",
              "name": "claimableAmount",
              "type": "uint256"
            },
            {
              "internalType": "uint256",
              "name": "collateralAmount",
              "type": "uint256"
            },
            {
              "internalType": "uint256",
              "name": "unallocatedCollateralAmount",
              "type": "uint256"
            },
            {
              "internalType": "uint256",
              "name": "lentAmount",
              "type": "uint256"
            },
            {
              "internalType": "uint256",
              "name": "workingBorrowOrdersAmount",
              "type": "uint256"
            },
            {
              "internalType": "uint256",
              "name": "debtAmount",
              "type": "uint256"
            },
            {
              "internalType": "uint256",
              "name": "borrowedAmount",
              "type": "uint256"
            }
          ],
          "internalType": "struct ILendingMarketController.CalculatedFunds",
          "name": "funds",
          "type": "tuple"
        }
      ],
      "stateMutability": "view",
      "type": "function"
    },
    {
      "inputs": [
        {
          "internalType": "bytes32",
          "name": "_ccy",
          "type": "bytes32"
        },
        {
          "internalType": "uint256",
          "name": "_maturity",
          "type": "uint256"
        },
        {
          "internalType": "int256",
          "name": "_futureValue",
          "type": "int256"
        }
      ],
      "name": "calculatePVFromFV",
      "outputs": [
        {
          "internalType": "int256",
          "name": "presentValue",
          "type": "int256"
        }
      ],
      "stateMutability": "view",
      "type": "function"
    },
    {
      "inputs": [
        {
          "internalType": "address",
          "name": "_user",
          "type": "address"
        },
        {
          "components": [
            {
              "internalType": "bytes32",
              "name": "ccy",
              "type": "bytes32"
            },
            {
              "internalType": "uint256",
              "name": "workingLendOrdersAmount",
              "type": "uint256"
            },
            {
              "internalType": "uint256",
              "name": "claimableAmount",
              "type": "uint256"
            },
            {
              "internalType": "uint256",
              "name": "workingBorrowOrdersAmount",
              "type": "uint256"
            },
            {
              "internalType": "uint256",
              "name": "debtAmount",
              "type": "uint256"
            },
            {
              "internalType": "uint256",
              "name": "lentAmount",
              "type": "uint256"
            },
            {
              "internalType": "uint256",
              "name": "borrowedAmount",
              "type": "uint256"
            }
          ],
          "internalType": "struct ILendingMarketController.AdditionalFunds",
          "name": "_additionalFunds",
          "type": "tuple"
        },
        {
          "internalType": "uint256",
          "name": "_liquidationThresholdRate",
          "type": "uint256"
        }
      ],
      "name": "calculateTotalFundsInBaseCurrency",
      "outputs": [
        {
          "components": [
            {
              "internalType": "uint256",
              "name": "plusDepositAmountInAdditionalFundsCcy",
              "type": "uint256"
            },
            {
              "internalType": "uint256",
              "name": "minusDepositAmountInAdditionalFundsCcy",
              "type": "uint256"
            },
            {
              "internalType": "uint256",
              "name": "workingLendOrdersAmount",
              "type": "uint256"
            },
            {
              "internalType": "uint256",
              "name": "claimableAmount",
              "type": "uint256"
            },
            {
              "internalType": "uint256",
              "name": "collateralAmount",
              "type": "uint256"
            },
            {
              "internalType": "uint256",
              "name": "lentAmount",
              "type": "uint256"
            },
            {
              "internalType": "uint256",
              "name": "workingBorrowOrdersAmount",
              "type": "uint256"
            },
            {
              "internalType": "uint256",
              "name": "debtAmount",
              "type": "uint256"
            },
            {
              "internalType": "uint256",
              "name": "borrowedAmount",
              "type": "uint256"
            }
          ],
          "internalType": "struct ILendingMarketController.CalculatedTotalFunds",
          "name": "totalFunds",
          "type": "tuple"
        }
      ],
      "stateMutability": "view",
      "type": "function"
    },
    {
      "inputs": [
        {
          "internalType": "bytes32",
          "name": "_ccy",
          "type": "bytes32"
        },
        {
          "internalType": "uint256",
          "name": "_maturity",
          "type": "uint256"
        },
        {
          "internalType": "address",
          "name": "_user",
          "type": "address"
        },
        {
          "internalType": "uint256",
          "name": "_minDebtUnitPrice",
          "type": "uint256"
        }
      ],
      "name": "getActualFunds",
      "outputs": [
        {
          "components": [
            {
              "internalType": "int256",
              "name": "presentValue",
              "type": "int256"
            },
            {
              "internalType": "uint256",
              "name": "claimableAmount",
              "type": "uint256"
            },
            {
              "internalType": "uint256",
              "name": "debtAmount",
              "type": "uint256"
            },
            {
              "internalType": "int256",
              "name": "futureValue",
              "type": "int256"
            },
            {
              "internalType": "uint256",
              "name": "workingLendOrdersAmount",
              "type": "uint256"
            },
            {
              "internalType": "uint256",
              "name": "lentAmount",
              "type": "uint256"
            },
            {
              "internalType": "uint256",
              "name": "workingBorrowOrdersAmount",
              "type": "uint256"
            },
            {
              "internalType": "uint256",
              "name": "borrowedAmount",
              "type": "uint256"
            },
            {
              "internalType": "int256",
              "name": "genesisValue",
              "type": "int256"
            },
            {
              "internalType": "int256",
              "name": "genesisValueInPV",
              "type": "int256"
            },
            {
              "internalType": "int256",
              "name": "genesisValueInFV",
              "type": "int256"
            }
          ],
          "internalType": "struct FundManagementLogic.ActualFunds",
          "name": "actualFunds",
          "type": "tuple"
        }
      ],
      "stateMutability": "view",
      "type": "function"
    },
    {
      "inputs": [
        {
          "internalType": "uint256",
          "name": "_maturity",
          "type": "uint256"
        },
        {
          "internalType": "uint256",
          "name": "_minDebtUnitPrice",
          "type": "uint256"
        }
      ],
      "name": "getCurrentMinDebtUnitPrice",
      "outputs": [
        {
          "internalType": "uint256",
          "name": "",
          "type": "uint256"
        }
      ],
      "stateMutability": "view",
      "type": "function"
    },
    {
      "inputs": [
        {
          "internalType": "bytes32",
          "name": "_ccy",
          "type": "bytes32"
        },
        {
          "internalType": "address",
          "name": "_user",
          "type": "address"
        }
      ],
      "name": "getGenesisValue",
      "outputs": [
        {
          "internalType": "int256",
          "name": "amount",
          "type": "int256"
        },
        {
          "internalType": "int256",
          "name": "amountInPV",
          "type": "int256"
        },
        {
          "internalType": "int256",
          "name": "amountInFV",
          "type": "int256"
        }
      ],
      "stateMutability": "view",
      "type": "function"
    },
    {
      "inputs": [
        {
          "internalType": "bytes32",
          "name": "_ccy",
          "type": "bytes32"
        },
        {
          "internalType": "uint256",
          "name": "_maturity",
          "type": "uint256"
        },
        {
          "internalType": "address",
          "name": "_user",
          "type": "address"
        }
      ],
      "name": "getPosition",
      "outputs": [
        {
          "internalType": "int256",
          "name": "presentValue",
          "type": "int256"
        },
        {
          "internalType": "int256",
          "name": "futureValue",
          "type": "int256"
        }
      ],
      "stateMutability": "view",
      "type": "function"
    },
    {
      "inputs": [
        {
          "internalType": "bytes32",
          "name": "_ccy",
          "type": "bytes32"
        },
        {
          "internalType": "address",
          "name": "_user",
          "type": "address"
        }
      ],
      "name": "getUsedMaturities",
      "outputs": [
        {
          "internalType": "uint256[]",
          "name": "maturities",
          "type": "uint256[]"
        }
      ],
      "stateMutability": "view",
      "type": "function"
    }
  ],
  "bytecode": "0x6150f061003a600b82828239805160001a60731461002d57634e487b7160e01b600052600060045260246000fd5b30600052607381538281f3fe73000000000000000000000000000000000000000030146080604052600436106101365760003560e01c80638be3091e116100b7578063b61ef55a1161007b578063b61ef55a1461044b578063b6eb033d1461046b578063c59cf0e91461048b578063d2a19b3e1461049e578063ffee9d48146104be57600080fd5b80638be3091e1461027f5780639349fb41146102ff5780639519832b14610373578063ad8cc5e014610393578063b55c692f146103b357600080fd5b8063279c2541116100fe578063279c2541146101de5780635dd3a2c1146101f15780636566246e1461021157806370c641a614610231578063826b47e81461025f57600080fd5b8063062ea2941461013b5780630a016fd8146101685780630b7915e61461019657806319f5a40e146101b85780631dcc4092146101cb575b600080fd5b61014e6101493660046146a8565b6104c7565b604080519283526020830191909152015b60405180910390f35b81801561017457600080fd5b506101886101833660046146dd565b6104ee565b60405190815260200161015f565b8180156101a257600080fd5b506101b66101b136600461471a565b6106c3565b005b6101886101c6366004614781565b610974565b6101886101d9366004614781565b610a3e565b6101886101ec366004614781565b610aff565b8180156101fd57600080fd5b506101b661020c3660046147ad565b610b5f565b81801561021d57600080fd5b506101b661022c3660046146a8565b611038565b61024461023f3660046147c8565b6111eb565b6040805193845260208401929092529082015260600161015f565b81801561026b57600080fd5b506101b661027a3660046147ad565b611220565b61029261028d3660046147f4565b61129a565b60405161015f9190600061012082019050825182526020830151602083015260408301516040830152606083015160608301526080830151608083015260a083015160a083015260c083015160c083015260e083015160e083015261010080840151818401525092915050565b61031261030d366004614909565b6119f0565b60405161015f9190600061010082019050825182526020830151602083015260408301516040830152606083015160608301526080830151608083015260a083015160a083015260c083015160c083015260e083015160e083015292915050565b81801561037f57600080fd5b5061018861038e3660046147c8565b611c02565b81801561039f57600080fd5b506101886103ae366004614950565b611ef5565b6103c66103c13660046146dd565b6121da565b60405161015f9190600061016082019050825182526020830151602083015260408301516040830152606083015160608301526080830151608083015260a083015160a083015260c083015160c083015260e083015160e083015261010080840151818401525061012080840151818401525061014080840151818401525092915050565b61045e6104593660046147c8565b612a64565b60405161015f919061499e565b81801561047757600080fd5b506101b66104863660046146a8565b612b2b565b6101886104993660046149e2565b612baf565b8180156104aa57600080fd5b506101b66104b93660046147c8565b612c0b565b61018861258081565b60008060006104d986868660006121da565b80516060909101519097909650945050505050565b60006104f8612c6f565b6001600160a01b0316631eae0893866040518263ffffffff1660e01b815260040161052591815260200190565b602060405180830381865afa158015610542573d6000803e3d6000fd5b505050506040513d601f19601f820116820180604052508101906105669190614a14565b8061057057508342105b1561058e57604051630d85ae3d60e11b815260040160405180910390fd5b6105988584611c02565b50600082156105b8576105aa83612c94565b6105b390614a45565b6105ca565b6105c586868660006121da565b606001515b9050600081126105ed57604051634c5e410960e01b815260040160405180910390fd5b61060a6105fc87878785612d07565b61060590614a45565b612fd4565b9150610614613026565b6001600160a01b031663fb7bd3b48588856040518463ffffffff1660e01b815260040161064393929190614a61565b600060405180830381600087803b15801561065d57600080fd5b505af1158015610671573d6000803e3d6000fd5b505050508486856001600160a01b03167fc8d9ad27b2dc11154d9c9cb9a64cbede1ef8d2160950ea5d2bbba5161509b1cd856040516106b291815260200190565b60405180910390a450949350505050565b60006106cd61303e565b600089815260069190910160205260408120546001600160a01b031691506106f361303e565b60008a8152600a91909101602090815260408083208b845290915290205460ff169050600186600181111561072a5761072a614a82565b0361080c57610737613026565b6001600160a01b0316634ba0c9b5888b886040518463ffffffff1660e01b815260040161076693929190614a61565b600060405180830381600087803b15801561078057600080fd5b505af1158015610794573d6000803e3d6000fd5b50505050816001600160a01b031663be9fd21c828986886107b59190614a98565b8c6040518563ffffffff1660e01b81526004016107d59493929190614aab565b600060405180830381600087803b1580156107ef57600080fd5b505af1158015610803573d6000803e3d6000fd5b505050506108e5565b610814613026565b6001600160a01b031663fb7bd3b4888b886040518463ffffffff1660e01b815260040161084393929190614a61565b600060405180830381600087803b15801561085d57600080fd5b505af1158015610871573d6000803e3d6000fd5b50505050816001600160a01b03166362354cde828986886108929190614ad4565b8c6040518563ffffffff1660e01b81526004016108b29493929190614aab565b600060405180830381600087803b1580156108cc57600080fd5b505af11580156108e0573d6000803e3d6000fd5b505050505b82156109695760006108f561306c565b60405163311aa66f60e11b81529091506001600160a01b038416906362354cde9061092a908590859089908f90600401614aab565b600060405180830381600087803b15801561094457600080fd5b505af1158015610958573d6000803e3d6000fd5b505050506109678a8a83612b2b565b505b505050505050505050565b60008061097f61303e565b600086815260059190910160205260409020546001600160a01b0316632bfa7c136109a861303e565b6000888152600a91909101602090815260408083208984529091529081902054905160e083901b6001600160e01b031916815260ff9091166004820152602401602060405180830381865afa158015610a05573d6000803e3d6000fd5b505050506040513d601f19601f82011682018060405250810190610a299190614ae7565b9050610a358382613085565b95945050505050565b600080610a4961303e565b600086815260059190910160205260409020546001600160a01b0316632bfa7c13610a7261303e565b6000888152600a91909101602090815260408083208984529091529081902054905160e083901b6001600160e01b031916815260ff9091166004820152602401602060405180830381865afa158015610acf573d6000803e3d6000fd5b505050506040513d601f19601f82011682018060405250810190610af39190614ae7565b9050610a3583826130aa565b6000610b57610b0c61303e565b600086815260059190910160205260409020546001600160a01b0316610b3061303e565b6000878152600a919091016020908152604080832088845290915290205460ff16846130e6565b949350505050565b610b6761303e565b6001600160a01b0382166000908152600e91909101602052604090205460ff1615610ba5576040516306d3830f60e21b815260040160405180910390fd5b600080610bd4610bb361303e565b6001600160a01b0385166000908152600d9190910160205260409020613162565b905060005b8151811015610c44576000828281518110610bf657610bf6614b00565b60200260200101519050610c0a8186611c02565b506000610c178287613176565b9050610c23828261334a565b610c2d9086614b16565b945050508080610c3c90614b36565b915050610bd9565b506000610c4f613026565b6001600160a01b031663d5e190d06040518163ffffffff1660e01b8152600401600060405180830381865afa158015610c8c573d6000803e3d6000fd5b505050506040513d6000823e601f3d908101601f19168201604052610cb49190810190614b73565b905060005b8151811015610db6576000610d71610ccf613026565b6001600160a01b0316637d044b4388868681518110610cf057610cf0614b00565b60200260200101516040518363ffffffff1660e01b8152600401610d299291906001600160a01b03929092168252602082015260400190565b6020604051808303816000875af1158015610d48573d6000803e3d6000fd5b505050506040513d601f19601f82011682018060405250810190610d6c9190614ae7565b612c94565b9050610d96838381518110610d8857610d88614b00565b60200260200101518261334a565b610da09086614b16565b9450508080610dae90614b36565b915050610cb9565b506000831315610f9e576000815167ffffffffffffffff811115610ddc57610ddc61483e565b604051908082528060200260200182016040528015610e05578160200160208202803683370190505b5090506000805b8351811015610ea9576000848281518110610e2957610e29614b00565b60200260200101519050610e3b61303e565b600301600082815260200190815260200160002054848381518110610e6257610e62614b00565b602002602001018181525050838281518110610e8057610e80614b00565b602002602001015183610e939190614a98565b9250508080610ea190614b36565b915050610e0c565b5060005b8351811015610f96576000848281518110610eca57610eca614b00565b602002602001015190506000610f1682610f1186888781518110610ef057610ef0614b00565b6020026020010151610f018d612fd4565b610f0b9190614c09565b906133a6565b613417565b9050610f20613026565b6001600160a01b0316634ba0c9b58a84846040518463ffffffff1660e01b8152600401610f4f93929190614a61565b600060405180830381600087803b158015610f6957600080fd5b505af1158015610f7d573d6000803e3d6000fd5b5050505050508080610f8e90614b36565b915050610ead565b505050610fc0565b6000831215610fc057604051633a23d82560e01b815260040160405180910390fd5b6001610fca61303e565b6001600160a01b0386166000818152600e929092016020526040909120805460ff1916921515929092179091557f2bcd2d5215f77c21e5e2a4727a0ca3161029102d16ad1b146ce78a873213e0db61102185612fd4565b60405190815260200160405180910390a250505050565b611040612c6f565b6001600160a01b0316631eae0893846040518263ffffffff1660e01b815260040161106d91815260200190565b602060405180830381865afa15801561108a573d6000803e3d6000fd5b505050506040513d601f19601f820116820180604052508101906110ae9190614a14565b806110c457506110c18262093a80614a98565b42105b156110e257604051637a90677f60e11b815260040160405180910390fd5b6110ec8382611c02565b5060006110fc84848460006121da565b60600151905060008113611123576040516357c0027160e01b815260040160405180910390fd5b600061113461060586868686612d07565b905061113e613026565b6001600160a01b0316634ba0c9b58487846040518463ffffffff1660e01b815260040161116d93929190614a61565b600060405180830381600087803b15801561118757600080fd5b505af115801561119b573d6000803e3d6000fd5b505050508385846001600160a01b03167f051f458a7b860c75e07e1f4b3e2241de36bc45118bf15e38bbb31d154bd7260e846040516111dc91815260200190565b60405180910390a45050505050565b6000806000806111ff8660008760006121da565b61010081015161012082015161014090920151909891975095509350505050565b600061124e61122d61303e565b6001600160a01b0384166000908152600d9190910160205260409020613162565b805190915060005b818110156112945761128183828151811061127357611273614b00565b602002602001015185611c02565b508061128c81614b36565b915050611256565b50505050565b6112e96040518061012001604052806000815260200160008152602001600081526020016000815260200160008152602001600081526020016000815260200160008152602001600081525090565b60006112f361303e565b6001600160a01b0386166000908152600d91909101602052604090209050611319614613565b61132482863561347f565b15801561139f5750611334612c6f565b604051631eae089360e01b8152863560048201526001600160a01b039190911690631eae089390602401602060405180830381865afa15801561137b573d6000803e3d6000fd5b505050506040513d601f19601f8201168201806040525081019061139f9190614a14565b156114795760006113af83613497565b90506113bc816001614a98565b67ffffffffffffffff8111156113d4576113d461483e565b6040519080825280602002602001820160405280156113fd578160200160208202803683370190505b50608083015260005b8181101561144b5761141884826134a1565b8360800151828151811061142e5761142e614b00565b60209081029190910101528061144381614b36565b915050611406565b5085600001358260800151828151811061146757611467614b00565b60200260200101818152505050611488565b61148282613162565b60808201525b6001600160a01b03861681526114a336869003860186614c20565b6020820152604081018490526114b7613026565b6001600160a01b0316633f90a08e82608001516040518263ffffffff1660e01b81526004016114e6919061499e565b600060405180830381865afa158015611503573d6000803e3d6000fd5b505050506040513d6000823e601f3d908101601f1916820160405261152b9190810190614c3c565b606082015260005b8160800151518110156119e6576115836040518060e00160405280600080191681526020016000815260200160008152602001600081526020016000815260200160008152602001600081525090565b60208301515160808401518051849081106115a0576115a0614b00565b6020026020010151036115b4575060208201515b60408051600780825261010082019092526000916020820160e080368337019050509050600061160b856080015185815181106115f3576115f3614b00565b602002602001015186600001518588604001516119f0565b905080600001518260008151811061162557611625614b00565b60200260200101818152505080602001518260018151811061164957611649614b00565b60200260200101818152505080604001518260028151811061166d5761166d614b00565b60200260200101818152505080608001518260038151811061169157611691614b00565b6020026020010181815250508060a00151826004815181106116b5576116b5614b00565b6020026020010181815250508060c00151826005815181106116d9576116d9614b00565b6020026020010181815250508060e00151826006815181106116fd576116fd614b00565b6020026020010181815250508460200151600001518560800151858151811061172857611728614b00565b6020026020010151036117bb578160068151811061174857611748614b00565b6020026020010151876000018181516117619190614a98565b90525081518290600390811061177957611779614b00565b60200260200101518260008151811061179457611794614b00565b60200260200101516117a69190614a98565b876020018181516117b79190614a98565b9052505b60006117c5612c6f565b6001600160a01b0316638a2eae92876080015187815181106117e9576117e9614b00565b6020026020010151856040518363ffffffff1660e01b815260040161180f929190614cc9565b600060405180830381865afa15801561182c573d6000803e3d6000fd5b505050506040513d6000823e601f3d908101601f191682016040526118549190810190614b73565b90508060018151811061186957611869614b00565b6020026020010151886060018181516118829190614a98565b90525080518190600290811061189a5761189a614b00565b6020026020010151886080018181516118b39190614a98565b9052508051819060049081106118cb576118cb614b00565b60200260200101518860c0018181516118e49190614a98565b9052508051819060059081106118fc576118fc614b00565b60200260200101518860e0018181516119159190614a98565b905250606086015180518690811061192f5761192f614b00565b6020026020010151156119cf578060008151811061194f5761194f614b00565b6020026020010151886040018181516119689190614a98565b90525080518190600390811061198057611980614b00565b60200260200101518860a0018181516119999190614a98565b9052508051819060069081106119b1576119b1614b00565b602002602001015188610100018181516119cb9190614a98565b9052505b5050505080806119de90614b36565b915050611533565b5050509392505050565b611a3860405180610100016040528060008152602001600081526020016000815260200160008152602001600081526020016000815260200160008152602001600081525090565b6000611a6186600087611a4961303e565b60008b815260079190910160205260409020546121da565b905083602001518160800151611a779190614a98565b825260408401516020820151611a8d9190614a98565b602083015260a08085015190820151611aa69190614a98565b6080830152606084015160c0820151611abf9190614a98565b60a083015260808401516040820151611ad89190614a98565b60c08084019190915284015160e0820151611af39190614a98565b60e0830152602082015115611bf9576000611b1f612710858560a001518660c00151610f019190614a98565b90508083602001511115611be5576000611b37612c6f565b6001600160a01b0316639abdb38a896040518263ffffffff1660e01b8152600401611b6491815260200190565b602060405180830381865afa158015611b81573d6000803e3d6000fd5b505050506040513d601f19601f82011682018060405250810190611ba59190614ae7565b9050818460200151611bb79190614ad4565b60608501819052611bd09061271090610f0b9084614c09565b611bda9083614a98565b604085015250611bf7565b60208301516040840152600060608401525b505b50949350505050565b60008080611c108585612a64565b905060005b8151811015611dbd576000828281518110611c3257611c32614b00565b602002602001015190506000611c4661303e565b6000898152600a919091016020908152604080832085845290915281205460ff169150611c7489838a6134ad565b9050611c808188614a98565b96506000611c908a84868c611ef5565b90508015611c9d57600196505b80158015611ca9575081155b15611ce857611ce684611cba61303e565b60008d8152600b91909101602090815260408083206001600160a01b038f16845290915290209061384d565b505b611cf0613859565b6001600160a01b0316637dec489e8b8b60018a51611d0e9190614ad4565b8914611d3d5789611d208a6001614a98565b81518110611d3057611d30614b00565b6020026020010151611d40565b60005b6040516001600160e01b031960e086901b16815260048101939093526001600160a01b0390911660248301526044820152606401600060405180830381600087803b158015611d8e57600080fd5b505af1158015611da2573d6000803e3d6000fd5b50505050505050508080611db590614b36565b915050611c15565b5082600003611eed57611dce613026565b60405163392d430160e01b81526001600160a01b03868116600483015260248201889052919091169063392d430190604401600060405180830381600087803b158015611e1a57600080fd5b505af1158015611e2e573d6000803e3d6000fd5b5050505081158015611eb85750611e43613859565b6040516314c3a4c760e21b8152600481018790526001600160a01b038681166024830152919091169063530e931c90604401602060405180830381865afa158015611e92573d6000803e3d6000fd5b505050506040513d601f19601f82011682018060405250810190611eb69190614ae7565b155b15611eed57611eeb85611ec961303e565b6001600160a01b0387166000908152600d91909101602052604090209061384d565b505b505092915050565b600080611f0061303e565b600087815260069190910160205260408120546001600160a01b03169150611f26613859565b604051632c75b3fb60e01b815260048101899052602481018790526001600160a01b039190911690632c75b3fb90604401602060405180830381865afa158015611f74573d6000803e3d6000fd5b505050506040513d601f19601f82011682018060405250810190611f989190614a14565b90508061201c57604051630919149560e21b81526000906001600160a01b03841690632464525490611fd0908a908990600401614d17565b6040805180830381865afa158015611fec573d6000803e3d6000fd5b505050506040513d601f19601f820116820180604052508101906120109190614d33565b509350610b5792505050565b600080600080856001600160a01b031663824c88628b8a6040518363ffffffff1660e01b8152600401612050929190614d17565b6080604051808303816000875af115801561206f573d6000803e3d6000fd5b505050506040513d601f19601f820116820180604052508101906120939190614d57565b9350935093509350836000146121cb578080156120d357506120b361303e565b60008c815260099190910160209081526040808320858452909152902054155b15612150576120e0613859565b60405163312c474560e01b8152600481018d90526001600160a01b038a8116602483015260448201859052919091169063312c474590606401600060405180830381600087803b15801561213357600080fd5b505af1158015612147573d6000803e3d6000fd5b505050506121cb565b612158613859565b6040516360e3f72960e11b8152600481018d90526001600160a01b038a811660248301526044820185905260648201879052919091169063c1c7ee5290608401600060405180830381600087803b1580156121b257600080fd5b505af11580156121c6573d6000803e3d6000fd5b505050505b50909998505050505050505050565b61223760405180610160016040528060008152602001600081526020016000815260200160008152602001600081526020016000815260200160008152602001600081526020016000815260200160008152602001600081525090565b604080516101608101825260008082526020820181905291810182905260608082018390526080820183905260a082015260c0810182905260e081018290526101008101829052610120810182905261014081019190915261229761303e565b600087815260059190910160205260409020546001600160a01b031660e08201526122c061303e565b600087815260069190910160205260409020546001600160a01b03166101008201526122ea61303e565b600401600087815260200190815260200160002060008154811061231057612310614b00565b60009182526020808320908204015460ff601f9092166101000a9004166060830152610120820184905285900361235d576001808252606082015160ff16604083015260208201526123a1565b6000815261236961303e565b6000878152600a91909101602090815260408083208884528252918290205460ff908116928401839052606084015116909114908201525b6123a9613859565b6040516314c3a4c760e21b8152600481018890526001600160a01b038681166024830152919091169063530e931c90604401602060405180830381865afa1580156123f8573d6000803e3d6000fd5b505050506040513d601f19601f8201168201806040525081019061241c9190614ae7565b61010083015261242c8685612a64565b60a082015260005b8160a001515181101561281c5760008260a00151828151811061245957612459614b00565b60200260200101519050600061246d61303e565b60008a8152600a919091016020908152604080832085845290915281205460ff169150612498613859565b604051632c75b3fb60e01b8152600481018c9052602481018590526001600160a01b039190911690632c75b3fb90604401602060405180830381865afa1580156124e6573d6000803e3d6000fd5b505050506040513d601f19601f8201168201806040525081019061250a9190614a14565b90508460200151806125255750846040015160ff168260ff16145b1561280657606085015160ff83811691161460006125478c8b89878688613878565b9050600061255a8d8c8a888a888a613b28565b9050600061256c8e8d8b89888a613e02565b80518351855192935090916125819190614d8b565b61258b9190614b16565b8a6101000181815161259d9190614b16565b90525060208082015183820151918501516000926125ba91614d8b565b6125c49190614b16565b905060008260400151846040015186604001516125e19190614d8b565b6125eb9190614b16565b9050818c6000018181516125ff9190614b16565b90525085156126105760c08b018290525b600082131561263b5761262282612fd4565b8c6020018181516126339190614a98565b905250612665565b60008212156126655761265061060583614a45565b8c6040018181516126619190614a98565b9052505b8a5161268157808c60600181815161267d9190614b16565b9052505b83606001518c60c0018181516126979190614a98565b905250606083015160808d0180516126b0908390614a98565b905250608084015160e08d0180516126c9908390614a98565b905250608083015160a08d0180516126e2908390614a98565b90525050506101008a01516000131593506128069250505057612703613859565b6001600160a01b031663aee1311e8b8861010001518860a00151888151811061272e5761272e614b00565b602002602001015160018a60a00151516127489190614ad4565b891461277b5760a08a015161275e8a6001614a98565b8151811061276e5761276e614b00565b602002602001015161277e565b60005b6040516001600160e01b031960e087901b1681526004810194909452602484019290925260448301526064820152608401602060405180830381865afa1580156127cc573d6000803e3d6000fd5b505050506040513d601f19601f820116820180604052508101906127f09190614ae7565b86610100018181516128029190614b16565b9052505b505050808061281490614b36565b915050612434565b5080602001518015612832575061010082015115155b15611bf9576000612841613859565b610100840151604051637636e94160e01b8152600481018a90526000602482015260448101919091526001600160a01b039190911690637636e94190606401602060405180830381865afa15801561289d573d6000803e3d6000fd5b505050506040513d601f19601f820116820180604052508101906128c19190614ae7565b905060006128ce83614034565b905060006128db846140c7565b905060006128f784838510156128f1578361417b565b8461417b565b9050808660000181815161290b9190614b16565b905250610120860181905260008113156129a55760008560c0015112156129835760008560c0015161293c90614a45565b82136129485781612956565b8560c0015161295690614a45565b905061296181612fd4565b876040018181516129729190614ad4565b90525061297f8183614d8b565b9150505b61298c81612fd4565b8660200181815161299d9190614a98565b905250612a33565b6000811215612a335760008560c001511315612a125760008560c00151826129cc90614a45565b136129df576129da82614a45565b6129e5565b8560c001515b90506129f081612fd4565b87602001818151612a019190614ad4565b905250612a0e8183614b16565b9150505b612a1e61060582614a45565b86604001818151612a2f9190614a98565b9052505b61014086018490528451612a57578386606001818151612a539190614b16565b9052505b5050505050949350505050565b6060612a9c612a7161303e565b6000858152600b91909101602090815260408083206001600160a01b03871684529091529020613162565b805190915015612b2557604051634f64581360e11b815273__$cd9358e65801d13c280787f44717df25ed$__90639ec8b02690612add90849060040161499e565b600060405180830381865af4158015612afa573d6000803e3d6000fd5b505050506040513d6000823e601f3d908101601f19168201604052612b229190810190614b73565b90505b92915050565b612b6382612b3761303e565b6000868152600b91909101602090815260408083206001600160a01b038716845290915290209061347f565b612baa57612b9f82612b7361303e565b6000868152600b91909101602090815260408083206001600160a01b03871684529091529020906141a7565b50612baa8382612c0b565b505050565b600081600003612bc157506000612b25565b428311612bd057612580612b22565b6301e13380612bdf4285614ad4565b612beb84612580614ad4565b612bf59190614c09565b612bff9190614dc1565b612b2290612580614ad4565b612c3982612c1761303e565b6001600160a01b0384166000908152600d91909101602052604090209061347f565b612c6b57612baa82612c4961303e565b6001600160a01b0384166000908152600d9190910160205260409020906141a7565b5050565b6000612c8f7121bab93932b731bca1b7b73a3937b63632b960711b6141b3565b905090565b60006001600160ff1b03821115612d035760405162461bcd60e51b815260206004820152602860248201527f53616665436173743a2076616c756520646f65736e27742066697420696e2061604482015267371034b73a191a9b60c11b60648201526084015b60405180910390fd5b5090565b6000806000612d1461303e565b600088815260069190910160205260409020546001600160a01b031663c7e035bc612d3d61303e565b60008a8152600a91909101602090815260408083208b84529091529081902054905160e083901b6001600160e01b031916815260ff90911660048201526001600160a01b03881660248201526044810187905260640160408051808303816000875af1158015612db1573d6000803e3d6000fd5b505050506040513d601f19601f82011682018060405250810190612dd59190614d33565b90935091506000612de68486614d8b565b90506000612df261303e565b60040160008a8152602001908152602001600020600081548110612e1857612e18614b00565b60009182526020918290209181049091015460ff601f9092166101000a900416612e4061303e565b60008b8152600a91909101602090815260408083208c845290915290205460ff16149050808015612e7057508115155b15612f13576000612e7f613859565b604051636aea0c5960e01b8152600481018c9052602481018b90526001600160a01b038a81166044830152606482018690529190911690636aea0c599060840160408051808303816000875af1158015612edd573d6000803e3d6000fd5b505050506040513d601f19601f82011682018060405250810190612f019190614d33565b94509050612f0f8187614b16565b9550505b83158015612f1f575082155b15612fc857612f5c88612f3061303e565b60008c8152600b91909101602090815260408083206001600160a01b038d16845290915290209061384d565b50612f93612f6861303e565b60008b8152600b91909101602090815260408083206001600160a01b038c1684529091529020613497565b600003612fc857612a5789612fa661303e565b6001600160a01b038a166000908152600d91909101602052604090209061384d565b50505050949350505050565b600080821215612d035760405162461bcd60e51b815260206004820181905260248201527f53616665436173743a2076616c7565206d75737420626520706f7369746976656044820152606401612cfa565b6000612c8f69151bdad95b95985d5b1d60b21b6141b3565b600080612b2560017f8041b8421ebd495cc61f38c788c9eb100daccf9bd36aa0bb920b7a15b2e04965614ad4565b6000612c8f6a14995cd95c9d99519d5b9960aa1b6141b3565b60008082156130945782613098565b6127105b9050610b5781610f0b61271087614c09565b60008082156130b957826130bd565b6127105b9050610b576130cb82612c94565b6130d6612710612c94565b6130e09087614dd5565b90614214565b604051632bfa7c1360e01b815260ff8316600482015260009081906001600160a01b03861690632bfa7c1390602401602060405180830381865afa158015613132573d6000803e3d6000fd5b505050506040513d601f19601f820116820180604052508101906131569190614ae7565b9050610a35838261417b565b6060600061316f836142b1565b9392505050565b60006131868360008460006121da565b51905060006131c161319661303e565b6000868152600b91909101602090815260408083206001600160a01b03881684529091529020613162565b905060005b81518110156132af576131d761303e565b600086815260069190910160205260409020546001600160a01b031663d3bcc4a861320061303e565b600a016000888152602001908152602001600020600085858151811061322857613228614b00565b6020026020010151815260200190815260200160002060009054906101000a900460ff16866040518363ffffffff1660e01b815260040161326a929190614d17565b600060405180830381600087803b15801561328457600080fd5b505af1158015613298573d6000803e3d6000fd5b5050505080806132a790614b36565b9150506131c6565b506132b8613859565b6040516355aef57960e11b8152600481018690526001600160a01b038581166024830152919091169063ab5deaf290604401600060405180830381600087803b15801561330457600080fd5b505af1158015613318573d6000803e3d6000fd5b50505050611eed8461332861303e565b6001600160a01b0386166000908152600d91909101602052604090209061384d565b60008061335561303e565b600085815260029190910160209081526040918290208251808401909352805483526001015460ff16908201819052909150610b579061339a90610d6c90600a614ee9565b82516130e09086614dd5565b60008082116133b457600080fd5b60056133c08385614dc1565b6133cb90600a614c09565b836133d786600a614c09565b6133e19190614dc1565b6133eb9190614ad4565b1015613402576133fb8284614dc1565b9050612b25565b61340c8284614dc1565b6133fb906001614a98565b60008061342261303e565b600085815260029190910160209081526040918290208251808401909352805480845260019091015460ff1691830191909152909150610b579061346590612fd4565b602083015161347590600a614ee9565b610f0b9086614c09565b60008181526001830160205260408120541515612b22565b6000612b25825490565b6000612b22838361430d565b6000806000806000806000806134c161303e565b60008c8152600591909101602052604090819020549051630f506ad360e41b81526001600160a01b039091169063f506ad3090613504908d908d90600401614d17565b60e0604051808303816000875af1158015613523573d6000803e3d6000fd5b505050506040513d601f19601f820116820180604052508101906135479190614ef8565b9650965096509650965096509650818311156135d457613565613026565b6001600160a01b031663fb7bd3b48a8d61357f8688614ad4565b6040518463ffffffff1660e01b815260040161359d93929190614a61565b600060405180830381600087803b1580156135b757600080fd5b505af11580156135cb573d6000803e3d6000fd5b5050505061364f565b8183101561364f576135e4613026565b6001600160a01b0316634ba0c9b58a8d6135fe8787614ad4565b6040518463ffffffff1660e01b815260040161361c93929190614a61565b600060405180830381600087803b15801561363657600080fd5b505af115801561364a573d6000803e3d6000fd5b505050505b841561371f5761365d61303e565b60008c815260069190910160205260409081902054905163311aa66f60e11b81526001600160a01b03909116906362354cde906136a4908d908d908a908790600401614aab565b600060405180830381600087803b1580156136be57600080fd5b505af11580156136d2573d6000803e3d6000fd5b50505050808b8a6001600160a01b03167fba00994778888e87ce0908fd360c4b0417bfe7e274cce4cb72ed8a60b38b3e386000878a60405161371693929190614f4c565b60405180910390a45b83156137ef5761372d61303e565b60008c8152600691909101602052604090819020549051632fa7f48760e21b81526001600160a01b039091169063be9fd21c90613774908d908d9089908790600401614aab565b600060405180830381600087803b15801561378e57600080fd5b505af11580156137a2573d6000803e3d6000fd5b50505050808b8a6001600160a01b03167fba00994778888e87ce0908fd360c4b0417bfe7e274cce4cb72ed8a60b38b3e38600186896040516137e693929190614f4c565b60405180910390a45b6137f98284614a98565b61380161303e565b60008d8152600991909101602090815260408083208584529091528120805490919061382e908490614ad4565b9091555061383e90508688614a98565b9b9a5050505050505050505050565b6000612b228383614337565b6000612c8f7011d95b995cda5cd5985b1d5955985d5b1d607a1b6141b3565b61389c60405180606001604052806000815260200160008152602001600081525090565b6000808661010001516001600160a01b03166324645254878a6040518363ffffffff1660e01b81526004016138d2929190614d17565b6040805180830381865afa1580156138ee573d6000803e3d6000fd5b505050506040513d601f19601f820116820180604052508101906139129190614d33565b9150915081600014613b1c5783156139b8578660200151156139b357613936613859565b604051630c30971960e11b8152600481018b905260248101839052604481018490526001600160a01b0391909116906318612e32906064015b602060405180830381865afa15801561398c573d6000803e3d6000fd5b505050506040513d601f19601f820116820180604052508101906139b09190614ae7565b83525b613b1c565b865180156139c4575084155b15613a2f5760006139d488614034565b90506139e78a8960e0015184868561442a565b60408601819052602086019190915260001315613a29576000613a09896140c7565b905080821015613a2757613a2185604001518261417b565b60208601525b505b50613b1c565b865180613a3e57508660200151155b80613a465750845b15613b1c5760e08701516040808901519051632bfa7c1360e01b815260ff90911660048201526000916001600160a01b031690632bfa7c1390602401602060405180830381865afa158015613a9f573d6000803e3d6000fd5b505050506040513d601f19601f82011682018060405250810190613ac39190614ae7565b6040850184905290506000831215613b0a576000613ae6838a6101200151612baf565b9050613aff84828410613af9578361417b565b8261417b565b602086015250613b1a565b613b14838261417b565b60208501525b505b50509695505050505050565b613b5a6040518060a0016040528060008152602001600081526020016000815260200160008152602001600081525090565b6000806000613b6e878a6101200151612baf565b60e08a015160405163098c15f960e31b815260ff8b1660048201526001600160a01b038d8116602483015260448201849052929350911690634c60afc890606401608060405180830381865afa158015613bcc573d6000803e3d6000fd5b505050506040513d601f19601f82011682018060405250810190613bf09190614f82565b6080880192909252606087019290925290935091508415613c1357600060608501525b8215613df4578415613cbf57886020015115613cba57613c31613859565b6001600160a01b03166318612e328c84613c4a87612c94565b6040516001600160e01b031960e086901b168152600481019390935260248301919091526044820152606401602060405180830381865afa158015613c93573d6000803e3d6000fd5b505050506040513d601f19601f82011682018060405250810190613cb79190614ae7565b84525b613df4565b88518015613ccb575085155b15613d30576000613cdb8a614034565b9050613cf68c8b60e0015185613cf088612c94565b8561442a565b604087015260208601526000613d0b8b6140c7565b905080821015613d2957613d2386604001518261417b565b60208701525b5050613df4565b885180613d3f57508860200151155b80613d475750855b15613df45760e08901516040808b01519051632bfa7c1360e01b815260ff90911660048201526000916001600160a01b031690632bfa7c1390602401602060405180830381865afa158015613da0573d6000803e3d6000fd5b505050506040513d601f19601f82011682018060405250810190613dc49190614ae7565b9050613dcf84612c94565b60408601819052613ded90838310613de7578261417b565b8361417b565b6020860152505b505050979650505050505050565b613e346040518060a0016040528060008152602001600081526020016000815260200160008152602001600081525090565b6000808660e001516001600160a01b03166313a4451c878a6040518363ffffffff1660e01b8152600401613e69929190614d17565b608060405180830381865afa158015613e86573d6000803e3d6000fd5b505050506040513d601f19601f82011682018060405250810190613eaa9190614f82565b6080870192909252606086019290925290925090508315613ecd57600060608401525b8115613b1c578315613f35578660200151156139b357613eeb613859565b6001600160a01b03166318612e328a83613f0486612c94565b6040516001600160e01b031960e086901b16815260048101939093526024830191909152604482015260640161396f565b86518015613f41575084155b15613fe457613fd5898860e0015183613f5986612c94565b60e08c015160608d0151604051632bfa7c1360e01b815260ff90911660048201526001600160a01b0390911690632bfa7c1390602401602060405180830381865afa158015613fac573d6000803e3d6000fd5b505050506040513d601f19601f82011682018060405250810190613fd09190614ae7565b61442a565b60408501526020840152613b1c565b865180613ff357508660200151155b80613ffb5750845b15613b1c5761400982612c94565b604080850182905260e089015190890151614023926130e6565b602084015250509695505050505050565b600081608001516000036140bf5760e08201516060830151604051632bfa7c1360e01b815260ff90911660048201526001600160a01b0390911690632bfa7c1390602401602060405180830381865afa158015614095573d6000803e3d6000fd5b505050506040513d601f19601f820116820180604052508101906140b99190614ae7565b60808301525b506080015190565b600081610140015160001480156140e2575061012082015115155b156141725760e0820151606083015160405163527f921d60e11b815260ff909116600482015261416b916001600160a01b03169063a4ff243a90602401602060405180830381865afa15801561413c573d6000803e3d6000fd5b505050506040513d601f19601f820116820180604052508101906141609190614ae7565b836101200151612baf565b6101408301525b50610140015190565b600080821561418a578261418e565b6127105b9050610b5761419e612710612c94565b6130d683612c94565b6000612b228383614596565b6000806141be6145e5565b600084815260019190910160205260409020546001600160a01b0316905080612b255760408051602081018590520160408051601f19818403018152908290526346e2ec9360e01b8252612cfa91600401614fb8565b60008160000361422357600080fd5b600061422f8385615006565b61423a90600a614dd5565b8361424686600a614dd5565b6142509190615006565b61425a9190614d8b565b9050600581126142815761426e8385615006565b614279906001614b16565b915050612b25565b60041981136142a05760016142968486615006565b6142799190614d8b565b6142798385615006565b5092915050565b60608160000180548060200260200160405190810160405280929190818152602001828054801561430157602002820191906000526020600020905b8154815260200190600101908083116142ed575b50505050509050919050565b600082600001828154811061432457614324614b00565b9060005260206000200154905092915050565b6000818152600183016020526040812054801561442057600061435b600183614ad4565b855490915060009061436f90600190614ad4565b90508181146143d457600086600001828154811061438f5761438f614b00565b90600052602060002001549050808760000184815481106143b2576143b2614b00565b6000918252602080832090910192909255918252600188019052604090208390555b85548690806143e5576143e5615034565b600190038181906000526020600020016000905590558560010160008681526020019081526020016000206000905560019350505050612b25565b6000915050612b25565b600080614435613859565b60405163474611f160e01b815260048101899052602481018790526001600160a01b03919091169063474611f19060440160a060405180830381865afa158015614483573d6000803e3d6000fd5b505050506040513d601f19601f820116820180604052508101906144a7919061504a565b516000036144f5576144e2866144bb61303e565b60008a8152600a91909101602090815260408083208a845290915290205460ff16866130e6565b91506144ee82846130aa565b905061458c565b6144fd613859565b604051631b736f6760e31b8152600481018990526024810187905260006044820152606481018690526001600160a01b03919091169063db9b7b3890608401602060405180830381865afa158015614559573d6000803e3d6000fd5b505050506040513d601f19601f8201168201806040525081019061457d9190614ae7565b9050614589818461417b565b91505b9550959350505050565b60008181526001830160205260408120546145dd57508154600181810184556000848152602080822090930184905584548482528286019093526040902091909155612b25565b506000612b25565b600080612b2560017f4abde63c3e81aefa5764b017968bc473e83e093d7e1a10247d19e0a3e4124018614ad4565b6040518060a0016040528060006001600160a01b031681526020016146716040518060e00160405280600080191681526020016000815260200160008152602001600081526020016000815260200160008152602001600081525090565b81526020016000815260200160608152602001606081525090565b80356001600160a01b03811681146146a357600080fd5b919050565b6000806000606084860312156146bd57600080fd5b83359250602084013591506146d46040850161468c565b90509250925092565b600080600080608085870312156146f357600080fd5b843593506020850135925061470a6040860161468c565b9396929550929360600135925050565b600080600080600080600060e0888a03121561473557600080fd5b873596506020880135955061474c6040890161468c565b945060608801356002811061476057600080fd5b9699959850939660808101359560a0820135955060c0909101359350915050565b60008060006060848603121561479657600080fd5b505081359360208301359350604090920135919050565b6000602082840312156147bf57600080fd5b612b228261468c565b600080604083850312156147db57600080fd5b823591506147eb6020840161468c565b90509250929050565b600080600083850361012081121561480b57600080fd5b6148148561468c565b935060e0601f198201121561482857600080fd5b5060208401915061010084013590509250925092565b634e487b7160e01b600052604160045260246000fd5b604051601f8201601f1916810167ffffffffffffffff8111828210171561487d5761487d61483e565b604052919050565b600060e0828403121561489757600080fd5b60405160e0810181811067ffffffffffffffff821117156148ba576148ba61483e565b8060405250809150823581526020830135602082015260408301356040820152606083013560608201526080830135608082015260a083013560a082015260c083013560c08201525092915050565b600080600080610140858703121561492057600080fd5b843593506149306020860161468c565b925061493f8660408701614885565b939692955092936101200135925050565b6000806000806080858703121561496657600080fd5b84359350602085013560ff8116811461497e57600080fd5b9250604085013591506149936060860161468c565b905092959194509250565b6020808252825182820181905260009190848201906040850190845b818110156149d6578351835292840192918401916001016149ba565b50909695505050505050565b600080604083850312156149f557600080fd5b50508035926020909101359150565b805180151581146146a357600080fd5b600060208284031215614a2657600080fd5b612b2282614a04565b634e487b7160e01b600052601160045260246000fd5b6000600160ff1b8201614a5a57614a5a614a2f565b5060000390565b6001600160a01b039390931683526020830191909152604082015260600190565b634e487b7160e01b600052602160045260246000fd5b80820180821115612b2557612b25614a2f565b60ff9490941684526001600160a01b039290921660208401526040830152606082015260800190565b81810381811115612b2557612b25614a2f565b600060208284031215614af957600080fd5b5051919050565b634e487b7160e01b600052603260045260246000fd5b8082018281126000831280158216821582161715611eed57611eed614a2f565b600060018201614b4857614b48614a2f565b5060010190565b600067ffffffffffffffff821115614b6957614b6961483e565b5060051b60200190565b60006020808385031215614b8657600080fd5b825167ffffffffffffffff811115614b9d57600080fd5b8301601f81018513614bae57600080fd5b8051614bc1614bbc82614b4f565b614854565b81815260059190911b82018301908381019087831115614be057600080fd5b928401925b82841015614bfe57835182529284019290840190614be5565b979650505050505050565b8082028115828204841417612b2557612b25614a2f565b600060e08284031215614c3257600080fd5b612b228383614885565b60006020808385031215614c4f57600080fd5b825167ffffffffffffffff811115614c6657600080fd5b8301601f81018513614c7757600080fd5b8051614c85614bbc82614b4f565b81815260059190911b82018301908381019087831115614ca457600080fd5b928401925b82841015614bfe57614cba84614a04565b82529284019290840190614ca9565b6000604082018483526020604081850152818551808452606086019150828701935060005b81811015614d0a57845183529383019391830191600101614cee565b5090979650505050505050565b60ff9290921682526001600160a01b0316602082015260400190565b60008060408385031215614d4657600080fd5b505080516020909101519092909150565b60008060008060808587031215614d6d57600080fd5b84519350602085015192506040850151915061499360608601614a04565b81810360008312801583831316838312821617156142aa576142aa614a2f565b634e487b7160e01b600052601260045260246000fd5b600082614dd057614dd0614dab565b500490565b80820260008212600160ff1b84141615614df157614df1614a2f565b8181058314821517612b2557612b25614a2f565b600181815b80851115614e40578160001904821115614e2657614e26614a2f565b80851615614e3357918102915b93841c9390800290614e0a565b509250929050565b600082614e5757506001612b25565b81614e6457506000612b25565b8160018114614e7a5760028114614e8457614ea0565b6001915050612b25565b60ff841115614e9557614e95614a2f565b50506001821b612b25565b5060208310610133831016604e8410600b8410161715614ec3575081810a612b25565b614ecd8383614e05565b8060001904821115614ee157614ee1614a2f565b029392505050565b6000612b2260ff841683614e48565b600080600080600080600060e0888a031215614f1357600080fd5b5050855160208701516040880151606089015160808a015160a08b015160c0909b0151949c939b50919990985090965094509092509050565b6060810160028510614f6e57634e487b7160e01b600052602160045260246000fd5b938152602081019290925260409091015290565b60008060008060808587031215614f9857600080fd5b505082516020840151604085015160609095015191969095509092509050565b600060208083528351808285015260005b81811015614fe557858101830151858201604001528201614fc9565b506000604082860101526040601f19601f8301168501019250505092915050565b60008261501557615015614dab565b600160ff1b82146000198414161561502f5761502f614a2f565b500590565b634e487b7160e01b600052603160045260246000fd5b600060a0828403121561505c57600080fd5b60405160a0810181811067ffffffffffffffff8211171561507f5761507f61483e565b80604052508251815260208301516020820152604083015160408201526060830151606082015260808301516080820152809150509291505056fea264697066735822122002123e044abc99898635e71f449aab280c4e92771ee91472cb3c8efc2307108564736f6c63430008130033",
  "linkReferences": {
    "contracts/protocol/libraries/QuickSort.sol": {
      "QuickSort": [
        {
          "length": 20,
          "start": 10991
        }
      ]
    }
  },
  "deployedLinkReferences": {
    "contracts/protocol/libraries/QuickSort.sol": {
      "QuickSort": [
        {
          "length": 20,
          "start": 10933
        }
      ]
    }
  }
}