{
  "_format": "hh-sol-artifact-1",
  "contractName": "FundManagementLogic",
  "sourceName": "contracts/protocol/libraries/logics/FundManagementLogic.sol",
  "abi": [
    {
      "inputs": [],
      "name": "AlreadyRedeemed",
      "type": "error"
    },
    {
      "inputs": [],
      "name": "InsufficientCollateral",
      "type": "error"
    },
    {
      "inputs": [
        {
          "internalType": "string",
          "name": "name",
          "type": "string"
        }
      ],
      "name": "MissingAddress",
      "type": "error"
    },
    {
      "inputs": [],
      "name": "NoRedemptionAmount",
      "type": "error"
    },
    {
      "inputs": [],
      "name": "NoRepaymentAmount",
      "type": "error"
    },
    {
      "inputs": [],
      "name": "NotRedemptionPeriod",
      "type": "error"
    },
    {
      "inputs": [],
      "name": "NotRepaymentPeriod",
      "type": "error"
    },
    {
      "anonymous": false,
      "inputs": [
        {
          "indexed": true,
          "internalType": "address",
          "name": "user",
          "type": "address"
        },
        {
          "indexed": false,
          "internalType": "uint256",
          "name": "amount",
          "type": "uint256"
        }
      ],
      "name": "EmergencySettlementExecuted",
      "type": "event"
    },
    {
      "anonymous": false,
      "inputs": [
        {
          "indexed": true,
          "internalType": "address",
          "name": "taker",
          "type": "address"
        },
        {
          "indexed": true,
          "internalType": "bytes32",
          "name": "ccy",
          "type": "bytes32"
        },
        {
          "indexed": false,
          "internalType": "enum ProtocolTypes.Side",
          "name": "side",
          "type": "uint8"
        },
        {
          "indexed": true,
          "internalType": "uint256",
          "name": "maturity",
          "type": "uint256"
        },
        {
          "indexed": false,
          "internalType": "uint256",
          "name": "amount",
          "type": "uint256"
        },
        {
          "indexed": false,
          "internalType": "uint256",
          "name": "amountInFV",
          "type": "uint256"
        },
        {
          "indexed": false,
          "internalType": "uint256",
          "name": "feeInFV",
          "type": "uint256"
        }
      ],
      "name": "OrderFilled",
      "type": "event"
    },
    {
      "anonymous": false,
      "inputs": [
        {
          "indexed": false,
          "internalType": "uint48",
          "name": "orderId",
          "type": "uint48"
        },
        {
          "indexed": true,
          "internalType": "address",
          "name": "maker",
          "type": "address"
        },
        {
          "indexed": true,
          "internalType": "bytes32",
          "name": "ccy",
          "type": "bytes32"
        },
        {
          "indexed": false,
          "internalType": "enum ProtocolTypes.Side",
          "name": "side",
          "type": "uint8"
        },
        {
          "indexed": false,
          "internalType": "uint256",
          "name": "maturity",
          "type": "uint256"
        },
        {
          "indexed": false,
          "internalType": "uint256",
          "name": "amount",
          "type": "uint256"
        },
        {
          "indexed": false,
          "internalType": "uint256",
          "name": "amountInFV",
          "type": "uint256"
        }
      ],
      "name": "OrderPartiallyFilled",
      "type": "event"
    },
    {
      "anonymous": false,
      "inputs": [
        {
          "indexed": true,
          "internalType": "address",
          "name": "taker",
          "type": "address"
        },
        {
          "indexed": true,
          "internalType": "bytes32",
          "name": "ccy",
          "type": "bytes32"
        },
        {
          "indexed": false,
          "internalType": "enum ProtocolTypes.Side",
          "name": "side",
          "type": "uint8"
        },
        {
          "indexed": true,
          "internalType": "uint256",
          "name": "maturity",
          "type": "uint256"
        },
        {
          "indexed": false,
          "internalType": "uint256",
          "name": "amount",
          "type": "uint256"
        },
        {
          "indexed": false,
          "internalType": "uint256",
          "name": "amountInFV",
          "type": "uint256"
        }
      ],
      "name": "OrdersFilledInAsync",
      "type": "event"
    },
    {
      "anonymous": false,
      "inputs": [
        {
          "indexed": true,
          "internalType": "address",
          "name": "user",
          "type": "address"
        },
        {
          "indexed": true,
          "internalType": "bytes32",
          "name": "ccy",
          "type": "bytes32"
        },
        {
          "indexed": true,
          "internalType": "uint256",
          "name": "maturity",
          "type": "uint256"
        },
        {
          "indexed": false,
          "internalType": "uint256",
          "name": "amount",
          "type": "uint256"
        }
      ],
      "name": "RedemptionExecuted",
      "type": "event"
    },
    {
      "anonymous": false,
      "inputs": [
        {
          "indexed": true,
          "internalType": "address",
          "name": "user",
          "type": "address"
        },
        {
          "indexed": true,
          "internalType": "bytes32",
          "name": "ccy",
          "type": "bytes32"
        },
        {
          "indexed": true,
          "internalType": "uint256",
          "name": "maturity",
          "type": "uint256"
        },
        {
          "indexed": false,
          "internalType": "uint256",
          "name": "amount",
          "type": "uint256"
        }
      ],
      "name": "RepaymentExecuted",
      "type": "event"
    },
    {
      "inputs": [],
      "name": "BASE_MIN_DEBT_UNIT_PRICE",
      "outputs": [
        {
          "internalType": "uint256",
          "name": "",
          "type": "uint256"
        }
      ],
      "stateMutability": "view",
      "type": "function"
    },
    {
      "inputs": [
        {
          "internalType": "bytes32",
          "name": "_ccy",
          "type": "bytes32"
        },
        {
          "internalType": "uint256",
          "name": "_maturity",
          "type": "uint256"
        },
        {
          "internalType": "int256",
          "name": "_presentValue",
          "type": "int256"
        }
      ],
      "name": "calculateFVFromPV",
      "outputs": [
        {
          "internalType": "int256",
          "name": "futureValue",
          "type": "int256"
        }
      ],
      "stateMutability": "view",
      "type": "function"
    },
    {
      "inputs": [
        {
          "internalType": "bytes32",
          "name": "_ccy",
          "type": "bytes32"
        },
        {
          "internalType": "address",
          "name": "_user",
          "type": "address"
        },
        {
          "components": [
            {
              "internalType": "bytes32",
              "name": "ccy",
              "type": "bytes32"
            },
            {
              "internalType": "uint256",
              "name": "workingLendOrdersAmount",
              "type": "uint256"
            },
            {
              "internalType": "uint256",
              "name": "claimableAmount",
              "type": "uint256"
            },
            {
              "internalType": "uint256",
              "name": "workingBorrowOrdersAmount",
              "type": "uint256"
            },
            {
              "internalType": "uint256",
              "name": "debtAmount",
              "type": "uint256"
            },
            {
              "internalType": "uint256",
              "name": "lentAmount",
              "type": "uint256"
            },
            {
              "internalType": "uint256",
              "name": "borrowedAmount",
              "type": "uint256"
            }
          ],
          "internalType": "struct ILendingMarketController.AdditionalFunds",
          "name": "_additionalFunds",
          "type": "tuple"
        },
        {
          "internalType": "uint256",
          "name": "_liquidationThresholdRate",
          "type": "uint256"
        }
      ],
      "name": "calculateFunds",
      "outputs": [
        {
          "components": [
            {
              "internalType": "uint256",
              "name": "workingLendOrdersAmount",
              "type": "uint256"
            },
            {
              "internalType": "uint256",
              "name": "claimableAmount",
              "type": "uint256"
            },
            {
              "internalType": "uint256",
              "name": "collateralAmount",
              "type": "uint256"
            },
            {
              "internalType": "uint256",
              "name": "lentAmount",
              "type": "uint256"
            },
            {
              "internalType": "uint256",
              "name": "workingBorrowOrdersAmount",
              "type": "uint256"
            },
            {
              "internalType": "uint256",
              "name": "debtAmount",
              "type": "uint256"
            },
            {
              "internalType": "uint256",
              "name": "borrowedAmount",
              "type": "uint256"
            }
          ],
          "internalType": "struct ILendingMarketController.CalculatedFunds",
          "name": "funds",
          "type": "tuple"
        }
      ],
      "stateMutability": "view",
      "type": "function"
    },
    {
      "inputs": [
        {
          "internalType": "bytes32",
          "name": "_ccy",
          "type": "bytes32"
        },
        {
          "internalType": "uint256",
          "name": "_maturity",
          "type": "uint256"
        },
        {
          "internalType": "int256",
          "name": "_futureValue",
          "type": "int256"
        }
      ],
      "name": "calculatePVFromFV",
      "outputs": [
        {
          "internalType": "int256",
          "name": "presentValue",
          "type": "int256"
        }
      ],
      "stateMutability": "view",
      "type": "function"
    },
    {
      "inputs": [
        {
          "internalType": "address",
          "name": "_user",
          "type": "address"
        },
        {
          "components": [
            {
              "internalType": "bytes32",
              "name": "ccy",
              "type": "bytes32"
            },
            {
              "internalType": "uint256",
              "name": "workingLendOrdersAmount",
              "type": "uint256"
            },
            {
              "internalType": "uint256",
              "name": "claimableAmount",
              "type": "uint256"
            },
            {
              "internalType": "uint256",
              "name": "workingBorrowOrdersAmount",
              "type": "uint256"
            },
            {
              "internalType": "uint256",
              "name": "debtAmount",
              "type": "uint256"
            },
            {
              "internalType": "uint256",
              "name": "lentAmount",
              "type": "uint256"
            },
            {
              "internalType": "uint256",
              "name": "borrowedAmount",
              "type": "uint256"
            }
          ],
          "internalType": "struct ILendingMarketController.AdditionalFunds",
          "name": "_additionalFunds",
          "type": "tuple"
        },
        {
          "internalType": "uint256",
          "name": "_liquidationThresholdRate",
          "type": "uint256"
        }
      ],
      "name": "calculateTotalFundsInBaseCurrency",
      "outputs": [
        {
          "components": [
            {
              "internalType": "uint256",
              "name": "plusDepositAmountInAdditionalFundsCcy",
              "type": "uint256"
            },
            {
              "internalType": "uint256",
              "name": "minusDepositAmountInAdditionalFundsCcy",
              "type": "uint256"
            },
            {
              "internalType": "uint256",
              "name": "workingLendOrdersAmount",
              "type": "uint256"
            },
            {
              "internalType": "uint256",
              "name": "claimableAmount",
              "type": "uint256"
            },
            {
              "internalType": "uint256",
              "name": "collateralAmount",
              "type": "uint256"
            },
            {
              "internalType": "uint256",
              "name": "lentAmount",
              "type": "uint256"
            },
            {
              "internalType": "uint256",
              "name": "workingBorrowOrdersAmount",
              "type": "uint256"
            },
            {
              "internalType": "uint256",
              "name": "debtAmount",
              "type": "uint256"
            },
            {
              "internalType": "uint256",
              "name": "borrowedAmount",
              "type": "uint256"
            }
          ],
          "internalType": "struct ILendingMarketController.CalculatedTotalFunds",
          "name": "totalFunds",
          "type": "tuple"
        }
      ],
      "stateMutability": "view",
      "type": "function"
    },
    {
      "inputs": [
        {
          "internalType": "bytes32",
          "name": "_ccy",
          "type": "bytes32"
        },
        {
          "internalType": "uint256",
          "name": "_maturity",
          "type": "uint256"
        },
        {
          "internalType": "address",
          "name": "_user",
          "type": "address"
        },
        {
          "internalType": "uint256",
          "name": "_minDebtUnitPrice",
          "type": "uint256"
        }
      ],
      "name": "getActualFunds",
      "outputs": [
        {
          "components": [
            {
              "internalType": "int256",
              "name": "presentValue",
              "type": "int256"
            },
            {
              "internalType": "uint256",
              "name": "claimableAmount",
              "type": "uint256"
            },
            {
              "internalType": "uint256",
              "name": "debtAmount",
              "type": "uint256"
            },
            {
              "internalType": "int256",
              "name": "futureValue",
              "type": "int256"
            },
            {
              "internalType": "uint256",
              "name": "workingLendOrdersAmount",
              "type": "uint256"
            },
            {
              "internalType": "uint256",
              "name": "lentAmount",
              "type": "uint256"
            },
            {
              "internalType": "uint256",
              "name": "workingBorrowOrdersAmount",
              "type": "uint256"
            },
            {
              "internalType": "uint256",
              "name": "borrowedAmount",
              "type": "uint256"
            },
            {
              "internalType": "int256",
              "name": "genesisValue",
              "type": "int256"
            }
          ],
          "internalType": "struct FundManagementLogic.ActualFunds",
          "name": "actualFunds",
          "type": "tuple"
        }
      ],
      "stateMutability": "view",
      "type": "function"
    },
    {
      "inputs": [
        {
          "internalType": "uint256",
          "name": "_maturity",
          "type": "uint256"
        },
        {
          "internalType": "uint256",
          "name": "_minDebtUnitPrice",
          "type": "uint256"
        }
      ],
      "name": "getCurrentMinDebtUnitPrice",
      "outputs": [
        {
          "internalType": "uint256",
          "name": "",
          "type": "uint256"
        }
      ],
      "stateMutability": "view",
      "type": "function"
    },
    {
      "inputs": [
        {
          "internalType": "bytes32",
          "name": "_ccy",
          "type": "bytes32"
        },
        {
          "internalType": "uint256",
          "name": "_maturity",
          "type": "uint256"
        },
        {
          "internalType": "address",
          "name": "_user",
          "type": "address"
        }
      ],
      "name": "getPosition",
      "outputs": [
        {
          "internalType": "int256",
          "name": "presentValue",
          "type": "int256"
        },
        {
          "internalType": "int256",
          "name": "futureValue",
          "type": "int256"
        }
      ],
      "stateMutability": "view",
      "type": "function"
    },
    {
      "inputs": [
        {
          "internalType": "bytes32",
          "name": "_ccy",
          "type": "bytes32"
        },
        {
          "internalType": "address",
          "name": "_user",
          "type": "address"
        }
      ],
      "name": "getUsedMaturities",
      "outputs": [
        {
          "internalType": "uint256[]",
          "name": "maturities",
          "type": "uint256[]"
        }
      ],
      "stateMutability": "view",
      "type": "function"
    }
  ],
  "bytecode": "0x614ebb61003a600b82828239805160001a60731461002d57634e487b7160e01b600052600060045260246000fd5b30600052607381538281f3fe73000000000000000000000000000000000000000030146080604052600436106101205760003560e01c80639349fb41116100ac578063b61ef55a1161007b578063b61ef55a14610364578063b6eb033d14610384578063c59cf0e9146103a4578063d2a19b3e146103b7578063ffee9d48146103d757600080fd5b80639349fb41146102a85780639519832b14610311578063ad8cc5e014610331578063b55c692f1461035157600080fd5b8063279c2541116100f3578063279c2541146101b55780635dd3a2c1146101c85780636566246e146101e8578063826b47e8146102085780638be3091e1461022857600080fd5b8063062ea294146101255780630a016fd8146101525780630b7915e6146101805780631dcc4092146101a2575b600080fd5b61013861013336600461448f565b6103e0565b604080519283526020830191909152015b60405180910390f35b81801561015e57600080fd5b5061017261016d3660046144c4565b610407565b604051908152602001610149565b81801561018c57600080fd5b506101a061019b366004614501565b6105dc565b005b6101726101b0366004614568565b61088d565b6101726101c3366004614568565b610957565b8180156101d457600080fd5b506101a06101e3366004614594565b6109b7565b8180156101f457600080fd5b506101a061020336600461448f565b610e90565b81801561021457600080fd5b506101a0610223366004614594565b611043565b61023b6102363660046145af565b6110ad565b6040516101499190600061012082019050825182526020830151602083015260408301516040830152606083015160608301526080830151608083015260a083015160a083015260c083015160c083015260e083015160e083015261010080840151818401525092915050565b6102bb6102b63660046146c4565b611803565b6040516101499190600060e082019050825182526020830151602083015260408301516040830152606083015160608301526080830151608083015260a083015160a083015260c083015160c083015292915050565b81801561031d57600080fd5b5061017261032c36600461470b565b6119ff565b81801561033d57600080fd5b5061017261034c366004614737565b611dc5565b61023b61035f3660046144c4565b611faf565b61037761037236600461470b565b61281e565b6040516101499190614785565b81801561039057600080fd5b506101a061039f36600461448f565b6128e5565b6101726103b23660046147c9565b612969565b8180156103c357600080fd5b506101a06103d236600461470b565b6129c5565b61017261258081565b60008060006103f28686866000611faf565b80516060909101519097909650945050505050565b6000610411612a29565b6001600160a01b0316631eae0893866040518263ffffffff1660e01b815260040161043e91815260200190565b602060405180830381865afa15801561045b573d6000803e3d6000fd5b505050506040513d601f19601f8201168201806040525081019061047f91906147fb565b8061048957508342105b156104a757604051630d85ae3d60e11b815260040160405180910390fd5b6104b185846119ff565b50600082156104d1576104c383612a4e565b6104cc9061482c565b6104e3565b6104de8686866000611faf565b606001515b90506000811261050657604051634c5e410960e01b815260040160405180910390fd5b61052361051587878785612ac1565b61051e9061482c565b612d8e565b915061052d612de0565b6001600160a01b031663fb7bd3b48588856040518463ffffffff1660e01b815260040161055c93929190614848565b600060405180830381600087803b15801561057657600080fd5b505af115801561058a573d6000803e3d6000fd5b505050508486856001600160a01b03167fc8d9ad27b2dc11154d9c9cb9a64cbede1ef8d2160950ea5d2bbba5161509b1cd856040516105cb91815260200190565b60405180910390a450949350505050565b60006105e6612df8565b600089815260069190910160205260408120546001600160a01b0316915061060c612df8565b60008a8152600a91909101602090815260408083208b845290915290205460ff169050600186600181111561064357610643614869565b0361072557610650612de0565b6001600160a01b0316634ba0c9b5888b886040518463ffffffff1660e01b815260040161067f93929190614848565b600060405180830381600087803b15801561069957600080fd5b505af11580156106ad573d6000803e3d6000fd5b50505050816001600160a01b031663be9fd21c828986886106ce919061487f565b8c6040518563ffffffff1660e01b81526004016106ee9493929190614892565b600060405180830381600087803b15801561070857600080fd5b505af115801561071c573d6000803e3d6000fd5b505050506107fe565b61072d612de0565b6001600160a01b031663fb7bd3b4888b886040518463ffffffff1660e01b815260040161075c93929190614848565b600060405180830381600087803b15801561077657600080fd5b505af115801561078a573d6000803e3d6000fd5b50505050816001600160a01b03166362354cde828986886107ab91906148bb565b8c6040518563ffffffff1660e01b81526004016107cb9493929190614892565b600060405180830381600087803b1580156107e557600080fd5b505af11580156107f9573d6000803e3d6000fd5b505050505b821561088257600061080e612e26565b60405163311aa66f60e11b81529091506001600160a01b038416906362354cde90610843908590859089908f90600401614892565b600060405180830381600087803b15801561085d57600080fd5b505af1158015610871573d6000803e3d6000fd5b505050506108808a8a836128e5565b505b505050505050505050565b600080610898612df8565b600086815260059190910160205260409020546001600160a01b0316632bfa7c136108c1612df8565b6000888152600a91909101602090815260408083208984529091529081902054905160e083901b6001600160e01b031916815260ff9091166004820152602401602060405180830381865afa15801561091e573d6000803e3d6000fd5b505050506040513d601f19601f8201168201806040525081019061094291906148ce565b905061094e8382612e3f565b95945050505050565b60006109af610964612df8565b600086815260059190910160205260409020546001600160a01b0316610988612df8565b6000878152600a919091016020908152604080832088845290915290205460ff1684612e7b565b949350505050565b6109bf612df8565b6001600160a01b0382166000908152600e91909101602052604090205460ff16156109fd576040516306d3830f60e21b815260040160405180910390fd5b600080610a2c610a0b612df8565b6001600160a01b0385166000908152600d9190910160205260409020612ef7565b905060005b8151811015610a9c576000828281518110610a4e57610a4e6148e7565b60200260200101519050610a6281866119ff565b506000610a6f8287612f02565b9050610a7b82826130e8565b610a8590866148fd565b945050508080610a949061491d565b915050610a31565b506000610aa7612de0565b6001600160a01b031663d5e190d06040518163ffffffff1660e01b8152600401600060405180830381865afa158015610ae4573d6000803e3d6000fd5b505050506040513d6000823e601f3d908101601f19168201604052610b0c919081019061495a565b905060005b8151811015610c0e576000610bc9610b27612de0565b6001600160a01b0316637d044b4388868681518110610b4857610b486148e7565b60200260200101516040518363ffffffff1660e01b8152600401610b819291906001600160a01b03929092168252602082015260400190565b6020604051808303816000875af1158015610ba0573d6000803e3d6000fd5b505050506040513d601f19601f82011682018060405250810190610bc491906148ce565b612a4e565b9050610bee838381518110610be057610be06148e7565b6020026020010151826130e8565b610bf890866148fd565b9450508080610c069061491d565b915050610b11565b506000831315610df6576000815167ffffffffffffffff811115610c3457610c346145f9565b604051908082528060200260200182016040528015610c5d578160200160208202803683370190505b5090506000805b8351811015610d01576000848281518110610c8157610c816148e7565b60200260200101519050610c93612df8565b600301600082815260200190815260200160002054848381518110610cba57610cba6148e7565b602002602001018181525050838281518110610cd857610cd86148e7565b602002602001015183610ceb919061487f565b9250508080610cf99061491d565b915050610c64565b5060005b8351811015610dee576000848281518110610d2257610d226148e7565b602002602001015190506000610d6e82610d6986888781518110610d4857610d486148e7565b6020026020010151610d598d612d8e565b610d6391906149f0565b90613144565b6131b5565b9050610d78612de0565b6001600160a01b0316634ba0c9b58a84846040518463ffffffff1660e01b8152600401610da793929190614848565b600060405180830381600087803b158015610dc157600080fd5b505af1158015610dd5573d6000803e3d6000fd5b5050505050508080610de69061491d565b915050610d05565b505050610e18565b6000831215610e1857604051633a23d82560e01b815260040160405180910390fd5b6001610e22612df8565b6001600160a01b0386166000818152600e929092016020526040909120805460ff1916921515929092179091557f2bcd2d5215f77c21e5e2a4727a0ca3161029102d16ad1b146ce78a873213e0db610e7985612d8e565b60405190815260200160405180910390a250505050565b610e98612a29565b6001600160a01b0316631eae0893846040518263ffffffff1660e01b8152600401610ec591815260200190565b602060405180830381865afa158015610ee2573d6000803e3d6000fd5b505050506040513d601f19601f82011682018060405250810190610f0691906147fb565b80610f1c5750610f198262093a8061487f565b42105b15610f3a57604051637a90677f60e11b815260040160405180910390fd5b610f4483826119ff565b506000610f548484846000611faf565b60600151905060008113610f7b576040516357c0027160e01b815260040160405180910390fd5b6000610f8c61051e86868686612ac1565b9050610f96612de0565b6001600160a01b0316634ba0c9b58487846040518463ffffffff1660e01b8152600401610fc593929190614848565b600060405180830381600087803b158015610fdf57600080fd5b505af1158015610ff3573d6000803e3d6000fd5b505050508385846001600160a01b03167f051f458a7b860c75e07e1f4b3e2241de36bc45118bf15e38bbb31d154bd7260e8460405161103491815260200190565b60405180910390a45050505050565b600061104d612df8565b6001600160a01b0383166000908152600d919091016020526040812091506110748261321d565b905060005b818110156110a75761109461108e8483613227565b856119ff565b508061109f8161491d565b915050611079565b50505050565b6110fc6040518061012001604052806000815260200160008152602001600081526020016000815260200160008152602001600081526020016000815260200160008152602001600081525090565b6000611106612df8565b6001600160a01b0386166000908152600d9190910160205260409020905061112c6143fa565b611137828635613233565b1580156111b25750611147612a29565b604051631eae089360e01b8152863560048201526001600160a01b039190911690631eae089390602401602060405180830381865afa15801561118e573d6000803e3d6000fd5b505050506040513d601f19601f820116820180604052508101906111b291906147fb565b1561128c5760006111c28361321d565b90506111cf81600161487f565b67ffffffffffffffff8111156111e7576111e76145f9565b604051908082528060200260200182016040528015611210578160200160208202803683370190505b50608083015260005b8181101561125e5761122b8482613227565b83608001518281518110611241576112416148e7565b6020908102919091010152806112568161491d565b915050611219565b5085600001358260800151828151811061127a5761127a6148e7565b6020026020010181815250505061129b565b61129582612ef7565b60808201525b6001600160a01b03861681526112b636869003860186614a07565b6020820152604081018490526112ca612de0565b6001600160a01b0316633f90a08e82608001516040518263ffffffff1660e01b81526004016112f99190614785565b600060405180830381865afa158015611316573d6000803e3d6000fd5b505050506040513d6000823e601f3d908101601f1916820160405261133e9190810190614a23565b606082015260005b8160800151518110156117f9576113966040518060e00160405280600080191681526020016000815260200160008152602001600081526020016000815260200160008152602001600081525090565b60208301515160808401518051849081106113b3576113b36148e7565b6020026020010151036113c7575060208201515b60408051600780825261010082019092526000916020820160e080368337019050509050600061141e85608001518581518110611406576114066148e7565b60200260200101518660000151858860400151611803565b9050806000015182600081518110611438576114386148e7565b60200260200101818152505080602001518260018151811061145c5761145c6148e7565b602002602001018181525050806040015182600281518110611480576114806148e7565b6020026020010181815250508060600151826003815181106114a4576114a46148e7565b6020026020010181815250508060800151826004815181106114c8576114c86148e7565b6020026020010181815250508060a00151826005815181106114ec576114ec6148e7565b6020026020010181815250508060c0015182600681518110611510576115106148e7565b6020026020010181815250508460200151600001518560800151858151811061153b5761153b6148e7565b6020026020010151036115ce578160068151811061155b5761155b6148e7565b602002602001015187600001818151611574919061487f565b90525081518290600390811061158c5761158c6148e7565b6020026020010151826000815181106115a7576115a76148e7565b60200260200101516115b9919061487f565b876020018181516115ca919061487f565b9052505b60006115d8612a29565b6001600160a01b0316638a2eae92876080015187815181106115fc576115fc6148e7565b6020026020010151856040518363ffffffff1660e01b8152600401611622929190614ab0565b600060405180830381865afa15801561163f573d6000803e3d6000fd5b505050506040513d6000823e601f3d908101601f19168201604052611667919081019061495a565b90508060018151811061167c5761167c6148e7565b602002602001015188606001818151611695919061487f565b9052508051819060029081106116ad576116ad6148e7565b6020026020010151886080018181516116c6919061487f565b9052508051819060049081106116de576116de6148e7565b60200260200101518860c0018181516116f7919061487f565b90525080518190600590811061170f5761170f6148e7565b60200260200101518860e001818151611728919061487f565b9052506060860151805186908110611742576117426148e7565b6020026020010151156117e25780600081518110611762576117626148e7565b60200260200101518860400181815161177b919061487f565b905250805181906003908110611793576117936148e7565b60200260200101518860a0018181516117ac919061487f565b9052508051819060069081106117c4576117c46148e7565b602002602001015188610100018181516117de919061487f565b9052505b5050505080806117f19061491d565b915050611346565b5050509392505050565b6118436040518060e00160405280600081526020016000815260200160008152602001600081526020016000815260200160008152602001600081525090565b600061186c86600087611854612df8565b60008b81526007919091016020526040902054611faf565b905083602001518160800151611882919061487f565b825260408401516020820151611898919061487f565b602083015260a080850151908201516118b1919061487f565b60608084019190915284015160c08201516118cc919061487f565b60808084019190915284015160408201516118e7919061487f565b60a083015260c084015160e0820151611900919061487f565b60c08301526020820151156119f657600061192c6127108585608001518660a00151610d59919061487f565b905080836020015111156119e9576000611944612a29565b6001600160a01b0316639abdb38a896040518263ffffffff1660e01b815260040161197191815260200190565b602060405180830381865afa15801561198e573d6000803e3d6000fd5b505050506040513d601f19601f820116820180604052508101906119b291906148ce565b90506119d46127108386602001516119ca91906148bb565b610d6390846149f0565b6119de908361487f565b6040850152506119f4565b602083015160408401525b505b50949350505050565b60008080611a0d858561281e565b90506000611a19612df8565b600087815260059190910160205260408120546001600160a01b031691505b8251811015611c8c576000611a4b612df8565b600a0160008981526020019081526020016000206000858481518110611a7357611a736148e7565b60209081029190910181015182528101919091526040908101600090812054915163527f921d60e11b815260ff909216600483018190529250906001600160a01b0385169063a4ff243a90602401602060405180830381865afa158015611ade573d6000803e3d6000fd5b505050506040513d601f19601f82011682018060405250810190611b0291906148ce565b90506000611b118a838b61324b565b9050611b1d818961487f565b97506000611b2d8b85858d611dc5565b90508015611b3a57600197505b80158015611b46575081155b15611bb757611bb5878681518110611b6057611b606148e7565b6020026020010151611b70612df8565b600b0160008e815260200190815260200160002060008d6001600160a01b03166001600160a01b0316815260200190815260200160002061361890919063ffffffff16565b505b611bbf613624565b6001600160a01b0316637dec489e8c8c60018b51611bdd91906148bb565b8914611c0c578a611bef8a600161487f565b81518110611bff57611bff6148e7565b6020026020010151611c0f565b60005b6040516001600160e01b031960e086901b16815260048101939093526001600160a01b0390911660248301526044820152606401600060405180830381600087803b158015611c5d57600080fd5b505af1158015611c71573d6000803e3d6000fd5b50505050505050508080611c849061491d565b915050611a38565b5083600003611dbc57611c9d612de0565b60405163392d430160e01b81526001600160a01b03878116600483015260248201899052919091169063392d430190604401600060405180830381600087803b158015611ce957600080fd5b505af1158015611cfd573d6000803e3d6000fd5b5050505082158015611d875750611d12613624565b6040516314c3a4c760e21b8152600481018890526001600160a01b038781166024830152919091169063530e931c90604401602060405180830381865afa158015611d61573d6000803e3d6000fd5b505050506040513d601f19601f82011682018060405250810190611d8591906148ce565b155b15611dbc57611dba86611d98612df8565b6001600160a01b0388166000908152600d919091016020526040902090613618565b505b50505092915050565b600080611dd0612df8565b60008781526006919091016020526040808220549051630ee7ca3d60e21b815260ff881660048201526001600160a01b0386811660248301526044820188905290911692508190819081908590633b9f28f4906064016080604051808303816000875af1158015611e45573d6000803e3d6000fd5b505050506040513d601f19601f82011682018060405250810190611e699190614afe565b935093509350935083600014611fa157808015611ea95750611e89612df8565b60008b815260099190910160209081526040808320858452909152902054155b15611f2657611eb6613624565b60405163312c474560e01b8152600481018c90526001600160a01b03898116602483015260448201859052919091169063312c474590606401600060405180830381600087803b158015611f0957600080fd5b505af1158015611f1d573d6000803e3d6000fd5b50505050611fa1565b611f2e613624565b6040516360e3f72960e11b8152600481018c90526001600160a01b0389811660248301526044820185905260648201879052919091169063c1c7ee5290608401600060405180830381600087803b158015611f8857600080fd5b505af1158015611f9c573d6000803e3d6000fd5b505050505b509098975050505050505050565b611ffe6040518061012001604052806000815260200160008152602001600081526020016000815260200160008152602001600081526020016000815260200160008152602001600081525090565b604080516101608101825260008082526020820181905291810182905260608082018390526080820183905260a082015260c0810182905260e081018290526101008101829052610120810182905261014081019190915261205e612df8565b600087815260059190910160205260409020546001600160a01b031660e0820152612087612df8565b600087815260069190910160205260409020546001600160a01b03166101008201526120b1612df8565b60040160008781526020019081526020016000206000815481106120d7576120d76148e7565b60009182526020808320908204015460ff601f9092166101000a90041660608301526101208201849052859003612124576001808252606082015160ff1660408301526020820152612168565b60008152612130612df8565b6000878152600a91909101602090815260408083208884528252918290205460ff908116928401839052606084015116909114908201525b612170613624565b6040516314c3a4c760e21b8152600481018890526001600160a01b038681166024830152919091169063530e931c90604401602060405180830381865afa1580156121bf573d6000803e3d6000fd5b505050506040513d601f19601f820116820180604052508101906121e391906148ce565b6101008301526121f3868561281e565b60a082015260005b8160a00151518110156125e6576000612212612df8565b600a01600089815260200190815260200160002060008460a00151848151811061223e5761223e6148e7565b6020026020010151815260200190815260200160002060009054906101000a900460ff16905082602001518061227d5750826040015160ff168160ff16145b156125d35760e083015160405163527f921d60e11b815260ff831660048201526000916001600160a01b03169063a4ff243a90602401602060405180830381865afa1580156122d0573d6000803e3d6000fd5b505050506040513d601f19601f820116820180604052508101906122f491906148ce565b606085015190915060ff83811691161460006123148b8a88878787613643565b905060006123268c8b89888888613902565b905060006123388d8c8a898989613bd4565b805183518551929350909161234d9190614b32565b61235791906148fd565b896101000181815161236991906148fd565b905250602080820151838201519185015160009261238691614b32565b61239091906148fd565b905060008260400151846040015186604001516123ad9190614b32565b6123b791906148fd565b9050818b6000018181516123cb91906148fd565b90525085156123dc5760c08a018290525b6000821315612407576123ee82612d8e565b8b6020018181516123ff919061487f565b905250612431565b60008212156124315761241c61051e8361482c565b8b60400181815161242d919061487f565b9052505b895161244d57808b60600181815161244991906148fd565b9052505b83606001518b60c001818151612463919061487f565b905250606083015160808c01805161247c90839061487f565b905250608084015160e08c01805161249590839061487f565b905250608083015160a08c0180516124ae90839061487f565b90525050506101008901516000131594506125d39350505050576124d0613624565b6001600160a01b031663aee1311e898661010001518660a0015186815181106124fb576124fb6148e7565b602002602001015160018860a001515161251591906148bb565b87146125485760a088015161252b88600161487f565b8151811061253b5761253b6148e7565b602002602001015161254b565b60005b6040516001600160e01b031960e087901b1681526004810194909452602484019290925260448301526064820152608401602060405180830381865afa158015612599573d6000803e3d6000fd5b505050506040513d601f19601f820116820180604052508101906125bd91906148ce565b84610100018181516125cf91906148fd565b9052505b50806125de8161491d565b9150506121fb565b50806020015180156125fc575061010082015115155b156119f657600061260b613624565b610100840151604051637636e94160e01b8152600481018a90526000602482015260448101919091526001600160a01b039190911690637636e94190606401602060405180830381865afa158015612667573d6000803e3d6000fd5b505050506040513d601f19601f8201168201806040525081019061268b91906148ce565b9050600061269883613e07565b905060006126a584613e9a565b905060006126c184838510156126bb5783613f4e565b84613f4e565b905080866000018181516126d591906148fd565b90525060008113156127675760008560c0015112156127455760008560c001516126fe9061482c565b821361270a5781612718565b8560c001516127189061482c565b905061272381612d8e565b8760400181815161273491906148bb565b9052506127418183614b32565b9150505b61274e81612d8e565b8660200181815161275f919061487f565b9052506127f5565b60008112156127f55760008560c0015113156127d45760008560c001518261278e9061482c565b136127a15761279c8261482c565b6127a7565b8560c001515b90506127b281612d8e565b876020018181516127c391906148bb565b9052506127d081836148fd565b9150505b6127e061051e8261482c565b866040018181516127f1919061487f565b9052505b845161281157838660600181815161280d91906148fd565b9052505b5050505050949350505050565b606061285661282b612df8565b6000858152600b91909101602090815260408083206001600160a01b03871684529091529020613f7a565b8051909150156128df57604051634f64581360e11b815273__$cd9358e65801d13c280787f44717df25ed$__90639ec8b02690612897908490600401614785565b600060405180830381865af41580156128b4573d6000803e3d6000fd5b505050506040513d6000823e601f3d908101601f191682016040526128dc919081019061495a565b90505b92915050565b61291d826128f1612df8565b6000868152600b91909101602090815260408083206001600160a01b0387168452909152902090613233565b612964576129598261292d612df8565b6000868152600b91909101602090815260408083206001600160a01b0387168452909152902090613f8e565b5061296483826129c5565b505050565b60008160000361297b575060006128df565b42831161298a576125806128dc565b6301e1338061299942856148bb565b6129a5846125806148bb565b6129af91906149f0565b6129b99190614b68565b6128dc906125806148bb565b6129f3826129d1612df8565b6001600160a01b0384166000908152600d919091016020526040902090613233565b612a255761296482612a03612df8565b6001600160a01b0384166000908152600d919091016020526040902090613f8e565b5050565b6000612a497121bab93932b731bca1b7b73a3937b63632b960711b613f9a565b905090565b60006001600160ff1b03821115612abd5760405162461bcd60e51b815260206004820152602860248201527f53616665436173743a2076616c756520646f65736e27742066697420696e2061604482015267371034b73a191a9b60c11b60648201526084015b60405180910390fd5b5090565b6000806000612ace612df8565b600088815260069190910160205260409020546001600160a01b031663c7e035bc612af7612df8565b60008a8152600a91909101602090815260408083208b84529091529081902054905160e083901b6001600160e01b031916815260ff90911660048201526001600160a01b03881660248201526044810187905260640160408051808303816000875af1158015612b6b573d6000803e3d6000fd5b505050506040513d601f19601f82011682018060405250810190612b8f9190614b7c565b90935091506000612ba08486614b32565b90506000612bac612df8565b60040160008a8152602001908152602001600020600081548110612bd257612bd26148e7565b60009182526020918290209181049091015460ff601f9092166101000a900416612bfa612df8565b60008b8152600a91909101602090815260408083208c845290915290205460ff16149050808015612c2a57508115155b15612ccd576000612c39613624565b604051636aea0c5960e01b8152600481018c9052602481018b90526001600160a01b038a81166044830152606482018690529190911690636aea0c599060840160408051808303816000875af1158015612c97573d6000803e3d6000fd5b505050506040513d601f19601f82011682018060405250810190612cbb9190614b7c565b94509050612cc981876148fd565b9550505b83158015612cd9575082155b15612d8257612d1688612cea612df8565b60008c8152600b91909101602090815260408083206001600160a01b038d168452909152902090613618565b50612d4d612d22612df8565b60008b8152600b91909101602090815260408083206001600160a01b038c168452909152902061321d565b600003612d825761281189612d60612df8565b6001600160a01b038a166000908152600d919091016020526040902090613618565b50505050949350505050565b600080821215612abd5760405162461bcd60e51b815260206004820181905260248201527f53616665436173743a2076616c7565206d75737420626520706f7369746976656044820152606401612ab4565b6000612a4969151bdad95b95985d5b1d60b21b613f9a565b6000806128df60017f8041b8421ebd495cc61f38c788c9eb100daccf9bd36aa0bb920b7a15b2e049656148bb565b6000612a496a14995cd95c9d99519d5b9960aa1b613f9a565b6000808215612e4e5782612e52565b6127105b90506109af612e6082612a4e565b612e6b612710612a4e565b612e759087614ba0565b90613ffb565b604051632bfa7c1360e01b815260ff8316600482015260009081906001600160a01b03861690632bfa7c1390602401602060405180830381865afa158015612ec7573d6000803e3d6000fd5b505050506040513d601f19601f82011682018060405250810190612eeb91906148ce565b905061094e8382613f4e565b60606128df82614098565b6000612f12836000846000611faf565b5190506000612f4d612f22612df8565b6000868152600b91909101602090815260408083206001600160a01b03881684529091529020613f7a565b905060005b815181101561304557612f63612df8565b600086815260069190910160205260409020546001600160a01b031663d3bcc4a8612f8c612df8565b600a0160008881526020019081526020016000206000858581518110612fb457612fb46148e7565b602090810291909101810151825281019190915260409081016000205490516001600160e01b031960e084901b16815260ff90911660048201526001600160a01b0387166024820152604401600060405180830381600087803b15801561301a57600080fd5b505af115801561302e573d6000803e3d6000fd5b50505050808061303d9061491d565b915050612f52565b5061304e613624565b6040516355aef57960e11b8152600481018690526001600160a01b038581166024830152919091169063ab5deaf290604401600060405180830381600087803b15801561309a57600080fd5b505af11580156130ae573d6000803e3d6000fd5b505050506130e0846130be612df8565b6001600160a01b0386166000908152600d919091016020526040902090613618565b505092915050565b6000806130f3612df8565b600085815260029190910160209081526040918290208251808401909352805483526001015460ff169082018190529091506109af9061313890610bc490600a614cb4565b8251612e759086614ba0565b600080821161315257600080fd5b600561315e8385614b68565b61316990600a6149f0565b8361317586600a6149f0565b61317f9190614b68565b61318991906148bb565b10156131a0576131998284614b68565b90506128df565b6131aa8284614b68565b61319990600161487f565b6000806131c0612df8565b600085815260029190910160209081526040918290208251808401909352805480845260019091015460ff16918301919091529091506109af9061320390612d8e565b602083015161321390600a614cb4565b610d6390866149f0565b60006128df825490565b60006128dc83836140f4565b600081815260018301602052604081205415156128dc565b600080613256612df8565b6000868152600a919091016020908152604080832087845290915281205460ff169150808080808080613287612df8565b60008d8152600591909101602052604090819020549051630f506ad360e41b815260ff8a1660048201526001600160a01b038c811660248301529091169063f506ad309060440160e0604051808303816000875af11580156132ed573d6000803e3d6000fd5b505050506040513d601f19601f820116820180604052508101906133119190614cc3565b96509650965096509650965096508183111561339e5761332f612de0565b6001600160a01b031663fb7bd3b48b8e61334986886148bb565b6040518463ffffffff1660e01b815260040161336793929190614848565b600060405180830381600087803b15801561338157600080fd5b505af1158015613395573d6000803e3d6000fd5b50505050613419565b81831015613419576133ae612de0565b6001600160a01b0316634ba0c9b58b8e6133c887876148bb565b6040518463ffffffff1660e01b81526004016133e693929190614848565b600060405180830381600087803b15801561340057600080fd5b505af1158015613414573d6000803e3d6000fd5b505050505b84156134e957613427612df8565b60008d815260069190910160205260409081902054905163311aa66f60e11b81526001600160a01b03909116906362354cde9061346e908b908e908a908790600401614892565b600060405180830381600087803b15801561348857600080fd5b505af115801561349c573d6000803e3d6000fd5b50505050808c8b6001600160a01b03167fba00994778888e87ce0908fd360c4b0417bfe7e274cce4cb72ed8a60b38b3e386000878a6040516134e093929190614d17565b60405180910390a45b83156135b9576134f7612df8565b60008d8152600691909101602052604090819020549051632fa7f48760e21b81526001600160a01b039091169063be9fd21c9061353e908b908e9089908790600401614892565b600060405180830381600087803b15801561355857600080fd5b505af115801561356c573d6000803e3d6000fd5b50505050808c8b6001600160a01b03167fba00994778888e87ce0908fd360c4b0417bfe7e274cce4cb72ed8a60b38b3e38600186896040516135b093929190614d17565b60405180910390a45b6135c3828461487f565b6135cb612df8565b60008e815260099190910160209081526040808320858452909152812080549091906135f89084906148bb565b909155506136089050868861487f565b9c9b505050505050505050505050565b60006128dc838361411e565b6000612a497011d95b995cda5cd5985b1d5955985d5b1d607a1b613f9a565b61366760405180606001604052806000815260200160008152602001600081525090565b610100850151604051630919149560e21b815260ff861660048201526001600160a01b03888116602483015260009283929116906324645254906044016040805180830381865afa1580156136c0573d6000803e3d6000fd5b505050506040513d601f19601f820116820180604052508101906136e49190614b7c565b91509150816000146138f65780851461378b5786602001511561378657613709613624565b604051630c30971960e11b8152600481018b905260248101839052604481018490526001600160a01b0391909116906318612e32906064015b602060405180830381865afa15801561375f573d6000803e3d6000fd5b505050506040513d601f19601f8201168201806040525081019061378391906148ce565b83525b6138f6565b8085036138f6578651801561379e575083155b156138095760006137ae88613e07565b90506137c18a8960e00151848685614211565b604086018190526020860191909152600013156138035760006137e389613e9a565b905080821015613801576137fb856040015182613f4e565b60208601525b505b506138f6565b86518061381857508660200151155b806138205750835b156138f65760e08701516040808901519051632bfa7c1360e01b815260ff90911660048201526000916001600160a01b031690632bfa7c1390602401602060405180830381865afa158015613879573d6000803e3d6000fd5b505050506040513d601f19601f8201168201806040525081019061389d91906148ce565b60408501849052905060008312156138e45760006138c0878a6101200151612969565b90506138d9848284106138d35783613f4e565b82613f4e565b6020860152506138f4565b6138ee8382613f4e565b60208501525b505b50509695505050505050565b6139346040518060a0016040528060008152602001600081526020016000815260200160008152602001600081525090565b600080600061394886896101200151612969565b60e089015160405163098c15f960e31b815260ff8a1660048201526001600160a01b038c8116602483015260448201849052929350911690634c60afc890606401608060405180830381865afa1580156139a6573d6000803e3d6000fd5b505050506040513d601f19601f820116820180604052508101906139ca9190614d4d565b60808801929092526060870192909252909350915082156138f457818614613a8c57876020015115613a87576139fe613624565b6001600160a01b03166318612e328b84613a1787612a4e565b6040516001600160e01b031960e086901b168152600481019390935260248301919091526044820152606401602060405180830381865afa158015613a60573d6000803e3d6000fd5b505050506040513d601f19601f82011682018060405250810190613a8491906148ce565b84525b6138f4565b8186036138f45787518015613a9f575084155b15613b04576000613aaf89613e07565b9050613aca8b8a60e0015185613ac488612a4e565b85614211565b604087015260208601526000613adf8a613e9a565b905080821015613afd57613af7866040015182613f4e565b60208701525b50506138f4565b875180613b1357508760200151155b80613b1b5750845b156138f45760e08801516040808a01519051632bfa7c1360e01b815260ff90911660048201526000916001600160a01b031690632bfa7c1390602401602060405180830381865afa158015613b74573d6000803e3d6000fd5b505050506040513d601f19601f82011682018060405250810190613b9891906148ce565b9050613ba384612a4e565b60408601819052613bc190838310613bbb5782613f4e565b83613f4e565b6020860152505050509695505050505050565b613c066040518060a0016040528060008152602001600081526020016000815260200160008152602001600081525090565b60e08501516040516304e9114760e21b815260ff861660048201526001600160a01b03888116602483015260009283929116906313a4451c90604401608060405180830381865afa158015613c5f573d6000803e3d6000fd5b505050506040513d601f19601f82011682018060405250810190613c839190614d4d565b60808701929092526060860192909252909250905081156138f657808514613d015786602001511561378657613cb7613624565b6001600160a01b03166318612e328a83613cd086612a4e565b6040516001600160e01b031960e086901b168152600481019390935260248301919091526044820152606401613742565b8085036138f65786518015613d14575083155b15613db757613da8898860e0015183613d2c86612a4e565b60e08c015160608d0151604051632bfa7c1360e01b815260ff90911660048201526001600160a01b0390911690632bfa7c1390602401602060405180830381865afa158015613d7f573d6000803e3d6000fd5b505050506040513d601f19601f82011682018060405250810190613da391906148ce565b614211565b604085015260208401526138f6565b865180613dc657508660200151155b80613dce5750835b156138f657613ddc82612a4e565b604080850182905260e089015190890151613df692612e7b565b602084015250509695505050505050565b60008160800151600003613e925760e08201516060830151604051632bfa7c1360e01b815260ff90911660048201526001600160a01b0390911690632bfa7c1390602401602060405180830381865afa158015613e68573d6000803e3d6000fd5b505050506040513d601f19601f82011682018060405250810190613e8c91906148ce565b60808301525b506080015190565b60008161014001516000148015613eb5575061012082015115155b15613f455760e0820151606083015160405163527f921d60e11b815260ff9091166004820152613f3e916001600160a01b03169063a4ff243a90602401602060405180830381865afa158015613f0f573d6000803e3d6000fd5b505050506040513d601f19601f82011682018060405250810190613f3391906148ce565b836101200151612969565b6101408301525b50610140015190565b6000808215613f5d5782613f61565b6127105b90506109af613f71612710612a4e565b612e6b83612a4e565b60606000613f8783614098565b9392505050565b60006128dc838361437d565b600080613fa56143cc565b600084815260019190910160205260409020546001600160a01b03169050806128df5760408051602081018590520160408051601f19818403018152908290526346e2ec9360e01b8252612ab491600401614d83565b60008160000361400a57600080fd5b60006140168385614dd1565b61402190600a614ba0565b8361402d86600a614ba0565b6140379190614dd1565b6140419190614b32565b905060058112614068576140558385614dd1565b6140609060016148fd565b9150506128df565b600419811361408757600161407d8486614dd1565b6140609190614b32565b6140608385614dd1565b5092915050565b6060816000018054806020026020016040519081016040528092919081815260200182805480156140e857602002820191906000526020600020905b8154815260200190600101908083116140d4575b50505050509050919050565b600082600001828154811061410b5761410b6148e7565b9060005260206000200154905092915050565b600081815260018301602052604081205480156142075760006141426001836148bb565b8554909150600090614156906001906148bb565b90508181146141bb576000866000018281548110614176576141766148e7565b9060005260206000200154905080876000018481548110614199576141996148e7565b6000918252602080832090910192909255918252600188019052604090208390555b85548690806141cc576141cc614dff565b6001900381819060005260206000200160009055905585600101600086815260200190815260200160002060009055600193505050506128df565b60009150506128df565b60008061421c613624565b60405163474611f160e01b815260048101899052602481018790526001600160a01b03919091169063474611f19060440160a060405180830381865afa15801561426a573d6000803e3d6000fd5b505050506040513d601f19601f8201168201806040525081019061428e9190614e15565b516000036142dc576142c9866142a2612df8565b60008a8152600a91909101602090815260408083208a845290915290205460ff1686612e7b565b91506142d58284612e3f565b9050614373565b6142e4613624565b604051631b736f6760e31b8152600481018990526024810187905260006044820152606481018690526001600160a01b03919091169063db9b7b3890608401602060405180830381865afa158015614340573d6000803e3d6000fd5b505050506040513d601f19601f8201168201806040525081019061436491906148ce565b90506143708184613f4e565b91505b9550959350505050565b60008181526001830160205260408120546143c4575081546001818101845560008481526020808220909301849055845484825282860190935260409020919091556128df565b5060006128df565b6000806128df60017f4abde63c3e81aefa5764b017968bc473e83e093d7e1a10247d19e0a3e41240186148bb565b6040518060a0016040528060006001600160a01b031681526020016144586040518060e00160405280600080191681526020016000815260200160008152602001600081526020016000815260200160008152602001600081525090565b81526020016000815260200160608152602001606081525090565b80356001600160a01b038116811461448a57600080fd5b919050565b6000806000606084860312156144a457600080fd5b83359250602084013591506144bb60408501614473565b90509250925092565b600080600080608085870312156144da57600080fd5b84359350602085013592506144f160408601614473565b9396929550929360600135925050565b600080600080600080600060e0888a03121561451c57600080fd5b873596506020880135955061453360408901614473565b945060608801356002811061454757600080fd5b9699959850939660808101359560a0820135955060c0909101359350915050565b60008060006060848603121561457d57600080fd5b505081359360208301359350604090920135919050565b6000602082840312156145a657600080fd5b6128dc82614473565b60008060008385036101208112156145c657600080fd5b6145cf85614473565b935060e0601f19820112156145e357600080fd5b5060208401915061010084013590509250925092565b634e487b7160e01b600052604160045260246000fd5b604051601f8201601f1916810167ffffffffffffffff81118282101715614638576146386145f9565b604052919050565b600060e0828403121561465257600080fd5b60405160e0810181811067ffffffffffffffff82111715614675576146756145f9565b8060405250809150823581526020830135602082015260408301356040820152606083013560608201526080830135608082015260a083013560a082015260c083013560c08201525092915050565b60008060008061014085870312156146db57600080fd5b843593506146eb60208601614473565b92506146fa8660408701614640565b939692955092936101200135925050565b6000806040838503121561471e57600080fd5b8235915061472e60208401614473565b90509250929050565b6000806000806080858703121561474d57600080fd5b84359350602085013560ff8116811461476557600080fd5b92506040850135915061477a60608601614473565b905092959194509250565b6020808252825182820181905260009190848201906040850190845b818110156147bd578351835292840192918401916001016147a1565b50909695505050505050565b600080604083850312156147dc57600080fd5b50508035926020909101359150565b8051801515811461448a57600080fd5b60006020828403121561480d57600080fd5b6128dc826147eb565b634e487b7160e01b600052601160045260246000fd5b6000600160ff1b820161484157614841614816565b5060000390565b6001600160a01b039390931683526020830191909152604082015260600190565b634e487b7160e01b600052602160045260246000fd5b808201808211156128df576128df614816565b60ff9490941684526001600160a01b039290921660208401526040830152606082015260800190565b818103818111156128df576128df614816565b6000602082840312156148e057600080fd5b5051919050565b634e487b7160e01b600052603260045260246000fd5b80820182811260008312801582168215821617156130e0576130e0614816565b60006001820161492f5761492f614816565b5060010190565b600067ffffffffffffffff821115614950576149506145f9565b5060051b60200190565b6000602080838503121561496d57600080fd5b825167ffffffffffffffff81111561498457600080fd5b8301601f8101851361499557600080fd5b80516149a86149a382614936565b61460f565b81815260059190911b820183019083810190878311156149c757600080fd5b928401925b828410156149e5578351825292840192908401906149cc565b979650505050505050565b80820281158282048414176128df576128df614816565b600060e08284031215614a1957600080fd5b6128dc8383614640565b60006020808385031215614a3657600080fd5b825167ffffffffffffffff811115614a4d57600080fd5b8301601f81018513614a5e57600080fd5b8051614a6c6149a382614936565b81815260059190911b82018301908381019087831115614a8b57600080fd5b928401925b828410156149e557614aa1846147eb565b82529284019290840190614a90565b6000604082018483526020604081850152818551808452606086019150828701935060005b81811015614af157845183529383019391830191600101614ad5565b5090979650505050505050565b60008060008060808587031215614b1457600080fd5b84519350602085015192506040850151915061477a606086016147eb565b818103600083128015838313168383128216171561409157614091614816565b634e487b7160e01b600052601260045260246000fd5b600082614b7757614b77614b52565b500490565b60008060408385031215614b8f57600080fd5b505080516020909101519092909150565b80820260008212600160ff1b84141615614bbc57614bbc614816565b81810583148215176128df576128df614816565b600181815b80851115614c0b578160001904821115614bf157614bf1614816565b80851615614bfe57918102915b93841c9390800290614bd5565b509250929050565b600082614c22575060016128df565b81614c2f575060006128df565b8160018114614c455760028114614c4f57614c6b565b60019150506128df565b60ff841115614c6057614c60614816565b50506001821b6128df565b5060208310610133831016604e8410600b8410161715614c8e575081810a6128df565b614c988383614bd0565b8060001904821115614cac57614cac614816565b029392505050565b60006128dc60ff841683614c13565b600080600080600080600060e0888a031215614cde57600080fd5b5050855160208701516040880151606089015160808a015160a08b015160c0909b0151949c939b50919990985090965094509092509050565b6060810160028510614d3957634e487b7160e01b600052602160045260246000fd5b938152602081019290925260409091015290565b60008060008060808587031215614d6357600080fd5b505082516020840151604085015160609095015191969095509092509050565b600060208083528351808285015260005b81811015614db057858101830151858201604001528201614d94565b506000604082860101526040601f19601f8301168501019250505092915050565b600082614de057614de0614b52565b600160ff1b821460001984141615614dfa57614dfa614816565b500590565b634e487b7160e01b600052603160045260246000fd5b600060a08284031215614e2757600080fd5b60405160a0810181811067ffffffffffffffff82111715614e4a57614e4a6145f9565b80604052508251815260208301516020820152604083015160408201526060830151606082015260808301516080820152809150509291505056fea2646970667358221220bbdc762b37b1989a9490a6b76a2523cc9b078ea93ba4cf6a22d48622072d253364736f6c63430008130033",
  "linkReferences": {
    "contracts/protocol/libraries/QuickSort.sol": {
      "QuickSort": [
        {
          "length": 20,
          "start": 10409
        }
      ]
    }
  },
  "deployedLinkReferences": {
    "contracts/protocol/libraries/QuickSort.sol": {
      "QuickSort": [
        {
          "length": 20,
          "start": 10351
        }
      ]
    }
  }
}