{
  "_format": "hh-sol-artifact-1",
  "contractName": "FundManagementLogic",
  "sourceName": "contracts/protocol/libraries/logics/FundManagementLogic.sol",
  "abi": [
    {
      "inputs": [],
      "name": "AlreadyRedeemed",
      "type": "error"
    },
    {
      "inputs": [],
      "name": "InsufficientCollateral",
      "type": "error"
    },
    {
      "inputs": [
        {
          "internalType": "string",
          "name": "name",
          "type": "string"
        }
      ],
      "name": "MissingAddress",
      "type": "error"
    },
    {
      "inputs": [],
      "name": "NoRedemptionAmount",
      "type": "error"
    },
    {
      "inputs": [],
      "name": "NoRepaymentAmount",
      "type": "error"
    },
    {
      "inputs": [],
      "name": "NotRedemptionPeriod",
      "type": "error"
    },
    {
      "inputs": [],
      "name": "NotRepaymentPeriod",
      "type": "error"
    },
    {
      "anonymous": false,
      "inputs": [
        {
          "indexed": true,
          "internalType": "address",
          "name": "user",
          "type": "address"
        },
        {
          "indexed": false,
          "internalType": "uint256",
          "name": "amount",
          "type": "uint256"
        }
      ],
      "name": "EmergencySettlementExecuted",
      "type": "event"
    },
    {
      "anonymous": false,
      "inputs": [
        {
          "indexed": true,
          "internalType": "address",
          "name": "taker",
          "type": "address"
        },
        {
          "indexed": true,
          "internalType": "bytes32",
          "name": "ccy",
          "type": "bytes32"
        },
        {
          "indexed": false,
          "internalType": "enum ProtocolTypes.Side",
          "name": "side",
          "type": "uint8"
        },
        {
          "indexed": true,
          "internalType": "uint256",
          "name": "maturity",
          "type": "uint256"
        },
        {
          "indexed": false,
          "internalType": "uint256",
          "name": "amount",
          "type": "uint256"
        },
        {
          "indexed": false,
          "internalType": "uint256",
          "name": "amountInFV",
          "type": "uint256"
        },
        {
          "indexed": false,
          "internalType": "uint256",
          "name": "feeInFV",
          "type": "uint256"
        }
      ],
      "name": "OrderFilled",
      "type": "event"
    },
    {
      "anonymous": false,
      "inputs": [
        {
          "indexed": false,
          "internalType": "uint48",
          "name": "orderId",
          "type": "uint48"
        },
        {
          "indexed": true,
          "internalType": "address",
          "name": "maker",
          "type": "address"
        },
        {
          "indexed": true,
          "internalType": "bytes32",
          "name": "ccy",
          "type": "bytes32"
        },
        {
          "indexed": false,
          "internalType": "enum ProtocolTypes.Side",
          "name": "side",
          "type": "uint8"
        },
        {
          "indexed": false,
          "internalType": "uint256",
          "name": "maturity",
          "type": "uint256"
        },
        {
          "indexed": false,
          "internalType": "uint256",
          "name": "amount",
          "type": "uint256"
        },
        {
          "indexed": false,
          "internalType": "uint256",
          "name": "amountInFV",
          "type": "uint256"
        }
      ],
      "name": "OrderPartiallyFilled",
      "type": "event"
    },
    {
      "anonymous": false,
      "inputs": [
        {
          "indexed": true,
          "internalType": "address",
          "name": "taker",
          "type": "address"
        },
        {
          "indexed": true,
          "internalType": "bytes32",
          "name": "ccy",
          "type": "bytes32"
        },
        {
          "indexed": false,
          "internalType": "enum ProtocolTypes.Side",
          "name": "side",
          "type": "uint8"
        },
        {
          "indexed": true,
          "internalType": "uint256",
          "name": "maturity",
          "type": "uint256"
        },
        {
          "indexed": false,
          "internalType": "uint256",
          "name": "amount",
          "type": "uint256"
        },
        {
          "indexed": false,
          "internalType": "uint256",
          "name": "amountInFV",
          "type": "uint256"
        }
      ],
      "name": "OrdersFilledInAsync",
      "type": "event"
    },
    {
      "anonymous": false,
      "inputs": [
        {
          "indexed": true,
          "internalType": "address",
          "name": "user",
          "type": "address"
        },
        {
          "indexed": true,
          "internalType": "bytes32",
          "name": "ccy",
          "type": "bytes32"
        },
        {
          "indexed": true,
          "internalType": "uint256",
          "name": "maturity",
          "type": "uint256"
        },
        {
          "indexed": false,
          "internalType": "uint256",
          "name": "amount",
          "type": "uint256"
        }
      ],
      "name": "RedemptionExecuted",
      "type": "event"
    },
    {
      "anonymous": false,
      "inputs": [
        {
          "indexed": true,
          "internalType": "address",
          "name": "user",
          "type": "address"
        },
        {
          "indexed": true,
          "internalType": "bytes32",
          "name": "ccy",
          "type": "bytes32"
        },
        {
          "indexed": true,
          "internalType": "uint256",
          "name": "maturity",
          "type": "uint256"
        },
        {
          "indexed": false,
          "internalType": "uint256",
          "name": "amount",
          "type": "uint256"
        }
      ],
      "name": "RepaymentExecuted",
      "type": "event"
    },
    {
      "inputs": [],
      "name": "BASE_MIN_DEBT_UNIT_PRICE",
      "outputs": [
        {
          "internalType": "uint256",
          "name": "",
          "type": "uint256"
        }
      ],
      "stateMutability": "view",
      "type": "function"
    },
    {
      "inputs": [
        {
          "internalType": "bytes32",
          "name": "_ccy",
          "type": "bytes32"
        },
        {
          "internalType": "uint256",
          "name": "_maturity",
          "type": "uint256"
        },
        {
          "internalType": "int256",
          "name": "_presentValue",
          "type": "int256"
        }
      ],
      "name": "calculateFVFromPV",
      "outputs": [
        {
          "internalType": "int256",
          "name": "futureValue",
          "type": "int256"
        }
      ],
      "stateMutability": "view",
      "type": "function"
    },
    {
      "inputs": [
        {
          "internalType": "bytes32",
          "name": "_ccy",
          "type": "bytes32"
        },
        {
          "internalType": "address",
          "name": "_user",
          "type": "address"
        },
        {
          "components": [
            {
              "internalType": "bytes32",
              "name": "ccy",
              "type": "bytes32"
            },
            {
              "internalType": "uint256",
              "name": "workingLendOrdersAmount",
              "type": "uint256"
            },
            {
              "internalType": "uint256",
              "name": "claimableAmount",
              "type": "uint256"
            },
            {
              "internalType": "uint256",
              "name": "workingBorrowOrdersAmount",
              "type": "uint256"
            },
            {
              "internalType": "uint256",
              "name": "debtAmount",
              "type": "uint256"
            },
            {
              "internalType": "uint256",
              "name": "lentAmount",
              "type": "uint256"
            },
            {
              "internalType": "uint256",
              "name": "borrowedAmount",
              "type": "uint256"
            }
          ],
          "internalType": "struct ILendingMarketController.AdditionalFunds",
          "name": "_additionalFunds",
          "type": "tuple"
        },
        {
          "internalType": "uint256",
          "name": "_liquidationThresholdRate",
          "type": "uint256"
        }
      ],
      "name": "calculateFunds",
      "outputs": [
        {
          "components": [
            {
              "internalType": "uint256",
              "name": "workingLendOrdersAmount",
              "type": "uint256"
            },
            {
              "internalType": "uint256",
              "name": "claimableAmount",
              "type": "uint256"
            },
            {
              "internalType": "uint256",
              "name": "collateralAmount",
              "type": "uint256"
            },
            {
              "internalType": "uint256",
              "name": "lentAmount",
              "type": "uint256"
            },
            {
              "internalType": "uint256",
              "name": "workingBorrowOrdersAmount",
              "type": "uint256"
            },
            {
              "internalType": "uint256",
              "name": "debtAmount",
              "type": "uint256"
            },
            {
              "internalType": "uint256",
              "name": "borrowedAmount",
              "type": "uint256"
            }
          ],
          "internalType": "struct ILendingMarketController.CalculatedFunds",
          "name": "funds",
          "type": "tuple"
        }
      ],
      "stateMutability": "view",
      "type": "function"
    },
    {
      "inputs": [
        {
          "internalType": "bytes32",
          "name": "_ccy",
          "type": "bytes32"
        },
        {
          "internalType": "uint256",
          "name": "_maturity",
          "type": "uint256"
        },
        {
          "internalType": "int256",
          "name": "_futureValue",
          "type": "int256"
        }
      ],
      "name": "calculatePVFromFV",
      "outputs": [
        {
          "internalType": "int256",
          "name": "presentValue",
          "type": "int256"
        }
      ],
      "stateMutability": "view",
      "type": "function"
    },
    {
      "inputs": [
        {
          "internalType": "address",
          "name": "_user",
          "type": "address"
        },
        {
          "components": [
            {
              "internalType": "bytes32",
              "name": "ccy",
              "type": "bytes32"
            },
            {
              "internalType": "uint256",
              "name": "workingLendOrdersAmount",
              "type": "uint256"
            },
            {
              "internalType": "uint256",
              "name": "claimableAmount",
              "type": "uint256"
            },
            {
              "internalType": "uint256",
              "name": "workingBorrowOrdersAmount",
              "type": "uint256"
            },
            {
              "internalType": "uint256",
              "name": "debtAmount",
              "type": "uint256"
            },
            {
              "internalType": "uint256",
              "name": "lentAmount",
              "type": "uint256"
            },
            {
              "internalType": "uint256",
              "name": "borrowedAmount",
              "type": "uint256"
            }
          ],
          "internalType": "struct ILendingMarketController.AdditionalFunds",
          "name": "_additionalFunds",
          "type": "tuple"
        },
        {
          "internalType": "uint256",
          "name": "_liquidationThresholdRate",
          "type": "uint256"
        }
      ],
      "name": "calculateTotalFundsInBaseCurrency",
      "outputs": [
        {
          "components": [
            {
              "internalType": "uint256",
              "name": "plusDepositAmountInAdditionalFundsCcy",
              "type": "uint256"
            },
            {
              "internalType": "uint256",
              "name": "minusDepositAmountInAdditionalFundsCcy",
              "type": "uint256"
            },
            {
              "internalType": "uint256",
              "name": "workingLendOrdersAmount",
              "type": "uint256"
            },
            {
              "internalType": "uint256",
              "name": "claimableAmount",
              "type": "uint256"
            },
            {
              "internalType": "uint256",
              "name": "collateralAmount",
              "type": "uint256"
            },
            {
              "internalType": "uint256",
              "name": "lentAmount",
              "type": "uint256"
            },
            {
              "internalType": "uint256",
              "name": "workingBorrowOrdersAmount",
              "type": "uint256"
            },
            {
              "internalType": "uint256",
              "name": "debtAmount",
              "type": "uint256"
            },
            {
              "internalType": "uint256",
              "name": "borrowedAmount",
              "type": "uint256"
            }
          ],
          "internalType": "struct ILendingMarketController.CalculatedTotalFunds",
          "name": "totalFunds",
          "type": "tuple"
        }
      ],
      "stateMutability": "view",
      "type": "function"
    },
    {
      "inputs": [
        {
          "internalType": "bytes32",
          "name": "_ccy",
          "type": "bytes32"
        },
        {
          "internalType": "uint256",
          "name": "_maturity",
          "type": "uint256"
        },
        {
          "internalType": "address",
          "name": "_user",
          "type": "address"
        },
        {
          "internalType": "uint256",
          "name": "_minDebtUnitPrice",
          "type": "uint256"
        }
      ],
      "name": "getActualFunds",
      "outputs": [
        {
          "components": [
            {
              "internalType": "int256",
              "name": "presentValue",
              "type": "int256"
            },
            {
              "internalType": "uint256",
              "name": "claimableAmount",
              "type": "uint256"
            },
            {
              "internalType": "uint256",
              "name": "debtAmount",
              "type": "uint256"
            },
            {
              "internalType": "int256",
              "name": "futureValue",
              "type": "int256"
            },
            {
              "internalType": "uint256",
              "name": "workingLendOrdersAmount",
              "type": "uint256"
            },
            {
              "internalType": "uint256",
              "name": "lentAmount",
              "type": "uint256"
            },
            {
              "internalType": "uint256",
              "name": "workingBorrowOrdersAmount",
              "type": "uint256"
            },
            {
              "internalType": "uint256",
              "name": "borrowedAmount",
              "type": "uint256"
            },
            {
              "internalType": "int256",
              "name": "genesisValue",
              "type": "int256"
            }
          ],
          "internalType": "struct FundManagementLogic.ActualFunds",
          "name": "actualFunds",
          "type": "tuple"
        }
      ],
      "stateMutability": "view",
      "type": "function"
    },
    {
      "inputs": [
        {
          "internalType": "uint256",
          "name": "_maturity",
          "type": "uint256"
        },
        {
          "internalType": "uint256",
          "name": "_minDebtUnitPrice",
          "type": "uint256"
        }
      ],
      "name": "getCurrentMinDebtUnitPrice",
      "outputs": [
        {
          "internalType": "uint256",
          "name": "",
          "type": "uint256"
        }
      ],
      "stateMutability": "view",
      "type": "function"
    },
    {
      "inputs": [
        {
          "internalType": "bytes32",
          "name": "_ccy",
          "type": "bytes32"
        },
        {
          "internalType": "uint256",
          "name": "_maturity",
          "type": "uint256"
        },
        {
          "internalType": "address",
          "name": "_user",
          "type": "address"
        }
      ],
      "name": "getPosition",
      "outputs": [
        {
          "internalType": "int256",
          "name": "presentValue",
          "type": "int256"
        },
        {
          "internalType": "int256",
          "name": "futureValue",
          "type": "int256"
        }
      ],
      "stateMutability": "view",
      "type": "function"
    },
    {
      "inputs": [
        {
          "internalType": "bytes32",
          "name": "_ccy",
          "type": "bytes32"
        },
        {
          "internalType": "address",
          "name": "_user",
          "type": "address"
        }
      ],
      "name": "getUsedMaturities",
      "outputs": [
        {
          "internalType": "uint256[]",
          "name": "maturities",
          "type": "uint256[]"
        }
      ],
      "stateMutability": "view",
      "type": "function"
    }
  ],
  "bytecode": "0x614e5161003a600b82828239805160001a60731461002d57634e487b7160e01b600052600060045260246000fd5b30600052607381538281f3fe73000000000000000000000000000000000000000030146080604052600436106101205760003560e01c80639349fb41116100ac578063b61ef55a1161007b578063b61ef55a14610364578063b6eb033d14610384578063c59cf0e9146103a4578063d2a19b3e146103b7578063ffee9d48146103d757600080fd5b80639349fb41146102a85780639519832b14610311578063ad8cc5e014610331578063b55c692f1461035157600080fd5b8063279c2541116100f3578063279c2541146101b55780635dd3a2c1146101c85780636566246e146101e8578063826b47e8146102085780638be3091e1461022857600080fd5b8063062ea294146101255780630a016fd8146101525780630b7915e6146101805780631dcc4092146101a2575b600080fd5b610138610133366004614425565b6103e0565b604080519283526020830191909152015b60405180910390f35b81801561015e57600080fd5b5061017261016d36600461445a565b610407565b604051908152602001610149565b81801561018c57600080fd5b506101a061019b366004614497565b6105dc565b005b6101726101b03660046144fe565b61088d565b6101726101c33660046144fe565b610957565b8180156101d457600080fd5b506101a06101e336600461452a565b6109b7565b8180156101f457600080fd5b506101a0610203366004614425565b610e90565b81801561021457600080fd5b506101a061022336600461452a565b611043565b61023b610236366004614545565b6110ad565b6040516101499190600061012082019050825182526020830151602083015260408301516040830152606083015160608301526080830151608083015260a083015160a083015260c083015160c083015260e083015160e083015261010080840151818401525092915050565b6102bb6102b636600461465a565b611803565b6040516101499190600060e082019050825182526020830151602083015260408301516040830152606083015160608301526080830151608083015260a083015160a083015260c083015160c083015292915050565b81801561031d57600080fd5b5061017261032c3660046146a1565b6119ff565b81801561033d57600080fd5b5061017261034c3660046146cd565b611d5b565b61023b61035f36600461445a565b611f45565b6103776103723660046146a1565b6127b4565b604051610149919061471b565b81801561039057600080fd5b506101a061039f366004614425565b61287b565b6101726103b236600461475f565b6128ff565b8180156103c357600080fd5b506101a06103d23660046146a1565b61295b565b61017261258081565b60008060006103f28686866000611f45565b80516060909101519097909650945050505050565b60006104116129bf565b6001600160a01b0316631eae0893866040518263ffffffff1660e01b815260040161043e91815260200190565b602060405180830381865afa15801561045b573d6000803e3d6000fd5b505050506040513d601f19601f8201168201806040525081019061047f9190614791565b8061048957508342105b156104a757604051630d85ae3d60e11b815260040160405180910390fd5b6104b185846119ff565b50600082156104d1576104c3836129e4565b6104cc906147c2565b6104e3565b6104de8686866000611f45565b606001515b90506000811261050657604051634c5e410960e01b815260040160405180910390fd5b61052361051587878785612a57565b61051e906147c2565b612d24565b915061052d612d76565b6001600160a01b031663fb7bd3b48588856040518463ffffffff1660e01b815260040161055c939291906147de565b600060405180830381600087803b15801561057657600080fd5b505af115801561058a573d6000803e3d6000fd5b505050508486856001600160a01b03167fc8d9ad27b2dc11154d9c9cb9a64cbede1ef8d2160950ea5d2bbba5161509b1cd856040516105cb91815260200190565b60405180910390a450949350505050565b60006105e6612d8e565b600089815260069190910160205260408120546001600160a01b0316915061060c612d8e565b60008a8152600a91909101602090815260408083208b845290915290205460ff1690506001866001811115610643576106436147ff565b0361072557610650612d76565b6001600160a01b0316634ba0c9b5888b886040518463ffffffff1660e01b815260040161067f939291906147de565b600060405180830381600087803b15801561069957600080fd5b505af11580156106ad573d6000803e3d6000fd5b50505050816001600160a01b031663be9fd21c828986886106ce9190614815565b8c6040518563ffffffff1660e01b81526004016106ee9493929190614828565b600060405180830381600087803b15801561070857600080fd5b505af115801561071c573d6000803e3d6000fd5b505050506107fe565b61072d612d76565b6001600160a01b031663fb7bd3b4888b886040518463ffffffff1660e01b815260040161075c939291906147de565b600060405180830381600087803b15801561077657600080fd5b505af115801561078a573d6000803e3d6000fd5b50505050816001600160a01b03166362354cde828986886107ab9190614851565b8c6040518563ffffffff1660e01b81526004016107cb9493929190614828565b600060405180830381600087803b1580156107e557600080fd5b505af11580156107f9573d6000803e3d6000fd5b505050505b821561088257600061080e612dbc565b60405163311aa66f60e11b81529091506001600160a01b038416906362354cde90610843908590859089908f90600401614828565b600060405180830381600087803b15801561085d57600080fd5b505af1158015610871573d6000803e3d6000fd5b505050506108808a8a8361287b565b505b505050505050505050565b600080610898612d8e565b600086815260059190910160205260409020546001600160a01b0316632bfa7c136108c1612d8e565b6000888152600a91909101602090815260408083208984529091529081902054905160e083901b6001600160e01b031916815260ff9091166004820152602401602060405180830381865afa15801561091e573d6000803e3d6000fd5b505050506040513d601f19601f820116820180604052508101906109429190614864565b905061094e8382612dd5565b95945050505050565b60006109af610964612d8e565b600086815260059190910160205260409020546001600160a01b0316610988612d8e565b6000878152600a919091016020908152604080832088845290915290205460ff1684612e11565b949350505050565b6109bf612d8e565b6001600160a01b0382166000908152600e91909101602052604090205460ff16156109fd576040516306d3830f60e21b815260040160405180910390fd5b600080610a2c610a0b612d8e565b6001600160a01b0385166000908152600d9190910160205260409020612e8d565b905060005b8151811015610a9c576000828281518110610a4e57610a4e61487d565b60200260200101519050610a6281866119ff565b506000610a6f8287612e98565b9050610a7b828261307e565b610a859086614893565b945050508080610a94906148b3565b915050610a31565b506000610aa7612d76565b6001600160a01b031663d5e190d06040518163ffffffff1660e01b8152600401600060405180830381865afa158015610ae4573d6000803e3d6000fd5b505050506040513d6000823e601f3d908101601f19168201604052610b0c91908101906148f0565b905060005b8151811015610c0e576000610bc9610b27612d76565b6001600160a01b0316637d044b4388868681518110610b4857610b4861487d565b60200260200101516040518363ffffffff1660e01b8152600401610b819291906001600160a01b03929092168252602082015260400190565b6020604051808303816000875af1158015610ba0573d6000803e3d6000fd5b505050506040513d601f19601f82011682018060405250810190610bc49190614864565b6129e4565b9050610bee838381518110610be057610be061487d565b60200260200101518261307e565b610bf89086614893565b9450508080610c06906148b3565b915050610b11565b506000831315610df6576000815167ffffffffffffffff811115610c3457610c3461458f565b604051908082528060200260200182016040528015610c5d578160200160208202803683370190505b5090506000805b8351811015610d01576000848281518110610c8157610c8161487d565b60200260200101519050610c93612d8e565b600301600082815260200190815260200160002054848381518110610cba57610cba61487d565b602002602001018181525050838281518110610cd857610cd861487d565b602002602001015183610ceb9190614815565b9250508080610cf9906148b3565b915050610c64565b5060005b8351811015610dee576000848281518110610d2257610d2261487d565b602002602001015190506000610d6e82610d6986888781518110610d4857610d4861487d565b6020026020010151610d598d612d24565b610d639190614986565b906130da565b61314b565b9050610d78612d76565b6001600160a01b0316634ba0c9b58a84846040518463ffffffff1660e01b8152600401610da7939291906147de565b600060405180830381600087803b158015610dc157600080fd5b505af1158015610dd5573d6000803e3d6000fd5b5050505050508080610de6906148b3565b915050610d05565b505050610e18565b6000831215610e1857604051633a23d82560e01b815260040160405180910390fd5b6001610e22612d8e565b6001600160a01b0386166000818152600e929092016020526040909120805460ff1916921515929092179091557f2bcd2d5215f77c21e5e2a4727a0ca3161029102d16ad1b146ce78a873213e0db610e7985612d24565b60405190815260200160405180910390a250505050565b610e986129bf565b6001600160a01b0316631eae0893846040518263ffffffff1660e01b8152600401610ec591815260200190565b602060405180830381865afa158015610ee2573d6000803e3d6000fd5b505050506040513d601f19601f82011682018060405250810190610f069190614791565b80610f1c5750610f198262093a80614815565b42105b15610f3a57604051637a90677f60e11b815260040160405180910390fd5b610f4483826119ff565b506000610f548484846000611f45565b60600151905060008113610f7b576040516357c0027160e01b815260040160405180910390fd5b6000610f8c61051e86868686612a57565b9050610f96612d76565b6001600160a01b0316634ba0c9b58487846040518463ffffffff1660e01b8152600401610fc5939291906147de565b600060405180830381600087803b158015610fdf57600080fd5b505af1158015610ff3573d6000803e3d6000fd5b505050508385846001600160a01b03167f051f458a7b860c75e07e1f4b3e2241de36bc45118bf15e38bbb31d154bd7260e8460405161103491815260200190565b60405180910390a45050505050565b600061104d612d8e565b6001600160a01b0383166000908152600d91909101602052604081209150611074826131b3565b905060005b818110156110a75761109461108e84836131bd565b856119ff565b508061109f816148b3565b915050611079565b50505050565b6110fc6040518061012001604052806000815260200160008152602001600081526020016000815260200160008152602001600081526020016000815260200160008152602001600081525090565b6000611106612d8e565b6001600160a01b0386166000908152600d9190910160205260409020905061112c614390565b6111378286356131c9565b1580156111b257506111476129bf565b604051631eae089360e01b8152863560048201526001600160a01b039190911690631eae089390602401602060405180830381865afa15801561118e573d6000803e3d6000fd5b505050506040513d601f19601f820116820180604052508101906111b29190614791565b1561128c5760006111c2836131b3565b90506111cf816001614815565b67ffffffffffffffff8111156111e7576111e761458f565b604051908082528060200260200182016040528015611210578160200160208202803683370190505b50608083015260005b8181101561125e5761122b84826131bd565b836080015182815181106112415761124161487d565b602090810291909101015280611256816148b3565b915050611219565b5085600001358260800151828151811061127a5761127a61487d565b6020026020010181815250505061129b565b61129582612e8d565b60808201525b6001600160a01b03861681526112b63686900386018661499d565b6020820152604081018490526112ca612d76565b6001600160a01b0316633f90a08e82608001516040518263ffffffff1660e01b81526004016112f9919061471b565b600060405180830381865afa158015611316573d6000803e3d6000fd5b505050506040513d6000823e601f3d908101601f1916820160405261133e91908101906149b9565b606082015260005b8160800151518110156117f9576113966040518060e00160405280600080191681526020016000815260200160008152602001600081526020016000815260200160008152602001600081525090565b60208301515160808401518051849081106113b3576113b361487d565b6020026020010151036113c7575060208201515b60408051600780825261010082019092526000916020820160e080368337019050509050600061141e856080015185815181106114065761140661487d565b60200260200101518660000151858860400151611803565b90508060000151826000815181106114385761143861487d565b60200260200101818152505080602001518260018151811061145c5761145c61487d565b6020026020010181815250508060400151826002815181106114805761148061487d565b6020026020010181815250508060600151826003815181106114a4576114a461487d565b6020026020010181815250508060800151826004815181106114c8576114c861487d565b6020026020010181815250508060a00151826005815181106114ec576114ec61487d565b6020026020010181815250508060c00151826006815181106115105761151061487d565b6020026020010181815250508460200151600001518560800151858151811061153b5761153b61487d565b6020026020010151036115ce578160068151811061155b5761155b61487d565b6020026020010151876000018181516115749190614815565b90525081518290600390811061158c5761158c61487d565b6020026020010151826000815181106115a7576115a761487d565b60200260200101516115b99190614815565b876020018181516115ca9190614815565b9052505b60006115d86129bf565b6001600160a01b0316638a2eae92876080015187815181106115fc576115fc61487d565b6020026020010151856040518363ffffffff1660e01b8152600401611622929190614a46565b600060405180830381865afa15801561163f573d6000803e3d6000fd5b505050506040513d6000823e601f3d908101601f1916820160405261166791908101906148f0565b90508060018151811061167c5761167c61487d565b6020026020010151886060018181516116959190614815565b9052508051819060029081106116ad576116ad61487d565b6020026020010151886080018181516116c69190614815565b9052508051819060049081106116de576116de61487d565b60200260200101518860c0018181516116f79190614815565b90525080518190600590811061170f5761170f61487d565b60200260200101518860e0018181516117289190614815565b90525060608601518051869081106117425761174261487d565b6020026020010151156117e257806000815181106117625761176261487d565b60200260200101518860400181815161177b9190614815565b9052508051819060039081106117935761179361487d565b60200260200101518860a0018181516117ac9190614815565b9052508051819060069081106117c4576117c461487d565b602002602001015188610100018181516117de9190614815565b9052505b5050505080806117f1906148b3565b915050611346565b5050509392505050565b6118436040518060e00160405280600081526020016000815260200160008152602001600081526020016000815260200160008152602001600081525090565b600061186c86600087611854612d8e565b60008b81526007919091016020526040902054611f45565b9050836020015181608001516118829190614815565b8252604084015160208201516118989190614815565b602083015260a080850151908201516118b19190614815565b60608084019190915284015160c08201516118cc9190614815565b60808084019190915284015160408201516118e79190614815565b60a083015260c084015160e08201516119009190614815565b60c08301526020820151156119f657600061192c6127108585608001518660a00151610d599190614815565b905080836020015111156119e95760006119446129bf565b6001600160a01b0316639abdb38a896040518263ffffffff1660e01b815260040161197191815260200190565b602060405180830381865afa15801561198e573d6000803e3d6000fd5b505050506040513d601f19601f820116820180604052508101906119b29190614864565b90506119d46127108386602001516119ca9190614851565b610d639084614986565b6119de9083614815565b6040850152506119f4565b602083015160408401525b505b50949350505050565b60008080611a0d85856127b4565b90506000611a19612d8e565b600087815260059190910160205260408120546001600160a01b031691505b8251811015611c8c576000611a4b612d8e565b600a0160008981526020019081526020016000206000858481518110611a7357611a7361487d565b60209081029190910181015182528101919091526040908101600090812054915163527f921d60e11b815260ff909216600483018190529250906001600160a01b0385169063a4ff243a90602401602060405180830381865afa158015611ade573d6000803e3d6000fd5b505050506040513d601f19601f82011682018060405250810190611b029190614864565b90506000611b118a838b6131e1565b9050611b1d8189614815565b97506000611b2d8b85858d611d5b565b90508015611b3a57600197505b80158015611b46575081155b15611bb757611bb5878681518110611b6057611b6061487d565b6020026020010151611b70612d8e565b600b0160008e815260200190815260200160002060008d6001600160a01b03166001600160a01b031681526020019081526020016000206135ae90919063ffffffff16565b505b611bbf6135ba565b6001600160a01b0316637dec489e8c8c60018b51611bdd9190614851565b8914611c0c578a611bef8a6001614815565b81518110611bff57611bff61487d565b6020026020010151611c0f565b60005b6040516001600160e01b031960e086901b16815260048101939093526001600160a01b0390911660248301526044820152606401600060405180830381600087803b158015611c5d57600080fd5b505af1158015611c71573d6000803e3d6000fd5b50505050505050508080611c84906148b3565b915050611a38565b5083158015611c99575082155b8015611d1d5750611ca86135ba565b6040516314c3a4c760e21b8152600481018890526001600160a01b038781166024830152919091169063530e931c90604401602060405180830381865afa158015611cf7573d6000803e3d6000fd5b505050506040513d601f19601f82011682018060405250810190611d1b9190614864565b155b15611d5257611d5086611d2e612d8e565b6001600160a01b0388166000908152600d9190910160205260409020906135ae565b505b50505092915050565b600080611d66612d8e565b60008781526006919091016020526040808220549051630ee7ca3d60e21b815260ff881660048201526001600160a01b0386811660248301526044820188905290911692508190819081908590633b9f28f4906064016080604051808303816000875af1158015611ddb573d6000803e3d6000fd5b505050506040513d601f19601f82011682018060405250810190611dff9190614a94565b935093509350935083600014611f3757808015611e3f5750611e1f612d8e565b60008b815260099190910160209081526040808320858452909152902054155b15611ebc57611e4c6135ba565b60405163312c474560e01b8152600481018c90526001600160a01b03898116602483015260448201859052919091169063312c474590606401600060405180830381600087803b158015611e9f57600080fd5b505af1158015611eb3573d6000803e3d6000fd5b50505050611f37565b611ec46135ba565b6040516360e3f72960e11b8152600481018c90526001600160a01b0389811660248301526044820185905260648201879052919091169063c1c7ee5290608401600060405180830381600087803b158015611f1e57600080fd5b505af1158015611f32573d6000803e3d6000fd5b505050505b509098975050505050505050565b611f946040518061012001604052806000815260200160008152602001600081526020016000815260200160008152602001600081526020016000815260200160008152602001600081525090565b604080516101608101825260008082526020820181905291810182905260608082018390526080820183905260a082015260c0810182905260e0810182905261010081018290526101208101829052610140810191909152611ff4612d8e565b600087815260059190910160205260409020546001600160a01b031660e082015261201d612d8e565b600087815260069190910160205260409020546001600160a01b0316610100820152612047612d8e565b600401600087815260200190815260200160002060008154811061206d5761206d61487d565b60009182526020808320908204015460ff601f9092166101000a900416606083015261012082018490528590036120ba576001808252606082015160ff16604083015260208201526120fe565b600081526120c6612d8e565b6000878152600a91909101602090815260408083208884528252918290205460ff908116928401839052606084015116909114908201525b6121066135ba565b6040516314c3a4c760e21b8152600481018890526001600160a01b038681166024830152919091169063530e931c90604401602060405180830381865afa158015612155573d6000803e3d6000fd5b505050506040513d601f19601f820116820180604052508101906121799190614864565b61010083015261218986856127b4565b60a082015260005b8160a001515181101561257c5760006121a8612d8e565b600a01600089815260200190815260200160002060008460a0015184815181106121d4576121d461487d565b6020026020010151815260200190815260200160002060009054906101000a900460ff1690508260200151806122135750826040015160ff168160ff16145b156125695760e083015160405163527f921d60e11b815260ff831660048201526000916001600160a01b03169063a4ff243a90602401602060405180830381865afa158015612266573d6000803e3d6000fd5b505050506040513d601f19601f8201168201806040525081019061228a9190614864565b606085015190915060ff83811691161460006122aa8b8a888787876135d9565b905060006122bc8c8b89888888613898565b905060006122ce8d8c8a898989613b6a565b80518351855192935090916122e39190614ac8565b6122ed9190614893565b89610100018181516122ff9190614893565b905250602080820151838201519185015160009261231c91614ac8565b6123269190614893565b905060008260400151846040015186604001516123439190614ac8565b61234d9190614893565b9050818b6000018181516123619190614893565b90525085156123725760c08a018290525b600082131561239d5761238482612d24565b8b6020018181516123959190614815565b9052506123c7565b60008212156123c7576123b261051e836147c2565b8b6040018181516123c39190614815565b9052505b89516123e357808b6060018181516123df9190614893565b9052505b83606001518b60c0018181516123f99190614815565b905250606083015160808c018051612412908390614815565b905250608084015160e08c01805161242b908390614815565b905250608083015160a08c018051612444908390614815565b90525050506101008901516000131594506125699350505050576124666135ba565b6001600160a01b031663aee1311e898661010001518660a0015186815181106124915761249161487d565b602002602001015160018860a00151516124ab9190614851565b87146124de5760a08801516124c1886001614815565b815181106124d1576124d161487d565b60200260200101516124e1565b60005b6040516001600160e01b031960e087901b1681526004810194909452602484019290925260448301526064820152608401602060405180830381865afa15801561252f573d6000803e3d6000fd5b505050506040513d601f19601f820116820180604052508101906125539190614864565b84610100018181516125659190614893565b9052505b5080612574816148b3565b915050612191565b5080602001518015612592575061010082015115155b156119f65760006125a16135ba565b610100840151604051637636e94160e01b8152600481018a90526000602482015260448101919091526001600160a01b039190911690637636e94190606401602060405180830381865afa1580156125fd573d6000803e3d6000fd5b505050506040513d601f19601f820116820180604052508101906126219190614864565b9050600061262e83613d9d565b9050600061263b84613e30565b9050600061265784838510156126515783613ee4565b84613ee4565b9050808660000181815161266b9190614893565b90525060008113156126fd5760008560c0015112156126db5760008560c00151612694906147c2565b82136126a057816126ae565b8560c001516126ae906147c2565b90506126b981612d24565b876040018181516126ca9190614851565b9052506126d78183614ac8565b9150505b6126e481612d24565b866020018181516126f59190614815565b90525061278b565b600081121561278b5760008560c00151131561276a5760008560c0015182612724906147c2565b1361273757612732826147c2565b61273d565b8560c001515b905061274881612d24565b876020018181516127599190614851565b9052506127668183614893565b9150505b61277661051e826147c2565b866040018181516127879190614815565b9052505b84516127a75783866060018181516127a39190614893565b9052505b5050505050949350505050565b60606127ec6127c1612d8e565b6000858152600b91909101602090815260408083206001600160a01b03871684529091529020613f10565b80519091501561287557604051634f64581360e11b815273__$cd9358e65801d13c280787f44717df25ed$__90639ec8b0269061282d90849060040161471b565b600060405180830381865af415801561284a573d6000803e3d6000fd5b505050506040513d6000823e601f3d908101601f1916820160405261287291908101906148f0565b90505b92915050565b6128b382612887612d8e565b6000868152600b91909101602090815260408083206001600160a01b03871684529091529020906131c9565b6128fa576128ef826128c3612d8e565b6000868152600b91909101602090815260408083206001600160a01b0387168452909152902090613f24565b506128fa838261295b565b505050565b60008160000361291157506000612875565b42831161292057612580612872565b6301e1338061292f4285614851565b61293b84612580614851565b6129459190614986565b61294f9190614afe565b61287290612580614851565b61298982612967612d8e565b6001600160a01b0384166000908152600d9190910160205260409020906131c9565b6129bb576128fa82612999612d8e565b6001600160a01b0384166000908152600d919091016020526040902090613f24565b5050565b60006129df7121bab93932b731bca1b7b73a3937b63632b960711b613f30565b905090565b60006001600160ff1b03821115612a535760405162461bcd60e51b815260206004820152602860248201527f53616665436173743a2076616c756520646f65736e27742066697420696e2061604482015267371034b73a191a9b60c11b60648201526084015b60405180910390fd5b5090565b6000806000612a64612d8e565b600088815260069190910160205260409020546001600160a01b031663c7e035bc612a8d612d8e565b60008a8152600a91909101602090815260408083208b84529091529081902054905160e083901b6001600160e01b031916815260ff90911660048201526001600160a01b03881660248201526044810187905260640160408051808303816000875af1158015612b01573d6000803e3d6000fd5b505050506040513d601f19601f82011682018060405250810190612b259190614b12565b90935091506000612b368486614ac8565b90506000612b42612d8e565b60040160008a8152602001908152602001600020600081548110612b6857612b6861487d565b60009182526020918290209181049091015460ff601f9092166101000a900416612b90612d8e565b60008b8152600a91909101602090815260408083208c845290915290205460ff16149050808015612bc057508115155b15612c63576000612bcf6135ba565b604051636aea0c5960e01b8152600481018c9052602481018b90526001600160a01b038a81166044830152606482018690529190911690636aea0c599060840160408051808303816000875af1158015612c2d573d6000803e3d6000fd5b505050506040513d601f19601f82011682018060405250810190612c519190614b12565b94509050612c5f8187614893565b9550505b83158015612c6f575082155b15612d1857612cac88612c80612d8e565b60008c8152600b91909101602090815260408083206001600160a01b038d1684529091529020906135ae565b50612ce3612cb8612d8e565b60008b8152600b91909101602090815260408083206001600160a01b038c16845290915290206131b3565b600003612d18576127a789612cf6612d8e565b6001600160a01b038a166000908152600d9190910160205260409020906135ae565b50505050949350505050565b600080821215612a535760405162461bcd60e51b815260206004820181905260248201527f53616665436173743a2076616c7565206d75737420626520706f7369746976656044820152606401612a4a565b60006129df69151bdad95b95985d5b1d60b21b613f30565b60008061287560017f8041b8421ebd495cc61f38c788c9eb100daccf9bd36aa0bb920b7a15b2e04965614851565b60006129df6a14995cd95c9d99519d5b9960aa1b613f30565b6000808215612de45782612de8565b6127105b90506109af612df6826129e4565b612e016127106129e4565b612e0b9087614b36565b90613f91565b604051632bfa7c1360e01b815260ff8316600482015260009081906001600160a01b03861690632bfa7c1390602401602060405180830381865afa158015612e5d573d6000803e3d6000fd5b505050506040513d601f19601f82011682018060405250810190612e819190614864565b905061094e8382613ee4565b60606128758261402e565b6000612ea8836000846000611f45565b5190506000612ee3612eb8612d8e565b6000868152600b91909101602090815260408083206001600160a01b03881684529091529020613f10565b905060005b8151811015612fdb57612ef9612d8e565b600086815260069190910160205260409020546001600160a01b031663d3bcc4a8612f22612d8e565b600a0160008881526020019081526020016000206000858581518110612f4a57612f4a61487d565b602090810291909101810151825281019190915260409081016000205490516001600160e01b031960e084901b16815260ff90911660048201526001600160a01b0387166024820152604401600060405180830381600087803b158015612fb057600080fd5b505af1158015612fc4573d6000803e3d6000fd5b505050508080612fd3906148b3565b915050612ee8565b50612fe46135ba565b6040516355aef57960e11b8152600481018690526001600160a01b038581166024830152919091169063ab5deaf290604401600060405180830381600087803b15801561303057600080fd5b505af1158015613044573d6000803e3d6000fd5b5050505061307684613054612d8e565b6001600160a01b0386166000908152600d9190910160205260409020906135ae565b505092915050565b600080613089612d8e565b600085815260029190910160209081526040918290208251808401909352805483526001015460ff169082018190529091506109af906130ce90610bc490600a614c4a565b8251612e0b9086614b36565b60008082116130e857600080fd5b60056130f48385614afe565b6130ff90600a614986565b8361310b86600a614986565b6131159190614afe565b61311f9190614851565b10156131365761312f8284614afe565b9050612875565b6131408284614afe565b61312f906001614815565b600080613156612d8e565b600085815260029190910160209081526040918290208251808401909352805480845260019091015460ff16918301919091529091506109af9061319990612d24565b60208301516131a990600a614c4a565b610d639086614986565b6000612875825490565b6000612872838361408a565b60008181526001830160205260408120541515612872565b6000806131ec612d8e565b6000868152600a919091016020908152604080832087845290915281205460ff16915080808080808061321d612d8e565b60008d8152600591909101602052604090819020549051630f506ad360e41b815260ff8a1660048201526001600160a01b038c811660248301529091169063f506ad309060440160e0604051808303816000875af1158015613283573d6000803e3d6000fd5b505050506040513d601f19601f820116820180604052508101906132a79190614c59565b965096509650965096509650965081831115613334576132c5612d76565b6001600160a01b031663fb7bd3b48b8e6132df8688614851565b6040518463ffffffff1660e01b81526004016132fd939291906147de565b600060405180830381600087803b15801561331757600080fd5b505af115801561332b573d6000803e3d6000fd5b505050506133af565b818310156133af57613344612d76565b6001600160a01b0316634ba0c9b58b8e61335e8787614851565b6040518463ffffffff1660e01b815260040161337c939291906147de565b600060405180830381600087803b15801561339657600080fd5b505af11580156133aa573d6000803e3d6000fd5b505050505b841561347f576133bd612d8e565b60008d815260069190910160205260409081902054905163311aa66f60e11b81526001600160a01b03909116906362354cde90613404908b908e908a908790600401614828565b600060405180830381600087803b15801561341e57600080fd5b505af1158015613432573d6000803e3d6000fd5b50505050808c8b6001600160a01b03167fba00994778888e87ce0908fd360c4b0417bfe7e274cce4cb72ed8a60b38b3e386000878a60405161347693929190614cad565b60405180910390a45b831561354f5761348d612d8e565b60008d8152600691909101602052604090819020549051632fa7f48760e21b81526001600160a01b039091169063be9fd21c906134d4908b908e9089908790600401614828565b600060405180830381600087803b1580156134ee57600080fd5b505af1158015613502573d6000803e3d6000fd5b50505050808c8b6001600160a01b03167fba00994778888e87ce0908fd360c4b0417bfe7e274cce4cb72ed8a60b38b3e386001868960405161354693929190614cad565b60405180910390a45b6135598284614815565b613561612d8e565b60008e8152600991909101602090815260408083208584529091528120805490919061358e908490614851565b9091555061359e90508688614815565b9c9b505050505050505050505050565b600061287283836140b4565b60006129df7011d95b995cda5cd5985b1d5955985d5b1d607a1b613f30565b6135fd60405180606001604052806000815260200160008152602001600081525090565b610100850151604051630919149560e21b815260ff861660048201526001600160a01b03888116602483015260009283929116906324645254906044016040805180830381865afa158015613656573d6000803e3d6000fd5b505050506040513d601f19601f8201168201806040525081019061367a9190614b12565b915091508160001461388c578085146137215786602001511561371c5761369f6135ba565b604051630c30971960e11b8152600481018b905260248101839052604481018490526001600160a01b0391909116906318612e32906064015b602060405180830381865afa1580156136f5573d6000803e3d6000fd5b505050506040513d601f19601f820116820180604052508101906137199190614864565b83525b61388c565b80850361388c5786518015613734575083155b1561379f57600061374488613d9d565b90506137578a8960e001518486856141a7565b6040860181905260208601919091526000131561379957600061377989613e30565b90508082101561379757613791856040015182613ee4565b60208601525b505b5061388c565b8651806137ae57508660200151155b806137b65750835b1561388c5760e08701516040808901519051632bfa7c1360e01b815260ff90911660048201526000916001600160a01b031690632bfa7c1390602401602060405180830381865afa15801561380f573d6000803e3d6000fd5b505050506040513d601f19601f820116820180604052508101906138339190614864565b604085018490529050600083121561387a576000613856878a61012001516128ff565b905061386f848284106138695783613ee4565b82613ee4565b60208601525061388a565b6138848382613ee4565b60208501525b505b50509695505050505050565b6138ca6040518060a0016040528060008152602001600081526020016000815260200160008152602001600081525090565b60008060006138de868961012001516128ff565b60e089015160405163098c15f960e31b815260ff8a1660048201526001600160a01b038c8116602483015260448201849052929350911690634c60afc890606401608060405180830381865afa15801561393c573d6000803e3d6000fd5b505050506040513d601f19601f820116820180604052508101906139609190614ce3565b608088019290925260608701929092529093509150821561388a57818614613a2257876020015115613a1d576139946135ba565b6001600160a01b03166318612e328b846139ad876129e4565b6040516001600160e01b031960e086901b168152600481019390935260248301919091526044820152606401602060405180830381865afa1580156139f6573d6000803e3d6000fd5b505050506040513d601f19601f82011682018060405250810190613a1a9190614864565b84525b61388a565b81860361388a5787518015613a35575084155b15613a9a576000613a4589613d9d565b9050613a608b8a60e0015185613a5a886129e4565b856141a7565b604087015260208601526000613a758a613e30565b905080821015613a9357613a8d866040015182613ee4565b60208701525b505061388a565b875180613aa957508760200151155b80613ab15750845b1561388a5760e08801516040808a01519051632bfa7c1360e01b815260ff90911660048201526000916001600160a01b031690632bfa7c1390602401602060405180830381865afa158015613b0a573d6000803e3d6000fd5b505050506040513d601f19601f82011682018060405250810190613b2e9190614864565b9050613b39846129e4565b60408601819052613b5790838310613b515782613ee4565b83613ee4565b6020860152505050509695505050505050565b613b9c6040518060a0016040528060008152602001600081526020016000815260200160008152602001600081525090565b60e08501516040516304e9114760e21b815260ff861660048201526001600160a01b03888116602483015260009283929116906313a4451c90604401608060405180830381865afa158015613bf5573d6000803e3d6000fd5b505050506040513d601f19601f82011682018060405250810190613c199190614ce3565b608087019290925260608601929092529092509050811561388c57808514613c975786602001511561371c57613c4d6135ba565b6001600160a01b03166318612e328a83613c66866129e4565b6040516001600160e01b031960e086901b1681526004810193909352602483019190915260448201526064016136d8565b80850361388c5786518015613caa575083155b15613d4d57613d3e898860e0015183613cc2866129e4565b60e08c015160608d0151604051632bfa7c1360e01b815260ff90911660048201526001600160a01b0390911690632bfa7c1390602401602060405180830381865afa158015613d15573d6000803e3d6000fd5b505050506040513d601f19601f82011682018060405250810190613d399190614864565b6141a7565b6040850152602084015261388c565b865180613d5c57508660200151155b80613d645750835b1561388c57613d72826129e4565b604080850182905260e089015190890151613d8c92612e11565b602084015250509695505050505050565b60008160800151600003613e285760e08201516060830151604051632bfa7c1360e01b815260ff90911660048201526001600160a01b0390911690632bfa7c1390602401602060405180830381865afa158015613dfe573d6000803e3d6000fd5b505050506040513d601f19601f82011682018060405250810190613e229190614864565b60808301525b506080015190565b60008161014001516000148015613e4b575061012082015115155b15613edb5760e0820151606083015160405163527f921d60e11b815260ff9091166004820152613ed4916001600160a01b03169063a4ff243a90602401602060405180830381865afa158015613ea5573d6000803e3d6000fd5b505050506040513d601f19601f82011682018060405250810190613ec99190614864565b8361012001516128ff565b6101408301525b50610140015190565b6000808215613ef35782613ef7565b6127105b90506109af613f076127106129e4565b612e01836129e4565b60606000613f1d8361402e565b9392505050565b60006128728383614313565b600080613f3b614362565b600084815260019190910160205260409020546001600160a01b03169050806128755760408051602081018590520160408051601f19818403018152908290526346e2ec9360e01b8252612a4a91600401614d19565b600081600003613fa057600080fd5b6000613fac8385614d67565b613fb790600a614b36565b83613fc386600a614b36565b613fcd9190614d67565b613fd79190614ac8565b905060058112613ffe57613feb8385614d67565b613ff6906001614893565b915050612875565b600419811361401d5760016140138486614d67565b613ff69190614ac8565b613ff68385614d67565b5092915050565b60608160000180548060200260200160405190810160405280929190818152602001828054801561407e57602002820191906000526020600020905b81548152602001906001019080831161406a575b50505050509050919050565b60008260000182815481106140a1576140a161487d565b9060005260206000200154905092915050565b6000818152600183016020526040812054801561419d5760006140d8600183614851565b85549091506000906140ec90600190614851565b905081811461415157600086600001828154811061410c5761410c61487d565b906000526020600020015490508087600001848154811061412f5761412f61487d565b6000918252602080832090910192909255918252600188019052604090208390555b855486908061416257614162614d95565b600190038181906000526020600020016000905590558560010160008681526020019081526020016000206000905560019350505050612875565b6000915050612875565b6000806141b26135ba565b60405163474611f160e01b815260048101899052602481018790526001600160a01b03919091169063474611f19060440160a060405180830381865afa158015614200573d6000803e3d6000fd5b505050506040513d601f19601f820116820180604052508101906142249190614dab565b516000036142725761425f86614238612d8e565b60008a8152600a91909101602090815260408083208a845290915290205460ff1686612e11565b915061426b8284612dd5565b9050614309565b61427a6135ba565b604051631b736f6760e31b8152600481018990526024810187905260006044820152606481018690526001600160a01b03919091169063db9b7b3890608401602060405180830381865afa1580156142d6573d6000803e3d6000fd5b505050506040513d601f19601f820116820180604052508101906142fa9190614864565b90506143068184613ee4565b91505b9550959350505050565b600081815260018301602052604081205461435a57508154600181810184556000848152602080822090930184905584548482528286019093526040902091909155612875565b506000612875565b60008061287560017f4abde63c3e81aefa5764b017968bc473e83e093d7e1a10247d19e0a3e4124018614851565b6040518060a0016040528060006001600160a01b031681526020016143ee6040518060e00160405280600080191681526020016000815260200160008152602001600081526020016000815260200160008152602001600081525090565b81526020016000815260200160608152602001606081525090565b80356001600160a01b038116811461442057600080fd5b919050565b60008060006060848603121561443a57600080fd5b833592506020840135915061445160408501614409565b90509250925092565b6000806000806080858703121561447057600080fd5b843593506020850135925061448760408601614409565b9396929550929360600135925050565b600080600080600080600060e0888a0312156144b257600080fd5b87359650602088013595506144c960408901614409565b94506060880135600281106144dd57600080fd5b9699959850939660808101359560a0820135955060c0909101359350915050565b60008060006060848603121561451357600080fd5b505081359360208301359350604090920135919050565b60006020828403121561453c57600080fd5b61287282614409565b600080600083850361012081121561455c57600080fd5b61456585614409565b935060e0601f198201121561457957600080fd5b5060208401915061010084013590509250925092565b634e487b7160e01b600052604160045260246000fd5b604051601f8201601f1916810167ffffffffffffffff811182821017156145ce576145ce61458f565b604052919050565b600060e082840312156145e857600080fd5b60405160e0810181811067ffffffffffffffff8211171561460b5761460b61458f565b8060405250809150823581526020830135602082015260408301356040820152606083013560608201526080830135608082015260a083013560a082015260c083013560c08201525092915050565b600080600080610140858703121561467157600080fd5b8435935061468160208601614409565b925061469086604087016145d6565b939692955092936101200135925050565b600080604083850312156146b457600080fd5b823591506146c460208401614409565b90509250929050565b600080600080608085870312156146e357600080fd5b84359350602085013560ff811681146146fb57600080fd5b92506040850135915061471060608601614409565b905092959194509250565b6020808252825182820181905260009190848201906040850190845b8181101561475357835183529284019291840191600101614737565b50909695505050505050565b6000806040838503121561477257600080fd5b50508035926020909101359150565b8051801515811461442057600080fd5b6000602082840312156147a357600080fd5b61287282614781565b634e487b7160e01b600052601160045260246000fd5b6000600160ff1b82016147d7576147d76147ac565b5060000390565b6001600160a01b039390931683526020830191909152604082015260600190565b634e487b7160e01b600052602160045260246000fd5b80820180821115612875576128756147ac565b60ff9490941684526001600160a01b039290921660208401526040830152606082015260800190565b81810381811115612875576128756147ac565b60006020828403121561487657600080fd5b5051919050565b634e487b7160e01b600052603260045260246000fd5b8082018281126000831280158216821582161715613076576130766147ac565b6000600182016148c5576148c56147ac565b5060010190565b600067ffffffffffffffff8211156148e6576148e661458f565b5060051b60200190565b6000602080838503121561490357600080fd5b825167ffffffffffffffff81111561491a57600080fd5b8301601f8101851361492b57600080fd5b805161493e614939826148cc565b6145a5565b81815260059190911b8201830190838101908783111561495d57600080fd5b928401925b8284101561497b57835182529284019290840190614962565b979650505050505050565b8082028115828204841417612875576128756147ac565b600060e082840312156149af57600080fd5b61287283836145d6565b600060208083850312156149cc57600080fd5b825167ffffffffffffffff8111156149e357600080fd5b8301601f810185136149f457600080fd5b8051614a02614939826148cc565b81815260059190911b82018301908381019087831115614a2157600080fd5b928401925b8284101561497b57614a3784614781565b82529284019290840190614a26565b6000604082018483526020604081850152818551808452606086019150828701935060005b81811015614a8757845183529383019391830191600101614a6b565b5090979650505050505050565b60008060008060808587031215614aaa57600080fd5b84519350602085015192506040850151915061471060608601614781565b8181036000831280158383131683831282161715614027576140276147ac565b634e487b7160e01b600052601260045260246000fd5b600082614b0d57614b0d614ae8565b500490565b60008060408385031215614b2557600080fd5b505080516020909101519092909150565b80820260008212600160ff1b84141615614b5257614b526147ac565b8181058314821517612875576128756147ac565b600181815b80851115614ba1578160001904821115614b8757614b876147ac565b80851615614b9457918102915b93841c9390800290614b6b565b509250929050565b600082614bb857506001612875565b81614bc557506000612875565b8160018114614bdb5760028114614be557614c01565b6001915050612875565b60ff841115614bf657614bf66147ac565b50506001821b612875565b5060208310610133831016604e8410600b8410161715614c24575081810a612875565b614c2e8383614b66565b8060001904821115614c4257614c426147ac565b029392505050565b600061287260ff841683614ba9565b600080600080600080600060e0888a031215614c7457600080fd5b5050855160208701516040880151606089015160808a015160a08b015160c0909b0151949c939b50919990985090965094509092509050565b6060810160028510614ccf57634e487b7160e01b600052602160045260246000fd5b938152602081019290925260409091015290565b60008060008060808587031215614cf957600080fd5b505082516020840151604085015160609095015191969095509092509050565b600060208083528351808285015260005b81811015614d4657858101830151858201604001528201614d2a565b506000604082860101526040601f19601f8301168501019250505092915050565b600082614d7657614d76614ae8565b600160ff1b821460001984141615614d9057614d906147ac565b500590565b634e487b7160e01b600052603160045260246000fd5b600060a08284031215614dbd57600080fd5b60405160a0810181811067ffffffffffffffff82111715614de057614de061458f565b80604052508251815260208301516020820152604083015160408201526060830151606082015260808301516080820152809150509291505056fea2646970667358221220c9fcf83b88f0ba25707cf2aeb2b91347647b269b30b695612c263a7536233b2e64736f6c63430008130033",
  "linkReferences": {
    "contracts/protocol/libraries/QuickSort.sol": {
      "QuickSort": [
        {
          "length": 20,
          "start": 10303
        }
      ]
    }
  },
  "deployedLinkReferences": {
    "contracts/protocol/libraries/QuickSort.sol": {
      "QuickSort": [
        {
          "length": 20,
          "start": 10245
        }
      ]
    }
  }
}