{
  "_format": "hh-sol-artifact-1",
  "contractName": "LendingMarketOperationLogic",
  "sourceName": "contracts/protocol/libraries/logics/LendingMarketOperationLogic.sol",
  "abi": [
    {
      "inputs": [
        {
          "internalType": "address",
          "name": "tokenAddress",
          "type": "address"
        }
      ],
      "name": "AlreadyZCTokenExists",
      "type": "error"
    },
    {
      "inputs": [],
      "name": "InvalidCompoundFactor",
      "type": "error"
    },
    {
      "inputs": [],
      "name": "InvalidCurrency",
      "type": "error"
    },
    {
      "inputs": [
        {
          "internalType": "uint256",
          "name": "maturity",
          "type": "uint256"
        }
      ],
      "name": "InvalidMaturity",
      "type": "error"
    },
    {
      "inputs": [],
      "name": "InvalidMinDebtUnitPrice",
      "type": "error"
    },
    {
      "inputs": [],
      "name": "InvalidOpeningDate",
      "type": "error"
    },
    {
      "inputs": [],
      "name": "InvalidPreOpeningDate",
      "type": "error"
    },
    {
      "inputs": [],
      "name": "InvalidTimestamp",
      "type": "error"
    },
    {
      "inputs": [],
      "name": "LendingMarketNotInitialized",
      "type": "error"
    },
    {
      "inputs": [
        {
          "internalType": "string",
          "name": "name",
          "type": "string"
        }
      ],
      "name": "MissingAddress",
      "type": "error"
    },
    {
      "inputs": [],
      "name": "NotEnoughOrderBooks",
      "type": "error"
    },
    {
      "inputs": [
        {
          "internalType": "address",
          "name": "tokenAddress",
          "type": "address"
        },
        {
          "internalType": "uint8",
          "name": "decimals",
          "type": "uint8"
        }
      ],
      "name": "TooManyTokenDecimals",
      "type": "error"
    },
    {
      "inputs": [],
      "name": "ZcTokenIsZero",
      "type": "error"
    },
    {
      "anonymous": false,
      "inputs": [
        {
          "indexed": false,
          "internalType": "uint256",
          "name": "timestamp",
          "type": "uint256"
        }
      ],
      "name": "EmergencyTerminationExecuted",
      "type": "event"
    },
    {
      "anonymous": false,
      "inputs": [
        {
          "indexed": true,
          "internalType": "bytes32",
          "name": "ccy",
          "type": "bytes32"
        },
        {
          "indexed": false,
          "internalType": "uint256",
          "name": "genesisDate",
          "type": "uint256"
        },
        {
          "indexed": false,
          "internalType": "uint256",
          "name": "compoundFactor",
          "type": "uint256"
        },
        {
          "indexed": false,
          "internalType": "uint256",
          "name": "orderFeeRate",
          "type": "uint256"
        },
        {
          "indexed": false,
          "internalType": "uint256",
          "name": "circuitBreakerLimitRange",
          "type": "uint256"
        },
        {
          "indexed": false,
          "internalType": "address",
          "name": "lendingMarket",
          "type": "address"
        },
        {
          "indexed": false,
          "internalType": "address",
          "name": "futureValueVault",
          "type": "address"
        }
      ],
      "name": "LendingMarketInitialized",
      "type": "event"
    },
    {
      "anonymous": false,
      "inputs": [
        {
          "indexed": true,
          "internalType": "bytes32",
          "name": "ccy",
          "type": "bytes32"
        },
        {
          "indexed": false,
          "internalType": "uint256",
          "name": "minDebtUnitPrice",
          "type": "uint256"
        }
      ],
      "name": "MinDebtUnitPriceUpdated",
      "type": "event"
    },
    {
      "anonymous": false,
      "inputs": [
        {
          "indexed": true,
          "internalType": "bytes32",
          "name": "ccy",
          "type": "bytes32"
        },
        {
          "indexed": true,
          "internalType": "uint8",
          "name": "orderBookId",
          "type": "uint8"
        },
        {
          "indexed": false,
          "internalType": "uint256",
          "name": "openingDate",
          "type": "uint256"
        },
        {
          "indexed": false,
          "internalType": "uint256",
          "name": "preOpeningDate",
          "type": "uint256"
        },
        {
          "indexed": false,
          "internalType": "uint256",
          "name": "maturity",
          "type": "uint256"
        }
      ],
      "name": "OrderBookCreated",
      "type": "event"
    },
    {
      "anonymous": false,
      "inputs": [
        {
          "indexed": false,
          "internalType": "bytes32",
          "name": "ccy",
          "type": "bytes32"
        },
        {
          "indexed": false,
          "internalType": "uint256",
          "name": "oldMaturity",
          "type": "uint256"
        },
        {
          "indexed": false,
          "internalType": "uint256",
          "name": "newMaturity",
          "type": "uint256"
        }
      ],
      "name": "OrderBooksRotated",
      "type": "event"
    },
    {
      "anonymous": false,
      "inputs": [
        {
          "indexed": true,
          "internalType": "bytes32",
          "name": "ccy",
          "type": "bytes32"
        },
        {
          "indexed": true,
          "internalType": "uint256",
          "name": "maturity",
          "type": "uint256"
        },
        {
          "indexed": false,
          "internalType": "string",
          "name": "name",
          "type": "string"
        },
        {
          "indexed": false,
          "internalType": "string",
          "name": "symbol",
          "type": "string"
        },
        {
          "indexed": false,
          "internalType": "uint8",
          "name": "decimals",
          "type": "uint8"
        },
        {
          "indexed": false,
          "internalType": "address",
          "name": "tokenAddress",
          "type": "address"
        }
      ],
      "name": "ZCTokenCreated",
      "type": "event"
    },
    {
      "inputs": [],
      "name": "COMPOUND_FACTOR_DECIMALS",
      "outputs": [
        {
          "internalType": "uint8",
          "name": "",
          "type": "uint8"
        }
      ],
      "stateMutability": "view",
      "type": "function"
    },
    {
      "inputs": [],
      "name": "OBSERVATION_PERIOD",
      "outputs": [
        {
          "internalType": "uint256",
          "name": "",
          "type": "uint256"
        }
      ],
      "stateMutability": "view",
      "type": "function"
    },
    {
      "inputs": [],
      "name": "PRE_ORDER_BASE_PERIOD",
      "outputs": [
        {
          "internalType": "uint256",
          "name": "",
          "type": "uint256"
        }
      ],
      "stateMutability": "view",
      "type": "function"
    },
    {
      "inputs": [],
      "name": "ZC_TOKEN_BASE_DECIMALS",
      "outputs": [
        {
          "internalType": "uint8",
          "name": "",
          "type": "uint8"
        }
      ],
      "stateMutability": "view",
      "type": "function"
    },
    {
      "inputs": [
        {
          "internalType": "bytes32",
          "name": "_bytes32",
          "type": "bytes32"
        }
      ],
      "name": "bytes32ToString",
      "outputs": [
        {
          "internalType": "string",
          "name": "",
          "type": "string"
        }
      ],
      "stateMutability": "pure",
      "type": "function"
    },
    {
      "inputs": [
        {
          "internalType": "uint256",
          "name": "_timestamp",
          "type": "uint256"
        },
        {
          "internalType": "uint256",
          "name": "_period",
          "type": "uint256"
        }
      ],
      "name": "calculateNextMaturity",
      "outputs": [
        {
          "internalType": "uint256",
          "name": "",
          "type": "uint256"
        }
      ],
      "stateMutability": "pure",
      "type": "function"
    }
  ],
  "bytecode": "0x613efa61003a600b82828239805160001a60731461002d57634e487b7160e01b600052600060045260246000fd5b30600052607381538281f3fe73000000000000000000000000000000000000000030146080604052600436106101155760003560e01c80639201de55116100ac578063b8f117cd1161007b578063b8f117cd1461027d578063ce59203d14610292578063e3a983331461029a578063ea574817146102ba578063f4a0997f146102da57600080fd5b80639201de55146102135780639ca3859814610233578063aa3b5e8314610253578063b4f15c231461025d57600080fd5b80634ebeb049116100e85780634ebeb0491461018557806353571ee7146101a55780636a23a95c146101c557806383c2b5f0146101f357600080fd5b806313821bf71461011a57806317719d9314610136578063420eadb714610150578063428c3a8114610163575b600080fd5b61012361546081565b6040519081526020015b60405180910390f35b61013e601a81565b60405160ff909116815260200161012d565b61012361015e366004612f77565b6102fa565b81801561016f57600080fd5b5061018361017e366004612f99565b610326565b005b81801561019157600080fd5b506101836101a0366004612fb2565b61039f565b8180156101b157600080fd5b506101836101c0366004612f99565b610855565b8180156101d157600080fd5b506101e56101e0366004612f77565b610d90565b60405161012d929190612fde565b8180156101ff57600080fd5b5061018361020e366004612f77565b610fdd565b610226610221366004612f99565b6111a9565b60405161012d91906130a1565b81801561023f57600080fd5b5061018361024e3660046130b4565b6112cb565b61012362093a8081565b81801561026957600080fd5b506101836102783660046130fe565b6114c6565b81801561028957600080fd5b50610183611894565b61013e601281565b8180156102a657600080fd5b506101836102b5366004612f77565b611d02565b8180156102c657600080fd5b506101836102d5366004613137565b611d84565b8180156102e657600080fd5b506101836102f5366004612f99565b612205565b6000816000036103165761030f836007612262565b9050610320565b61030f838361228a565b92915050565b6000610330612334565b60008381526005919091016020526040808220548151631fa5d41d60e11b815291516001600160a01b0390911693508392633f4ba83a926004808201939182900301818387803b15801561038357600080fd5b505af1158015610397573d6000803e3d6000fd5b505050505050565b6103a7612362565b6001600160a01b031663f7b637bb846040518263ffffffff1660e01b81526004016103d491815260200190565b602060405180830381865afa1580156103f1573d6000803e3d6000fd5b505050506040513d601f19601f82011682018060405250810190610415919061317a565b610432576040516381c91e4f60e01b815260040160405180910390fd5b61043a612386565b6001600160a01b0316631eae0893846040518263ffffffff1660e01b815260040161046791815260200190565b602060405180830381865afa158015610484573d6000803e3d6000fd5b505050506040513d601f19601f820116820180604052508101906104a8919061317a565b6104c557604051631eb3268560e31b815260040160405180910390fd5b818111156104e657604051633654cc1160e11b815260040160405180910390fd5b60006104f0612334565b600085815260059190910160205260408120546001600160a01b03169150816338b0585261051c612334565b6000888152600491820160205260409081902090516001600160e01b031960e085901b16815261054c92016137be565b600060405180830381865afa158015610569573d6000803e3d6000fd5b505050506040513d6000823e601f3d908101601f1916820160405261059191908101906138a7565b90506000815160000361061b576105a6612362565b6001600160a01b03166349a1d218876040518263ffffffff1660e01b81526004016105d391815260200190565b602060405180830381865afa1580156105f0573d6000803e3d6000fd5b505050506040513d601f19601f8201168201806040525081019061061491906138dc565b905061065c565b6000826001845161062c919061390b565b8151811061063c5761063c61391e565b6020026020010151905061065881610652612334565b546102fa565b9150505b80851061067c57604051634b36da7b60e01b815260040160405180910390fd5b604051632abae3cb60e11b81526004810182905260248101869052604481018590526000906001600160a01b03851690635575c796906064016020604051808303816000875af11580156106d4573d6000803e3d6000fd5b505050506040513d601f19601f820116820180604052508101906106f89190613934565b9050610702612334565b600088815260049190910160209081526040822080546001810182559083529181902090820401805460ff808516601f9094166101000a938402930219169190911790558061074f612334565b6000898152600a91909101602090815260408083208684529091528120805460ff191660ff93909316929092179091556107876123a6565b6001600160a01b031663b12e4410896040518263ffffffff1660e01b81526004016107b491815260200190565b602060405180830381865afa1580156107d1573d6000803e3d6000fd5b505050506040513d601f19601f820116820180604052508101906107f59190613957565b90506108028884836114c6565b604080518881526020810188905290810184905260ff83169089907f90706ef3bc1bd0ad6605be3bcacf1198a970a27dfcd1790a440fa7e468ad1156906060015b60405180910390a35050505050505050565b600061085f612334565b6000838152600f91909101602090815260408083208380529091529020546001600160a01b0316036108a4576040516316c1d88360e31b815260040160405180910390fd5b6108ac612386565b6001600160a01b0316631eae0893826040518263ffffffff1660e01b81526004016108d991815260200190565b602060405180830381865afa1580156108f6573d6000803e3d6000fd5b505050506040513d601f19601f8201168201806040525081019061091a919061317a565b61093757604051631eb3268560e31b815260040160405180910390fd5b6000610941612334565b600083815260049190910160205260409020805490915060021115610979576040516358fa2af160e01b815260040160405180910390fd5b6000610983612334565b60008481526005919091016020526040808220549051631c582c2960e11b81526001600160a01b03909116925082906338b05852906109c69086906004016137be565b600060405180830381865afa1580156109e3573d6000803e3d6000fd5b505050506040513d6000823e601f3d908101601f19168201604052610a0b91908101906138a7565b9050600083600081548110610a2257610a2261391e565b90600052602060002090602091828204019190069054906101000a900460ff169050600084600181548110610a5957610a5961391e565b90600052602060002090602091828204019190069054906101000a900460ff169050600083600081518110610a9057610a9061391e565b60200260200101519050600084600181518110610aaf57610aaf61391e565b602002602001015190506000610aed8660018851610acd919061390b565b81518110610add57610add61391e565b6020026020010151610652612334565b905060005b8854610b009060019061390b565b811015610b925788610b13826001613974565b81548110610b2357610b2361391e565b90600052602060002090602091828204019190069054906101000a900460ff16898281548110610b5557610b5561391e565b90600052602060002090602091828204019190066101000a81548160ff021916908360ff1602179055508080610b8a90613987565b915050610af2565b5087805480610ba357610ba36139a0565b60008281526020808220600019909301908104909201805460ff601f85166101000a02191690559155610bd98a8585888c6123be565b604051639beff3e360e01b815260ff808916600483015287166024820152604481018290529091506001600160a01b03891690639beff3e390606401600060405180830381600087803b158015610c2f57600080fd5b505af1158015610c43573d6000803e3d6000fd5b50505050610c5b8a8462093a80866101a0919061390b565b610c63612362565b6001600160a01b031663fb8439048b8686858d6001600160a01b031663128e5b856040518163ffffffff1660e01b8152600401602060405180830381865afa158015610cb3573d6000803e3d6000fd5b505050506040513d601f19601f82011682018060405250810190610cd791906138dc565b6040516001600160e01b031960e088901b1681526004810195909552602485019390935260448401919091526064830152608482015260a401600060405180830381600087803b158015610d2a57600080fd5b505af1158015610d3e573d6000803e3d6000fd5b5050604080518d8152602081018890529081018590527f134ffefb84024e6cd2bb0455365b114f82b012f23b0b0cf931045b8020f26ba59250606001905060405180910390a150505050505050505050565b610d98612f3e565b610da0612f3e565b6000610daa612334565b600086815260059190910160205260408120546001600160a01b03169150610dd0612334565b6000878152600a919091016020908152604080832088845290915280822054905163130e60d960e11b815260ff909116600482018190529250819081906001600160a01b0386169063261cc1b290602401610160604051808303816000875af1158015610e41573d6000803e3d6000fd5b505050506040513d601f19601f82011682018060405250810190610e659190613a47565b60408082015190830151929c50909a50939650909450909250610e89836002613a9a565b610e93919061390b565b610e9d919061390b565b610ea5612334565b60008b8152600991909101602090815260408083208c845290915281208054909190610ed2908490613974565b90915550508215801590610f3557508360ff16610eed612334565b60040160008b8152602001908152602001600020600081548110610f1357610f1361391e565b60009182526020918290209181049091015460ff601f9092166101000a900416145b15610fd1576000610f62848a85610f4a612334565b60008f815260089190910160205260409020546125a1565b9050610f6c612362565b60405163a969285f60e01b8152600481018c9052602481018390526001600160a01b03919091169063a969285f90604401600060405180830381600087803b158015610fb757600080fd5b505af1158015610fcb573d6000803e3d6000fd5b50505050505b50505050509250929050565b6000610fe76123a6565b6001600160a01b031663b12e4410846040518263ffffffff1660e01b815260040161101491815260200190565b602060405180830381865afa158015611031573d6000803e3d6000fd5b505050506040513d601f19601f820116820180604052508101906110559190613957565b905081600003611199576000816001600160a01b031663313ce5676040518163ffffffff1660e01b8152600401602060405180830381865afa15801561109f573d6000803e3d6000fd5b505050506040513d601f19601f820116820180604052508101906110c39190613934565b90506110d1601a6012613ab1565b60ff168160ff16111561111057604051635c6e30cd60e11b81526001600160a01b038316600482015260ff821660248201526044015b60405180910390fd5b611118612362565b6001600160a01b03166350863c688583611134601a6012613ab1565b61113e9190613aca565b6040516001600160e01b031960e085901b168152600481019290925260ff166024820152604401600060405180830381600087803b15801561117f57600080fd5b505af1158015611193573d6000803e3d6000fd5b50505050505b6111a48383836114c6565b505050565b606060005b6020811080156111dc57508281602081106111cb576111cb61391e565b1a60f81b6001600160f81b03191615155b156111f357806111eb81613987565b9150506111ae565b60008167ffffffffffffffff81111561120e5761120e6137d1565b6040519080825280601f01601f191660200182016040528015611238576020820181803683370190505b509050600091505b60208210801561126e575083826020811061125d5761125d61391e565b1a60f81b6001600160f81b03191615155b156112c4578382602081106112855761128561391e565b1a60f81b81838151811061129b5761129b61391e565b60200101906001600160f81b031916908160001a905350816112bc81613987565b925050611240565b9392505050565b60006112d5612334565b6000868152600a919091016020908152604080832087845290915290205460ff16905080611301612334565b60040160008781526020019081526020016000206001815481106113275761132761391e565b60009182526020918290209181049091015460ff601f9092166101000a900416036114bf576000611356612334565b600087815260059190910160205260409020546001600160a01b031663a4ff243a61137f612334565b60040160008981526020019081526020016000206000815481106113a5576113a561391e565b60009182526020918290209181049091015460405160e084901b6001600160e01b0319168152601f9092166101000a900460ff166004820152602401602060405180830381865afa1580156113fe573d6000803e3d6000fd5b505050506040513d601f19601f8201168201806040525081019061142291906138dc565b9050804210801561143e575061143a6154608261390b565b4210155b15610397578361144c612334565b6000888152600c919091016020908152604080832089845290915281208054909190611479908490613974565b90915550839050611488612334565b6000888152600c9190910160209081526040808320898452909152812060010180549091906114b8908490613974565b9091555050505b5050505050565b60006114d0612334565b6000858152600f91909101602090815260408083208684529091529020546001600160a01b03161461154857611504612334565b6000848152600f9190910160209081526040808320858452909152908190205490516366d23a4d60e11b81526001600160a01b039091166004820152602401611107565b811580159061157d575061155a612334565b6000848152600a919091016020908152604080832085845290915290205460ff16155b1561159e576040516325bba35960e21b815260048101839052602401611107565b60006115a9846111a9565b90506000816040516020016115be9190613ae3565b60405160208183030381529060405290506000826040516020016115e29190613b0d565b60408051601f19818403018152919052905060006116026002601a613aca565b9050851561173f5760008061161688612615565b509150915060006116268361263b565b600a831061163c576116378361263b565b611665565b6116458361263b565b6040516020016116559190613b38565b6040516020818303038152906040525b604051602001611676929190613b61565b6040516020818303038152906040529050858160405160200161169a929190613b61565b6040516020818303038152906040529550846116b58a6126ce565b6040516020016116c6929190613b9d565b6040516020818303038152906040529450876001600160a01b031663313ce5676040518163ffffffff1660e01b8152600401602060405180830381865afa158015611715573d6000803e3d6000fd5b505050506040513d601f19601f820116820180604052508101906117399190613934565b93505050505b6000611749612886565b6001600160a01b0316637c35befe8486858a8c6040518663ffffffff1660e01b815260040161177c959493929190613bcd565b6020604051808303816000875af115801561179b573d6000803e3d6000fd5b505050506040513d601f19601f820116820180604052508101906117bf9190613957565b9050806117ca612334565b60008a8152600f91909101602090815260408083208b845282529182902080546001600160a01b0319166001600160a01b0394909416939093179092558051808201909152898152908101889052611820612334565b6010016000836001600160a01b03166001600160a01b03168152602001908152602001600020600082015181600001556020820151816001015590505086887f8b541090c3b3f5b687eb529d35c6544769bed00fa888769d775fb8f6c64e37f9858786866040516108439493929190613c1c565b4261189d612334565b6001015560006118ab612386565b6001600160a01b03166361c661de6040518163ffffffff1660e01b8152600401600060405180830381865afa1580156118e8573d6000803e3d6000fd5b505050506040513d6000823e601f3d908101601f191682016040526119109190810190613c66565b9050600061191c6123a6565b6001600160a01b031663d5e190d06040518163ffffffff1660e01b8152600401600060405180830381865afa158015611959573d6000803e3d6000fd5b505050506040513d6000823e601f3d908101601f191682016040526119819190810190613c66565b905060005b8251811015611af75760008382815181106119a3576119a361391e565b6020026020010151905060405180604001604052806119c0612386565b6001600160a01b0316637d11cfda846040518263ffffffff1660e01b81526004016119ed91815260200190565b602060405180830381865afa158015611a0a573d6000803e3d6000fd5b505050506040513d601f19601f82011682018060405250810190611a2e91906138dc565b8152602001611a3b612386565b6001600160a01b03166312105fea846040518263ffffffff1660e01b8152600401611a6891815260200190565b602060405180830381865afa158015611a85573d6000803e3d6000fd5b505050506040513d601f19601f82011682018060405250810190611aa99190613934565b60ff169052611ab6612334565b600092835260020160209081526040909220815181559101516001909101805460ff191660ff90921691909117905580611aef81613987565b915050611986565b5060005b8151811015611cca576000828281518110611b1857611b1861391e565b602002602001015190506000611b2c6123a6565b6001600160a01b031663b12e4410836040518263ffffffff1660e01b8152600401611b5991815260200190565b602060405180830381865afa158015611b76573d6000803e3d6000fd5b505050506040513d601f19601f82011682018060405250810190611b9a9190613957565b90506000816001600160a01b03166370a08231611bb56123a6565b6040516001600160e01b031960e084901b1681526001600160a01b039091166004820152602401602060405180830381865afa158015611bf9573d6000803e3d6000fd5b505050506040513d601f19601f82011682018060405250810190611c1d91906138dc565b9050611c27612386565b604051636ed2f1db60e01b815260048101859052602481018390526001600160a01b039190911690636ed2f1db90604401602060405180830381865afa158015611c75573d6000803e3d6000fd5b505050506040513d601f19601f82011682018060405250810190611c9991906138dc565b611ca1612334565b600094855260030160205260409093209290925550819050611cc281613987565b915050611afb565b506040514281527f5bd5e5214bcf42a851f8883889177591b93dbd526076c7b5e96bd8eed5931a539060200160405180910390a15050565b612710811115611d255760405163a6ffa62b60e01b815260040160405180910390fd5b80611d2e612334565b600701600084815260200190815260200160002081905550817f6525e6746b8e4306bc5600943b820fb3b2562be01561ff4e1a6c5207df3a640282604051611d7891815260200190565b60405180910390a25050565b611d8c612386565b6001600160a01b0316631eae0893876040518263ffffffff1660e01b8152600401611db991815260200190565b602060405180830381865afa158015611dd6573d6000803e3d6000fd5b505050506040513d601f19601f82011682018060405250810190611dfa919061317a565b611e1757604051631eb3268560e31b815260040160405180910390fd5b83600003611e3857604051632feb431160e01b815260040160405180910390fd5b6000611e426123a6565b6001600160a01b031663b12e4410886040518263ffffffff1660e01b8152600401611e6f91815260200190565b602060405180830381865afa158015611e8c573d6000803e3d6000fd5b505050506040513d601f19601f82011682018060405250810190611eb09190613957565b90506000816001600160a01b031663313ce5676040518163ffffffff1660e01b8152600401602060405180830381865afa158015611ef2573d6000803e3d6000fd5b505050506040513d601f19601f82011682018060405250810190611f169190613934565b9050611f24601a6012613ab1565b60ff168160ff161115611f5e57604051635c6e30cd60e11b81526001600160a01b038316600482015260ff82166024820152604401611107565b611f66612362565b6001600160a01b031663a2d7d02d8983611f82601a6012613ab1565b611f8c9190613aca565b89611f998c610652612334565b6040516001600160e01b031960e087901b168152600481019490945260ff909216602484015260448301526064820152608401600060405180830381600087803b158015611fe657600080fd5b505af1158015611ffa573d6000803e3d6000fd5b505050506000612008612886565b604051634672758f60e01b8152600481018b905260248101889052604481018790526001600160a01b039190911690634672758f906064016020604051808303816000875af115801561205f573d6000803e3d6000fd5b505050506040513d601f19601f820116820180604052508101906120839190613957565b9050600061208f612886565b6001600160a01b031663a97c4b536040518163ffffffff1660e01b81526004016020604051808303816000875af11580156120ce573d6000803e3d6000fd5b505050506040513d601f19601f820116820180604052508101906120f29190613957565b9050886120fd612334565b60008c8152600891909101602052604090205581612119612334565b60008c81526005919091016020526040902080546001600160a01b0319166001600160a01b039290921691909117905580612152612334565b60008c81526006919091016020526040902080546001600160a01b0319166001600160a01b039290921691909117905561218c8a86611d02565b6121988a6000866114c6565b604080518a8152602081018a9052908101889052606081018790526001600160a01b038084166080830152821660a08201528a907fe00c92761ad716218582d39142ce84d836cc05a3514de15a8b358b69276d55b89060c00160405180910390a250505050505050505050565b600061220f612334565b60008381526005919091016020526040808220548151638456cb5960e01b815291516001600160a01b0390911693508392638456cb59926004808201939182900301818387803b15801561038357600080fd5b60006122716201518083613a9a565b61227b9084613974565b90508281101561032057600080fd5b600080806122aa6122a5866122a0876001613974565b6128a9565b612615565b509150915060006122bd8383600061297b565b905060006122ca8261299e565b90506000600582600584106122e05760006122e3565b60075b60ff166122f09190613974565b6122fa919061390b565b905061230683826129d2565b9550856000036123295760405163b7d0949760e01b815260040160405180910390fd5b505050505092915050565b60008061032060017f8041b8421ebd495cc61f38c788c9eb100daccf9bd36aa0bb920b7a15b2e0496561390b565b60006123817011d95b995cda5cd5985b1d5955985d5b1d607a1b6129fa565b905090565b60006123817121bab93932b731bca1b7b73a3937b63632b960711b6129fa565b600061238169151bdad95b95985d5b1d60b21b6129fa565b6000806123c9612334565b6000888152600c9190910160209081526040808320888452825291829020825180840190935280548352600101549082018190529091501561242c576124258160200151612710836000015161241f9190613a9a565b90612a5b565b9150612597565b60405162fcc52160e51b815260ff8516600482015260009081906001600160a01b03861690631f98a42090602401600060405180830381865afa158015612477573d6000803e3d6000fd5b505050506040513d6000823e601f3d908101601f1916820160405261249f9190810190613cec565b9150915060006124ad612362565b6001600160a01b031663d637c15f8b6040518263ffffffff1660e01b81526004016124da91815260200190565b60a060405180830381865afa1580156124f7573d6000803e3d6000fd5b505050506040513d601f19601f8201168201806040525081019061251b9190613d3a565b9050826000815181106125305761253061391e565b6020026020010151600014158015612554575080608001518265ffffffffffff1610155b1561258e576125878360008151811061256f5761256f61391e565b6020026020010151898465ffffffffffff168c6125a1565b9450612593565b805194505b5050505b5095945050505050565b6000806125ae848661390b565b905060006125bc848761390b565b90506125c88288613a9a565b816125d58961271061390b565b6125df9190613a9a565b6125e99190613974565b826125f689612710613a9a565b6126009190613a9a565b61260a9190613dc0565b979650505050505050565b6000808061262e6126296201518086613dc0565b612ac5565b9196909550909350915050565b6060600061264883612c39565b600101905060008167ffffffffffffffff811115612668576126686137d1565b6040519080825280601f01601f191660200182016040528015612692576020820181803683370190505b5090508181016020015b600019016f181899199a1a9b1b9c1cb0b131b232b360811b600a86061a8153600a850494508461269c57509392505050565b60606000806126dc84612615565b50604080516101c08101825260036101808201818152622520a760e91b6101a0840152825282518084018452818152622322a160e91b60208281019190915280840191909152835180850185528281526226a0a960e91b8183015283850152835180850185528281526220a82960e91b81830152606084015283518085018552828152624d415960e81b8183015260808401528351808501855282815262252aa760e91b8183015260a0840152835180850185528281526212955360ea1b8183015260c0840152835180850185528281526241554760e81b8183015260e0840152835180850185528281526205345560ec1b81830152610100840152835180850185528281526213d0d560ea1b8183015261012084015283518085018552828152622727ab60e91b8183015261014084015283518085019094529083526244454360e81b9083015261016081019190915291935091508061283e60018461390b565b600c811061284e5761284e61391e565b602002015161285c8461263b565b60405160200161286d929190613dd4565b6040516020818303038152906040529350505050919050565b6000612381742132b0b1b7b7283937bc3ca1b7b73a3937b63632b960591b6129fa565b60008080806128be6126296201518088613dc0565b919450925090506128cf8583613974565b9150600c6128de60018461390b565b6128e89190613dc0565b6128f29084613974565b9250600c61290160018461390b565b61290b9190613e03565b612916906001613974565b915060006129248484612d11565b905080821115612932578091505b61293f6201518088613e03565b6201518061294e868686612d97565b6129589190613a9a565b6129629190613974565b94508685101561297157600080fd5b5050505092915050565b60006201518061298c858585612d97565b6129969190613a9a565b949350505050565b6000806129ae6201518084613dc0565b905060076129bd826003613974565b6129c79190613e03565b6112c4906001613974565b60006129e16201518083613a9a565b6129eb908461390b565b90508281111561032057600080fd5b600080612a05612ed4565b600084815260019190910160205260409020546001600160a01b03169050806103205760408051602081018590520160408051601f19818403018152908290526346e2ec9360e01b8252611107916004016130a1565b6000808211612a6957600080fd5b6005612a758385613dc0565b612a8090600a613a9a565b83612a8c86600a613a9a565b612a969190613dc0565b612aa0919061390b565b1015612ab05761030f8284613dc0565b612aba8284613dc0565b61030f906001613974565b60008080838162253d8c612adc8362010bd9613e17565b612ae69190613e17565b9050600062023ab1612af9836004613e3f565b612b039190613e6f565b90506004612b148262023ab1613e3f565b612b1f906003613e17565b612b299190613e6f565b612b339083613e9d565b9150600062164b09612b46846001613e17565b612b5290610fa0613e3f565b612b5c9190613e6f565b90506004612b6c826105b5613e3f565b612b769190613e6f565b612b809084613e9d565b612b8b90601f613e17565b9250600061098f612b9d856050613e3f565b612ba79190613e6f565b905060006050612bb98361098f613e3f565b612bc39190613e6f565b612bcd9086613e9d565b9050612bda600b83613e6f565b9450612be785600c613e3f565b612bf2836002613e17565b612bfc9190613e9d565b91508483612c0b603187613e9d565b612c16906064613e3f565b612c209190613e17565b612c2a9190613e17565b9a919950975095505050505050565b60008072184f03e93ff9f4daa797ed6e38ed64bf6a1f0160401b8310612c785772184f03e93ff9f4daa797ed6e38ed64bf6a1f0160401b830492506040015b6d04ee2d6d415b85acef81000000008310612ca4576d04ee2d6d415b85acef8100000000830492506020015b662386f26fc100008310612cc257662386f26fc10000830492506010015b6305f5e1008310612cda576305f5e100830492506008015b6127108310612cee57612710830492506004015b60648310612d00576064830492506002015b600a83106103205760010192915050565b60008160011480612d225750816003145b80612d2d5750816005145b80612d385750816007145b80612d435750816008145b80612d4e575081600a145b80612d59575081600c145b15612d665750601f610320565b81600214612d765750601e610320565b612d7f83612f02565b612d8a57601c612d8d565b601d5b60ff169392505050565b60006107b2841015612da857600080fd5b838383600062253d8c60046064600c612dc2600e88613e9d565b612dcc9190613e6f565b612dd888611324613e17565b612de29190613e17565b612dec9190613e6f565b612df7906003613e3f565b612e019190613e6f565b600c80612e0f600e88613e9d565b612e199190613e6f565b612e2490600c613e3f565b612e2f600288613e9d565b612e399190613e9d565b612e459061016f613e3f565b612e4f9190613e6f565b6004600c612e5e600e89613e9d565b612e689190613e6f565b612e74896112c0613e17565b612e7e9190613e17565b612e8a906105b5613e3f565b612e949190613e6f565b612ea0617d4b87613e9d565b612eaa9190613e17565b612eb49190613e17565b612ebe9190613e9d565b612ec89190613e9d565b98975050505050505050565b60008061032060017f4abde63c3e81aefa5764b017968bc473e83e093d7e1a10247d19e0a3e412401861390b565b6000612f0f600483613e03565b158015612f255750612f22606483613e03565b15155b806103205750612f3761019083613e03565b1592915050565b6040518060800160405280600065ffffffffffff16815260200160006001600160a01b0316815260200160008152602001600081525090565b60008060408385031215612f8a57600080fd5b50508035926020909101359150565b600060208284031215612fab57600080fd5b5035919050565b600080600060608486031215612fc757600080fd5b505081359360208301359350604090920135919050565b825165ffffffffffff1681526020808401516001600160a01b03169082015260408084015190820152606080840151908201526101008101825165ffffffffffff16608083015260208301516001600160a01b031660a0830152604083015160c0830152606083015160e08301526112c4565b60005b8381101561306c578181015183820152602001613054565b50506000910152565b6000815180845261308d816020860160208601613051565b601f01601f19169290920160200192915050565b6020815260006112c46020830184613075565b600080600080608085870312156130ca57600080fd5b5050823594602084013594506040840135936060013592509050565b6001600160a01b03811681146130fb57600080fd5b50565b60008060006060848603121561311357600080fd5b8335925060208401359150604084013561312c816130e6565b809150509250925092565b60008060008060008060c0878903121561315057600080fd5b505084359660208601359650604086013595606081013595506080810135945060a0013592509050565b60006020828403121561318c57600080fd5b815180151581146112c457600080fd5b805480835260008281526020808220940193909190825b82601f8201101561343a57815460ff808216885260206131dc818a01838560081c1660ff169052565b60406131f1818b01848660101c1660ff169052565b6060613206818c01858760181c1660ff169052565b608061321a818d018688871c1660ff169052565b60a09350613231848d01868860281c1660ff169052565b60c0613246818e01878960301c1660ff169052565b60e061325b818f01888a60381c1660ff169052565b60ff88861c8816166101008f015261327e6101208f01888a60481c1660ff169052565b6132936101408f01888a60501c1660ff169052565b6132a86101608f01888a60581c1660ff169052565b60ff88851c8816166101808f01526132cb6101a08f01888a60681c1660ff169052565b6132e06101c08f01888a60701c1660ff169052565b6132f56101e08f01888a60781c1660ff169052565b60ff88841c8816166102008f01526133186102208f01888a60881c1660ff169052565b61332d6102408f01888a60901c1660ff169052565b6133426102608f01888a60981c1660ff169052565b60ff88871c8816166102808f01526133656102a08f01888a60a81c1660ff169052565b61337a6102c08f01888a60b01c1660ff169052565b61338f6102e08f01888a60b81c1660ff169052565b60ff88831c8816166103008f01526133b26103208f01888a60c81c1660ff169052565b6133c76103408f01888a60d01c1660ff169052565b6133dc6103608f01888a60d81c1660ff169052565b60ff88821c8816166103808f01525050505050506134056103a08901828460e81c1660ff169052565b61341a6103c08901828460f01c1660ff169052565b5060f81c6103e087015261040090950194600191909101906020016131b3565b905490828110156134555760ff821686526020909501946001015b828110156134715760ff600883901c1686526020909501946001015b8281101561348d5760ff601083901c1686526020909501946001015b828110156134a95760ff601883901c1686526020909501946001015b828110156134c657602082901c60ff168652602095909501946001015b828110156134e25760ff602883901c1686526020909501946001015b828110156134fe5760ff603083901c1686526020909501946001015b8281101561351a5760ff603883901c1686526020909501946001015b828110156135365760ff604083901c1686526020909501946001015b828110156135525760ff604883901c1686526020909501946001015b8281101561356e5760ff605083901c1686526020909501946001015b8281101561358a5760ff605883901c1686526020909501946001015b828110156135a65760ff606083901c1686526020909501946001015b828110156135c25760ff606883901c1686526020909501946001015b828110156135de5760ff607083901c1686526020909501946001015b828110156135fa5760ff607883901c1686526020909501946001015b828110156136165760ff608083901c1686526020909501946001015b828110156136325760ff608883901c1686526020909501946001015b8281101561364e5760ff609083901c1686526020909501946001015b8281101561366a5760ff609883901c1686526020909501946001015b828110156136865760ff60a083901c1686526020909501946001015b828110156136a25760ff60a883901c1686526020909501946001015b828110156136be5760ff60b083901c1686526020909501946001015b828110156136da5760ff60b883901c1686526020909501946001015b828110156136f65760ff60c083901c1686526020909501946001015b828110156137125760ff60c883901c1686526020909501946001015b8281101561372e5760ff60d083901c1686526020909501946001015b8281101561374a5760ff60d883901c1686526020909501946001015b828110156137665760ff60e083901c1686526020909501946001015b828110156137825760ff60e883901c1686526020909501946001015b8281101561379e5760ff60f083901c1686526020909501946001015b828110156137b45760f882901c86526020860195505b5093949350505050565b6020815260006112c4602083018461319c565b634e487b7160e01b600052604160045260246000fd5b604051601f8201601f1916810167ffffffffffffffff81118282101715613810576138106137d1565b604052919050565b600067ffffffffffffffff821115613832576138326137d1565b5060051b60200190565b600082601f83011261384d57600080fd5b8151602061386261385d83613818565b6137e7565b82815260059290921b8401810191818101908684111561388157600080fd5b8286015b8481101561389c5780518352918301918301613885565b509695505050505050565b6000602082840312156138b957600080fd5b815167ffffffffffffffff8111156138d057600080fd5b6129968482850161383c565b6000602082840312156138ee57600080fd5b5051919050565b634e487b7160e01b600052601160045260246000fd5b81810381811115610320576103206138f5565b634e487b7160e01b600052603260045260246000fd5b60006020828403121561394657600080fd5b815160ff811681146112c457600080fd5b60006020828403121561396957600080fd5b81516112c4816130e6565b80820180821115610320576103206138f5565b600060018201613999576139996138f5565b5060010190565b634e487b7160e01b600052603160045260246000fd5b805165ffffffffffff811681146139cc57600080fd5b919050565b6000608082840312156139e357600080fd5b6040516080810181811067ffffffffffffffff82111715613a0657613a066137d1565b604052905080613a15836139b6565b81526020830151613a25816130e6565b8060208301525060408301516040820152606083015160608201525092915050565b60008060008060006101608688031215613a6057600080fd5b855194506020860151935060408601519250613a7f87606088016139d1565b9150613a8e8760e088016139d1565b90509295509295909350565b8082028115828204841417610320576103206138f5565b60ff8181168382160190811115610320576103206138f5565b60ff8281168282160390811115610320576103206138f5565b617a6360f01b815260008251613b00816002850160208701613051565b9190910160020192915050565b6202d21960ed1b815260008251613b2b816003850160208701613051565b9190910160030192915050565b600360fc1b815260008251613b54816001850160208701613051565b9190910160010192915050565b60008351613b73818460208801613051565b602d60f81b9083019081528351613b91816001840160208801613051565b01600101949350505050565b60008351613baf818460208801613051565b600160fd1b9083019081528351613b91816001840160208801613051565b60a081526000613be060a0830188613075565b8281036020840152613bf28188613075565b60ff96909616604084015250506001600160a01b0392909216606083015260809091015292915050565b608081526000613c2f6080830187613075565b8281036020840152613c418187613075565b60ff95909516604084015250506001600160a01b039190911660609091015292915050565b60006020808385031215613c7957600080fd5b825167ffffffffffffffff811115613c9057600080fd5b8301601f81018513613ca157600080fd5b8051613caf61385d82613818565b81815260059190911b82018301908381019087831115613cce57600080fd5b928401925b8284101561260a57835182529284019290840190613cd3565b60008060408385031215613cff57600080fd5b825167ffffffffffffffff811115613d1657600080fd5b613d228582860161383c565b925050613d31602084016139b6565b90509250929050565b600060a08284031215613d4c57600080fd5b60405160a0810181811067ffffffffffffffff82111715613d6f57613d6f6137d1565b806040525082518152602083015160208201526040830151604082015260608301516060820152608083015160808201528091505092915050565b634e487b7160e01b600052601260045260246000fd5b600082613dcf57613dcf613daa565b500490565b60008351613de6818460208801613051565b835190830190613dfa818360208801613051565b01949350505050565b600082613e1257613e12613daa565b500690565b8082018281126000831280158216821582161715613e3757613e376138f5565b505092915050565b80820260008212600160ff1b84141615613e5b57613e5b6138f5565b8181058314821517610320576103206138f5565b600082613e7e57613e7e613daa565b600160ff1b821460001984141615613e9857613e986138f5565b500590565b8181036000831280158383131683831282161715613ebd57613ebd6138f5565b509291505056fea2646970667358221220782620a1213ad74bd56fac14f68585899e4be13dc0b384729ff559d5f816933864736f6c63430008130033",
  "linkReferences": {},
  "deployedLinkReferences": {}
}