{
  "_format": "hh-sol-artifact-1",
  "contractName": "TokenVault",
  "sourceName": "contracts/protocol/TokenVault.sol",
  "abi": [
    {
      "inputs": [],
      "name": "AmountIsZero",
      "type": "error"
    },
    {
      "inputs": [
        {
          "internalType": "address",
          "name": "caller",
          "type": "address"
        }
      ],
      "name": "CallerNotBaseCurrency",
      "type": "error"
    },
    {
      "inputs": [],
      "name": "CallerNotOperator",
      "type": "error"
    },
    {
      "inputs": [
        {
          "internalType": "bytes32",
          "name": "ccy",
          "type": "bytes32"
        },
        {
          "internalType": "uint256",
          "name": "amount",
          "type": "uint256"
        },
        {
          "internalType": "uint256",
          "name": "msgValue",
          "type": "uint256"
        }
      ],
      "name": "InvalidAmount",
      "type": "error"
    },
    {
      "inputs": [],
      "name": "InvalidCurrency",
      "type": "error"
    },
    {
      "inputs": [],
      "name": "InvalidFullLiquidationThresholdRate",
      "type": "error"
    },
    {
      "inputs": [],
      "name": "InvalidLiquidationProtocolFeeRate",
      "type": "error"
    },
    {
      "inputs": [],
      "name": "InvalidLiquidationThresholdRate",
      "type": "error"
    },
    {
      "inputs": [],
      "name": "InvalidLiquidatorFeeRate",
      "type": "error"
    },
    {
      "inputs": [],
      "name": "InvalidToken",
      "type": "error"
    },
    {
      "inputs": [],
      "name": "MarketTerminated",
      "type": "error"
    },
    {
      "inputs": [
        {
          "internalType": "string",
          "name": "name",
          "type": "string"
        }
      ],
      "name": "MissingAddress",
      "type": "error"
    },
    {
      "inputs": [
        {
          "internalType": "bytes32",
          "name": "role",
          "type": "bytes32"
        },
        {
          "internalType": "address",
          "name": "account",
          "type": "address"
        }
      ],
      "name": "NotAllowedAccess",
      "type": "error"
    },
    {
      "inputs": [
        {
          "internalType": "string",
          "name": "name",
          "type": "string"
        }
      ],
      "name": "OnlyAcceptedContract",
      "type": "error"
    },
    {
      "inputs": [],
      "name": "RedemptionIsRequired",
      "type": "error"
    },
    {
      "inputs": [],
      "name": "ResolverAlreadyRegistered",
      "type": "error"
    },
    {
      "inputs": [],
      "name": "UnregisteredCurrency",
      "type": "error"
    },
    {
      "anonymous": false,
      "inputs": [
        {
          "indexed": false,
          "internalType": "bytes32",
          "name": "name",
          "type": "bytes32"
        },
        {
          "indexed": false,
          "internalType": "address",
          "name": "destination",
          "type": "address"
        }
      ],
      "name": "CacheUpdated",
      "type": "event"
    },
    {
      "anonymous": false,
      "inputs": [
        {
          "indexed": false,
          "internalType": "bytes32",
          "name": "ccy",
          "type": "bytes32"
        },
        {
          "indexed": false,
          "internalType": "address",
          "name": "tokenAddress",
          "type": "address"
        },
        {
          "indexed": false,
          "internalType": "bool",
          "name": "isCollateral",
          "type": "bool"
        }
      ],
      "name": "CurrencyRegistered",
      "type": "event"
    },
    {
      "anonymous": false,
      "inputs": [
        {
          "indexed": false,
          "internalType": "bytes32",
          "name": "ccy",
          "type": "bytes32"
        },
        {
          "indexed": false,
          "internalType": "bool",
          "name": "isCollateral",
          "type": "bool"
        }
      ],
      "name": "CurrencyUpdated",
      "type": "event"
    },
    {
      "anonymous": false,
      "inputs": [
        {
          "indexed": true,
          "internalType": "address",
          "name": "user",
          "type": "address"
        },
        {
          "indexed": false,
          "internalType": "bytes32",
          "name": "ccy",
          "type": "bytes32"
        },
        {
          "indexed": false,
          "internalType": "uint256",
          "name": "amount",
          "type": "uint256"
        },
        {
          "indexed": false,
          "internalType": "address",
          "name": "caller",
          "type": "address"
        }
      ],
      "name": "Deposit",
      "type": "event"
    },
    {
      "anonymous": false,
      "inputs": [
        {
          "indexed": false,
          "internalType": "uint256",
          "name": "previousRate",
          "type": "uint256"
        },
        {
          "indexed": false,
          "internalType": "uint256",
          "name": "ratio",
          "type": "uint256"
        }
      ],
      "name": "FullLiquidationThresholdRateUpdated",
      "type": "event"
    },
    {
      "anonymous": false,
      "inputs": [
        {
          "indexed": false,
          "internalType": "uint8",
          "name": "version",
          "type": "uint8"
        }
      ],
      "name": "Initialized",
      "type": "event"
    },
    {
      "anonymous": false,
      "inputs": [
        {
          "indexed": false,
          "internalType": "uint256",
          "name": "previousRate",
          "type": "uint256"
        },
        {
          "indexed": false,
          "internalType": "uint256",
          "name": "ratio",
          "type": "uint256"
        }
      ],
      "name": "LiquidationProtocolFeeRateUpdated",
      "type": "event"
    },
    {
      "anonymous": false,
      "inputs": [
        {
          "indexed": false,
          "internalType": "uint256",
          "name": "previousRate",
          "type": "uint256"
        },
        {
          "indexed": false,
          "internalType": "uint256",
          "name": "ratio",
          "type": "uint256"
        }
      ],
      "name": "LiquidationThresholdRateUpdated",
      "type": "event"
    },
    {
      "anonymous": false,
      "inputs": [
        {
          "indexed": false,
          "internalType": "uint256",
          "name": "previousRate",
          "type": "uint256"
        },
        {
          "indexed": false,
          "internalType": "uint256",
          "name": "ratio",
          "type": "uint256"
        }
      ],
      "name": "LiquidatorFeeRateUpdated",
      "type": "event"
    },
    {
      "anonymous": false,
      "inputs": [
        {
          "indexed": true,
          "internalType": "address",
          "name": "previousOwner",
          "type": "address"
        },
        {
          "indexed": true,
          "internalType": "address",
          "name": "newOwner",
          "type": "address"
        }
      ],
      "name": "OwnershipTransferred",
      "type": "event"
    },
    {
      "anonymous": false,
      "inputs": [
        {
          "indexed": false,
          "internalType": "address",
          "name": "account",
          "type": "address"
        }
      ],
      "name": "Paused",
      "type": "event"
    },
    {
      "anonymous": false,
      "inputs": [
        {
          "indexed": true,
          "internalType": "bytes32",
          "name": "role",
          "type": "bytes32"
        },
        {
          "indexed": true,
          "internalType": "bytes32",
          "name": "previousAdminRole",
          "type": "bytes32"
        },
        {
          "indexed": true,
          "internalType": "bytes32",
          "name": "newAdminRole",
          "type": "bytes32"
        }
      ],
      "name": "RoleAdminChanged",
      "type": "event"
    },
    {
      "anonymous": false,
      "inputs": [
        {
          "indexed": true,
          "internalType": "bytes32",
          "name": "role",
          "type": "bytes32"
        },
        {
          "indexed": true,
          "internalType": "address",
          "name": "account",
          "type": "address"
        },
        {
          "indexed": true,
          "internalType": "address",
          "name": "sender",
          "type": "address"
        }
      ],
      "name": "RoleGranted",
      "type": "event"
    },
    {
      "anonymous": false,
      "inputs": [
        {
          "indexed": true,
          "internalType": "bytes32",
          "name": "role",
          "type": "bytes32"
        },
        {
          "indexed": true,
          "internalType": "address",
          "name": "account",
          "type": "address"
        },
        {
          "indexed": true,
          "internalType": "address",
          "name": "sender",
          "type": "address"
        }
      ],
      "name": "RoleRevoked",
      "type": "event"
    },
    {
      "anonymous": false,
      "inputs": [
        {
          "indexed": true,
          "internalType": "bytes32",
          "name": "ccy",
          "type": "bytes32"
        },
        {
          "indexed": true,
          "internalType": "address",
          "name": "from",
          "type": "address"
        },
        {
          "indexed": true,
          "internalType": "address",
          "name": "to",
          "type": "address"
        },
        {
          "indexed": false,
          "internalType": "uint256",
          "name": "amount",
          "type": "uint256"
        }
      ],
      "name": "Transfer",
      "type": "event"
    },
    {
      "anonymous": false,
      "inputs": [
        {
          "indexed": false,
          "internalType": "address",
          "name": "account",
          "type": "address"
        }
      ],
      "name": "Unpaused",
      "type": "event"
    },
    {
      "anonymous": false,
      "inputs": [
        {
          "indexed": true,
          "internalType": "address",
          "name": "user",
          "type": "address"
        },
        {
          "indexed": false,
          "internalType": "bytes32",
          "name": "ccy",
          "type": "bytes32"
        },
        {
          "indexed": false,
          "internalType": "uint256",
          "name": "amount",
          "type": "uint256"
        }
      ],
      "name": "Withdraw",
      "type": "event"
    },
    {
      "inputs": [],
      "name": "DEFAULT_ADMIN_ROLE",
      "outputs": [
        {
          "internalType": "bytes32",
          "name": "",
          "type": "bytes32"
        }
      ],
      "stateMutability": "view",
      "type": "function"
    },
    {
      "inputs": [],
      "name": "OPERATOR_ROLE",
      "outputs": [
        {
          "internalType": "bytes32",
          "name": "",
          "type": "bytes32"
        }
      ],
      "stateMutability": "view",
      "type": "function"
    },
    {
      "inputs": [
        {
          "internalType": "address",
          "name": "_user",
          "type": "address"
        },
        {
          "internalType": "bytes32",
          "name": "_ccy",
          "type": "bytes32"
        },
        {
          "internalType": "uint256",
          "name": "_amount",
          "type": "uint256"
        }
      ],
      "name": "addDepositAmount",
      "outputs": [],
      "stateMutability": "nonpayable",
      "type": "function"
    },
    {
      "inputs": [
        {
          "internalType": "address",
          "name": "admin",
          "type": "address"
        }
      ],
      "name": "addOperator",
      "outputs": [],
      "stateMutability": "nonpayable",
      "type": "function"
    },
    {
      "inputs": [],
      "name": "buildCache",
      "outputs": [],
      "stateMutability": "nonpayable",
      "type": "function"
    },
    {
      "inputs": [
        {
          "internalType": "address",
          "name": "_user",
          "type": "address"
        },
        {
          "components": [
            {
              "internalType": "bytes32",
              "name": "ccy",
              "type": "bytes32"
            },
            {
              "internalType": "uint256",
              "name": "workingLendOrdersAmount",
              "type": "uint256"
            },
            {
              "internalType": "uint256",
              "name": "claimableAmount",
              "type": "uint256"
            },
            {
              "internalType": "uint256",
              "name": "workingBorrowOrdersAmount",
              "type": "uint256"
            },
            {
              "internalType": "uint256",
              "name": "debtAmount",
              "type": "uint256"
            },
            {
              "internalType": "uint256",
              "name": "lentAmount",
              "type": "uint256"
            },
            {
              "internalType": "uint256",
              "name": "borrowedAmount",
              "type": "uint256"
            }
          ],
          "internalType": "struct ILendingMarketController.AdditionalFunds",
          "name": "_additionalFunds",
          "type": "tuple"
        }
      ],
      "name": "calculateCoverage",
      "outputs": [
        {
          "internalType": "uint256",
          "name": "coverage",
          "type": "uint256"
        },
        {
          "internalType": "bool",
          "name": "isInsufficientDepositAmount",
          "type": "bool"
        }
      ],
      "stateMutability": "view",
      "type": "function"
    },
    {
      "inputs": [
        {
          "internalType": "uint256",
          "name": "_amount",
          "type": "uint256"
        }
      ],
      "name": "calculateLiquidationFees",
      "outputs": [
        {
          "internalType": "uint256",
          "name": "protocolFee",
          "type": "uint256"
        },
        {
          "internalType": "uint256",
          "name": "liquidatorFee",
          "type": "uint256"
        }
      ],
      "stateMutability": "view",
      "type": "function"
    },
    {
      "inputs": [
        {
          "internalType": "address",
          "name": "_user",
          "type": "address"
        },
        {
          "internalType": "bytes32",
          "name": "_ccy",
          "type": "bytes32"
        }
      ],
      "name": "cleanUpUsedCurrencies",
      "outputs": [],
      "stateMutability": "nonpayable",
      "type": "function"
    },
    {
      "inputs": [
        {
          "internalType": "bytes32",
          "name": "_ccy",
          "type": "bytes32"
        },
        {
          "internalType": "uint256",
          "name": "_amount",
          "type": "uint256"
        }
      ],
      "name": "deposit",
      "outputs": [],
      "stateMutability": "payable",
      "type": "function"
    },
    {
      "inputs": [
        {
          "internalType": "address",
          "name": "_from",
          "type": "address"
        },
        {
          "internalType": "bytes32",
          "name": "_ccy",
          "type": "bytes32"
        },
        {
          "internalType": "uint256",
          "name": "_amount",
          "type": "uint256"
        }
      ],
      "name": "depositFrom",
      "outputs": [],
      "stateMutability": "payable",
      "type": "function"
    },
    {
      "inputs": [
        {
          "internalType": "bytes32",
          "name": "_ccy",
          "type": "bytes32"
        },
        {
          "internalType": "uint256",
          "name": "_amount",
          "type": "uint256"
        },
        {
          "internalType": "address",
          "name": "_onBehalfOf",
          "type": "address"
        }
      ],
      "name": "depositTo",
      "outputs": [],
      "stateMutability": "payable",
      "type": "function"
    },
    {
      "inputs": [
        {
          "internalType": "address",
          "name": "_from",
          "type": "address"
        },
        {
          "internalType": "bytes32",
          "name": "_ccy",
          "type": "bytes32"
        },
        {
          "internalType": "uint256",
          "name": "_amount",
          "type": "uint256"
        },
        {
          "internalType": "uint256",
          "name": "_deadline",
          "type": "uint256"
        },
        {
          "internalType": "uint8",
          "name": "_permitV",
          "type": "uint8"
        },
        {
          "internalType": "bytes32",
          "name": "_permitR",
          "type": "bytes32"
        },
        {
          "internalType": "bytes32",
          "name": "_permitS",
          "type": "bytes32"
        }
      ],
      "name": "depositWithPermitFrom",
      "outputs": [],
      "stateMutability": "nonpayable",
      "type": "function"
    },
    {
      "inputs": [
        {
          "internalType": "bytes32",
          "name": "_ccy",
          "type": "bytes32"
        },
        {
          "internalType": "uint256",
          "name": "_amount",
          "type": "uint256"
        },
        {
          "internalType": "address",
          "name": "_onBehalfOf",
          "type": "address"
        },
        {
          "internalType": "uint256",
          "name": "_deadline",
          "type": "uint256"
        },
        {
          "internalType": "uint8",
          "name": "_permitV",
          "type": "uint8"
        },
        {
          "internalType": "bytes32",
          "name": "_permitR",
          "type": "bytes32"
        },
        {
          "internalType": "bytes32",
          "name": "_permitS",
          "type": "bytes32"
        }
      ],
      "name": "depositWithPermitTo",
      "outputs": [],
      "stateMutability": "nonpayable",
      "type": "function"
    },
    {
      "inputs": [
        {
          "internalType": "address",
          "name": "_user",
          "type": "address"
        },
        {
          "internalType": "bytes32",
          "name": "_ccy",
          "type": "bytes32"
        }
      ],
      "name": "executeForcedReset",
      "outputs": [
        {
          "internalType": "uint256",
          "name": "",
          "type": "uint256"
        }
      ],
      "stateMutability": "nonpayable",
      "type": "function"
    },
    {
      "inputs": [
        {
          "internalType": "address",
          "name": "_user",
          "type": "address"
        },
        {
          "internalType": "bytes32",
          "name": "_ccy",
          "type": "bytes32"
        }
      ],
      "name": "getBorrowableAmount",
      "outputs": [
        {
          "internalType": "uint256",
          "name": "",
          "type": "uint256"
        }
      ],
      "stateMutability": "view",
      "type": "function"
    },
    {
      "inputs": [
        {
          "internalType": "address",
          "name": "_user",
          "type": "address"
        },
        {
          "internalType": "bytes32",
          "name": "_ccy",
          "type": "bytes32"
        }
      ],
      "name": "getCollateralAmount",
      "outputs": [
        {
          "internalType": "uint256",
          "name": "amount",
          "type": "uint256"
        }
      ],
      "stateMutability": "view",
      "type": "function"
    },
    {
      "inputs": [],
      "name": "getCollateralCurrencies",
      "outputs": [
        {
          "internalType": "bytes32[]",
          "name": "",
          "type": "bytes32[]"
        }
      ],
      "stateMutability": "view",
      "type": "function"
    },
    {
      "inputs": [
        {
          "internalType": "address",
          "name": "_user",
          "type": "address"
        }
      ],
      "name": "getCollateralDetail",
      "outputs": [
        {
          "internalType": "uint256",
          "name": "totalCollateral",
          "type": "uint256"
        },
        {
          "internalType": "uint256",
          "name": "totalUsedCollateral",
          "type": "uint256"
        },
        {
          "internalType": "uint256",
          "name": "totalDeposit",
          "type": "uint256"
        }
      ],
      "stateMutability": "view",
      "type": "function"
    },
    {
      "inputs": [
        {
          "internalType": "address",
          "name": "_user",
          "type": "address"
        }
      ],
      "name": "getCoverage",
      "outputs": [
        {
          "internalType": "uint256",
          "name": "",
          "type": "uint256"
        }
      ],
      "stateMutability": "view",
      "type": "function"
    },
    {
      "inputs": [
        {
          "internalType": "address",
          "name": "_user",
          "type": "address"
        },
        {
          "internalType": "bytes32",
          "name": "_ccy",
          "type": "bytes32"
        }
      ],
      "name": "getDepositAmount",
      "outputs": [
        {
          "internalType": "uint256",
          "name": "",
          "type": "uint256"
        }
      ],
      "stateMutability": "view",
      "type": "function"
    },
    {
      "inputs": [
        {
          "internalType": "address",
          "name": "_user",
          "type": "address"
        },
        {
          "internalType": "bytes32",
          "name": "_liquidationCcy",
          "type": "bytes32"
        },
        {
          "internalType": "uint256",
          "name": "_liquidationAmountMaximum",
          "type": "uint256"
        }
      ],
      "name": "getLiquidationAmount",
      "outputs": [
        {
          "internalType": "uint256",
          "name": "liquidationAmount",
          "type": "uint256"
        },
        {
          "internalType": "uint256",
          "name": "protocolFee",
          "type": "uint256"
        },
        {
          "internalType": "uint256",
          "name": "liquidatorFee",
          "type": "uint256"
        }
      ],
      "stateMutability": "view",
      "type": "function"
    },
    {
      "inputs": [],
      "name": "getLiquidationConfiguration",
      "outputs": [
        {
          "internalType": "uint256",
          "name": "liquidationThresholdRate",
          "type": "uint256"
        },
        {
          "internalType": "uint256",
          "name": "fullLiquidationThresholdRate",
          "type": "uint256"
        },
        {
          "internalType": "uint256",
          "name": "liquidationProtocolFeeRate",
          "type": "uint256"
        },
        {
          "internalType": "uint256",
          "name": "liquidatorFeeRate",
          "type": "uint256"
        }
      ],
      "stateMutability": "view",
      "type": "function"
    },
    {
      "inputs": [],
      "name": "getLiquidationThresholdRate",
      "outputs": [
        {
          "internalType": "uint256",
          "name": "rate",
          "type": "uint256"
        }
      ],
      "stateMutability": "view",
      "type": "function"
    },
    {
      "inputs": [],
      "name": "getRevision",
      "outputs": [
        {
          "internalType": "uint256",
          "name": "",
          "type": "uint256"
        }
      ],
      "stateMutability": "pure",
      "type": "function"
    },
    {
      "inputs": [
        {
          "internalType": "bytes32",
          "name": "role",
          "type": "bytes32"
        }
      ],
      "name": "getRoleAdmin",
      "outputs": [
        {
          "internalType": "bytes32",
          "name": "",
          "type": "bytes32"
        }
      ],
      "stateMutability": "view",
      "type": "function"
    },
    {
      "inputs": [
        {
          "internalType": "bytes32",
          "name": "_ccy",
          "type": "bytes32"
        }
      ],
      "name": "getTokenAddress",
      "outputs": [
        {
          "internalType": "address",
          "name": "",
          "type": "address"
        }
      ],
      "stateMutability": "view",
      "type": "function"
    },
    {
      "inputs": [
        {
          "internalType": "address",
          "name": "_user",
          "type": "address"
        }
      ],
      "name": "getTotalCollateralAmount",
      "outputs": [
        {
          "internalType": "uint256",
          "name": "totalCollateralAmount",
          "type": "uint256"
        }
      ],
      "stateMutability": "view",
      "type": "function"
    },
    {
      "inputs": [
        {
          "internalType": "bytes32",
          "name": "_ccy",
          "type": "bytes32"
        }
      ],
      "name": "getTotalDepositAmount",
      "outputs": [
        {
          "internalType": "uint256",
          "name": "",
          "type": "uint256"
        }
      ],
      "stateMutability": "view",
      "type": "function"
    },
    {
      "inputs": [
        {
          "internalType": "address",
          "name": "_user",
          "type": "address"
        }
      ],
      "name": "getTotalUnusedCollateralAmount",
      "outputs": [
        {
          "internalType": "uint256",
          "name": "",
          "type": "uint256"
        }
      ],
      "stateMutability": "view",
      "type": "function"
    },
    {
      "inputs": [
        {
          "internalType": "address",
          "name": "_user",
          "type": "address"
        }
      ],
      "name": "getUsedCurrencies",
      "outputs": [
        {
          "internalType": "bytes32[]",
          "name": "",
          "type": "bytes32[]"
        }
      ],
      "stateMutability": "view",
      "type": "function"
    },
    {
      "inputs": [
        {
          "internalType": "bytes32",
          "name": "_ccy",
          "type": "bytes32"
        },
        {
          "internalType": "address",
          "name": "_user",
          "type": "address"
        }
      ],
      "name": "getWithdrawableCollateral",
      "outputs": [
        {
          "internalType": "uint256",
          "name": "",
          "type": "uint256"
        }
      ],
      "stateMutability": "view",
      "type": "function"
    },
    {
      "inputs": [
        {
          "internalType": "address",
          "name": "_user",
          "type": "address"
        }
      ],
      "name": "getWithdrawableCollateral",
      "outputs": [
        {
          "internalType": "uint256",
          "name": "",
          "type": "uint256"
        }
      ],
      "stateMutability": "view",
      "type": "function"
    },
    {
      "inputs": [
        {
          "internalType": "bytes32",
          "name": "role",
          "type": "bytes32"
        },
        {
          "internalType": "address",
          "name": "account",
          "type": "address"
        }
      ],
      "name": "grantRole",
      "outputs": [],
      "stateMutability": "nonpayable",
      "type": "function"
    },
    {
      "inputs": [
        {
          "internalType": "bytes32",
          "name": "role",
          "type": "bytes32"
        },
        {
          "internalType": "address",
          "name": "account",
          "type": "address"
        }
      ],
      "name": "hasRole",
      "outputs": [
        {
          "internalType": "bool",
          "name": "",
          "type": "bool"
        }
      ],
      "stateMutability": "view",
      "type": "function"
    },
    {
      "inputs": [
        {
          "internalType": "address",
          "name": "_owner",
          "type": "address"
        },
        {
          "internalType": "address",
          "name": "_resolver",
          "type": "address"
        },
        {
          "internalType": "uint256",
          "name": "_liquidationThresholdRate",
          "type": "uint256"
        },
        {
          "internalType": "uint256",
          "name": "_fullLiquidationThresholdRate",
          "type": "uint256"
        },
        {
          "internalType": "uint256",
          "name": "_liquidationProtocolFeeRate",
          "type": "uint256"
        },
        {
          "internalType": "uint256",
          "name": "_liquidatorFeeRate",
          "type": "uint256"
        },
        {
          "internalType": "address",
          "name": "_nativeToken",
          "type": "address"
        }
      ],
      "name": "initialize",
      "outputs": [],
      "stateMutability": "nonpayable",
      "type": "function"
    },
    {
      "inputs": [
        {
          "internalType": "bytes32[]",
          "name": "_ccys",
          "type": "bytes32[]"
        }
      ],
      "name": "isCollateral",
      "outputs": [
        {
          "internalType": "bool[]",
          "name": "isCollateralCurrencies",
          "type": "bool[]"
        }
      ],
      "stateMutability": "view",
      "type": "function"
    },
    {
      "inputs": [
        {
          "internalType": "bytes32",
          "name": "_ccy",
          "type": "bytes32"
        }
      ],
      "name": "isCollateral",
      "outputs": [
        {
          "internalType": "bool",
          "name": "",
          "type": "bool"
        }
      ],
      "stateMutability": "view",
      "type": "function"
    },
    {
      "inputs": [
        {
          "internalType": "address",
          "name": "_user",
          "type": "address"
        },
        {
          "internalType": "bytes32",
          "name": "_orderCcy",
          "type": "bytes32"
        }
      ],
      "name": "isCovered",
      "outputs": [
        {
          "internalType": "bool",
          "name": "isEnoughCollateral",
          "type": "bool"
        },
        {
          "internalType": "bool",
          "name": "isEnoughDepositInOrderCcy",
          "type": "bool"
        }
      ],
      "stateMutability": "view",
      "type": "function"
    },
    {
      "inputs": [
        {
          "internalType": "bytes32",
          "name": "_ccy",
          "type": "bytes32"
        }
      ],
      "name": "isRegisteredCurrency",
      "outputs": [
        {
          "internalType": "bool",
          "name": "",
          "type": "bool"
        }
      ],
      "stateMutability": "view",
      "type": "function"
    },
    {
      "inputs": [],
      "name": "isResolverCached",
      "outputs": [
        {
          "internalType": "bool",
          "name": "",
          "type": "bool"
        }
      ],
      "stateMutability": "view",
      "type": "function"
    },
    {
      "inputs": [
        {
          "internalType": "bytes[]",
          "name": "data",
          "type": "bytes[]"
        }
      ],
      "name": "multicall",
      "outputs": [
        {
          "internalType": "bytes[]",
          "name": "results",
          "type": "bytes[]"
        }
      ],
      "stateMutability": "nonpayable",
      "type": "function"
    },
    {
      "inputs": [],
      "name": "owner",
      "outputs": [
        {
          "internalType": "address",
          "name": "",
          "type": "address"
        }
      ],
      "stateMutability": "view",
      "type": "function"
    },
    {
      "inputs": [],
      "name": "pause",
      "outputs": [],
      "stateMutability": "nonpayable",
      "type": "function"
    },
    {
      "inputs": [],
      "name": "paused",
      "outputs": [
        {
          "internalType": "bool",
          "name": "",
          "type": "bool"
        }
      ],
      "stateMutability": "view",
      "type": "function"
    },
    {
      "inputs": [
        {
          "internalType": "bytes32",
          "name": "_ccy",
          "type": "bytes32"
        },
        {
          "internalType": "address",
          "name": "_tokenAddress",
          "type": "address"
        },
        {
          "internalType": "bool",
          "name": "_isCollateral",
          "type": "bool"
        }
      ],
      "name": "registerCurrency",
      "outputs": [],
      "stateMutability": "nonpayable",
      "type": "function"
    },
    {
      "inputs": [
        {
          "internalType": "address",
          "name": "_user",
          "type": "address"
        },
        {
          "internalType": "bytes32",
          "name": "_ccy",
          "type": "bytes32"
        },
        {
          "internalType": "uint256",
          "name": "_amount",
          "type": "uint256"
        }
      ],
      "name": "removeDepositAmount",
      "outputs": [],
      "stateMutability": "nonpayable",
      "type": "function"
    },
    {
      "inputs": [
        {
          "internalType": "address",
          "name": "admin",
          "type": "address"
        }
      ],
      "name": "removeOperator",
      "outputs": [],
      "stateMutability": "nonpayable",
      "type": "function"
    },
    {
      "inputs": [],
      "name": "renounceOwnership",
      "outputs": [],
      "stateMutability": "nonpayable",
      "type": "function"
    },
    {
      "inputs": [
        {
          "internalType": "bytes32",
          "name": "role",
          "type": "bytes32"
        },
        {
          "internalType": "address",
          "name": "account",
          "type": "address"
        }
      ],
      "name": "renounceRole",
      "outputs": [],
      "stateMutability": "pure",
      "type": "function"
    },
    {
      "inputs": [],
      "name": "requiredContracts",
      "outputs": [
        {
          "internalType": "bytes32[]",
          "name": "contracts",
          "type": "bytes32[]"
        }
      ],
      "stateMutability": "pure",
      "type": "function"
    },
    {
      "inputs": [],
      "name": "resolver",
      "outputs": [
        {
          "internalType": "contract IAddressResolver",
          "name": "",
          "type": "address"
        }
      ],
      "stateMutability": "view",
      "type": "function"
    },
    {
      "inputs": [
        {
          "internalType": "bytes32",
          "name": "role",
          "type": "bytes32"
        },
        {
          "internalType": "address",
          "name": "account",
          "type": "address"
        }
      ],
      "name": "revokeRole",
      "outputs": [],
      "stateMutability": "nonpayable",
      "type": "function"
    },
    {
      "inputs": [
        {
          "internalType": "bytes4",
          "name": "interfaceId",
          "type": "bytes4"
        }
      ],
      "name": "supportsInterface",
      "outputs": [
        {
          "internalType": "bool",
          "name": "",
          "type": "bool"
        }
      ],
      "stateMutability": "view",
      "type": "function"
    },
    {
      "inputs": [
        {
          "internalType": "bytes32",
          "name": "_ccy",
          "type": "bytes32"
        },
        {
          "internalType": "address",
          "name": "_from",
          "type": "address"
        },
        {
          "internalType": "address",
          "name": "_to",
          "type": "address"
        },
        {
          "internalType": "uint256",
          "name": "_amount",
          "type": "uint256"
        }
      ],
      "name": "transferFrom",
      "outputs": [
        {
          "internalType": "uint256",
          "name": "untransferredAmount",
          "type": "uint256"
        }
      ],
      "stateMutability": "nonpayable",
      "type": "function"
    },
    {
      "inputs": [
        {
          "internalType": "address",
          "name": "newOwner",
          "type": "address"
        }
      ],
      "name": "transferOwnership",
      "outputs": [],
      "stateMutability": "nonpayable",
      "type": "function"
    },
    {
      "inputs": [],
      "name": "unpause",
      "outputs": [],
      "stateMutability": "nonpayable",
      "type": "function"
    },
    {
      "inputs": [
        {
          "internalType": "bytes32",
          "name": "_ccy",
          "type": "bytes32"
        },
        {
          "internalType": "bool",
          "name": "_isCollateral",
          "type": "bool"
        }
      ],
      "name": "updateCurrency",
      "outputs": [],
      "stateMutability": "nonpayable",
      "type": "function"
    },
    {
      "inputs": [
        {
          "internalType": "uint256",
          "name": "_liquidationThresholdRate",
          "type": "uint256"
        },
        {
          "internalType": "uint256",
          "name": "_fullLiquidationThresholdRate",
          "type": "uint256"
        },
        {
          "internalType": "uint256",
          "name": "_liquidationProtocolFeeRate",
          "type": "uint256"
        },
        {
          "internalType": "uint256",
          "name": "_liquidatorFeeRate",
          "type": "uint256"
        }
      ],
      "name": "updateLiquidationConfiguration",
      "outputs": [],
      "stateMutability": "nonpayable",
      "type": "function"
    },
    {
      "inputs": [
        {
          "internalType": "bytes32",
          "name": "_ccy",
          "type": "bytes32"
        },
        {
          "internalType": "uint256",
          "name": "_amount",
          "type": "uint256"
        }
      ],
      "name": "withdraw",
      "outputs": [],
      "stateMutability": "nonpayable",
      "type": "function"
    },
    {
      "stateMutability": "payable",
      "type": "receive"
    }
  ],
  "bytecode": "0x608060405234801561001057600080fd5b50614519806100206000396000f3fe60806040526004361061038f5760003560e01c80635bffeb66116101dc5780639870d7fe11610102578063d5e190d0116100a0578063f5b541a61161006f578063f5b541a614610aad578063f7ef28d414610acf578063fb7bd3b414610b06578063fc70081014610b2657600080fd5b8063d5e190d014610a30578063ed6dd51414610a45578063f2fde38b14610a7a578063f4040abe14610a9a57600080fd5b8063ac9650d8116100dc578063ac9650d8146109a3578063b12e4410146109d0578063ca423031146109f0578063d547741f14610a1057600080fd5b80639870d7fe1461094e578063a217fddf1461096e578063ac8a584a1461098357600080fd5b80637d44828e1161017a5780638e19aff3116101495780638e19aff3146108db57806391d14854146108fb578063948060dd1461091b57806396994e371461093b57600080fd5b80637d44828e1461087157806383a5041c146108915780638456cb59146108b15780638da5cb5b146108c657600080fd5b806360819025116101b657806360819025146107fc5780636a3db9c61461081c578063715018a61461083c5780637d044b431461085157600080fd5b80635bffeb66146107a75780635c975abb146107c75780635d95df8a146107dc57600080fd5b80632e44b3f9116102c15780633f90a08e1161025f5780635257ed671161022e5780635257ed671461071257806354821c21146107325780635575fba714610752578063590472001461077257600080fd5b80633f90a08e146106855780634ba0c9b5146106b25780634c6aa99c146106d2578063500d2f6d146106f257600080fd5b806337ebbf691161029b57806337ebbf691461060e578063392d43011461062e5780633d03b9da1461064e5780633f4ba83a1461067057600080fd5b80632e44b3f9146105b95780632f2ff15d146105ce57806336568abe146105ee57600080fd5b80631316529d1161032e578063248a9ca311610308578063248a9ca31461054f57806325a890321461056f57806329985e5a1461058f5780632af64bd3146105a457600080fd5b80631316529d146104ed57806315c0dc20146105015780631de26e161461053c57600080fd5b8063040cf0201161036a578063040cf0201461046057806304f3bcec146104805780630cf7505d146104ad5780630eadd244146104cd57600080fd5b8062fcf262146103c857806301ffc9a7146104025780630253cd7e1461043257600080fd5b366103c35761039d33610b46565b6103c15760405163efd4e4e160e01b81523360048201526024015b60405180910390fd5b005b600080fd5b3480156103d457600080fd5b506103e86103e3366004613a55565b610b67565b604080519283526020830191909152015b60405180910390f35b34801561040e57600080fd5b5061042261041d366004613a6e565b610be6565b60405190151581526020016103f9565b34801561043e57600080fd5b5061045261044d366004613aad565b610c1d565b6040519081526020016103f9565b34801561046c57600080fd5b506103c161047b366004613ad9565b610cab565b34801561048c57600080fd5b50610495610cea565b6040516001600160a01b0390911681526020016103f9565b3480156104b957600080fd5b506104226104c8366004613a55565b610d03565b3480156104d957600080fd5b506104526104e8366004613afb565b610d31565b3480156104f957600080fd5b506002610452565b34801561050d57600080fd5b5061052161051c366004613b2b565b610d7b565b604080519384526020840192909252908201526060016103f9565b6103c161054a366004613ad9565b610e0b565b34801561055b57600080fd5b5061045261056a366004613a55565b610ecd565b34801561057b57600080fd5b5061045261058a366004613b2b565b610eeb565b34801561059b57600080fd5b506103c1610f6b565b3480156105b057600080fd5b506104226110e8565b3480156105c557600080fd5b5061045261121a565b3480156105da57600080fd5b506103c16105e9366004613afb565b61122d565b3480156105fa57600080fd5b506103c1610609366004613afb565b611249565b34801561061a57600080fd5b506103c1610629366004613b48565b611274565b34801561063a57600080fd5b506103c1610649366004613aad565b6112b5565b34801561065a57600080fd5b5061066361136c565b6040516103f99190613b7a565b34801561067c57600080fd5b506103c161142e565b34801561069157600080fd5b506106a56106a0366004613c03565b61146d565b6040516103f99190613c45565b3480156106be57600080fd5b506103c16106cd366004613c7f565b61151d565b3480156106de57600080fd5b506104526106ed366004613a55565b6115f6565b3480156106fe57600080fd5b5061045261070d366004613cb4565b611614565b34801561071e57600080fd5b5061052161072d366004613c7f565b611766565b34801561073e57600080fd5b5061045261074d366004613b2b565b6117f6565b34801561075e57600080fd5b5061045261076d366004613aad565b61187e565b34801561077e57600080fd5b5061079261078d366004613d6c565b6118c8565b604080519283529015156020830152016103f9565b3480156107b357600080fd5b506103c16107c2366004613e05565b611998565b3480156107d357600080fd5b50610422611bc2565b3480156107e857600080fd5b506104226107f7366004613a55565b611bd5565b34801561080857600080fd5b506103c1610817366004613e5d565b611bec565b34801561082857600080fd5b506103c1610837366004613ec2565b611d3b565b34801561084857600080fd5b506103c1611e6f565b34801561085d57600080fd5b5061045261086c366004613aad565b611ea8565b34801561087d57600080fd5b5061045261088c366004613aad565b611f97565b34801561089d57600080fd5b506103c16108ac366004613f0b565b612027565b3480156108bd57600080fd5b506103c16121d2565b3480156108d257600080fd5b5061049561220f565b3480156108e757600080fd5b506103c16108f6366004613f7d565b612219565b34801561090757600080fd5b50610422610916366004613afb565b61235c565b34801561092757600080fd5b50610452610936366004613b2b565b612390565b6103c1610949366004613c7f565b6123d3565b34801561095a57600080fd5b506103c1610969366004613b2b565b6124a7565b34801561097a57600080fd5b50610452600081565b34801561098f57600080fd5b506103c161099e366004613b2b565b6124c2565b3480156109af57600080fd5b506109c36109be366004613c03565b6124da565b6040516103f99190613ff2565b3480156109dc57600080fd5b506104956109eb366004613a55565b6125c8565b3480156109fc57600080fd5b50610452610a0b366004613b2b565b6125ef565b348015610a1c57600080fd5b506103c1610a2b366004613afb565b612632565b348015610a3c57600080fd5b50610663612677565b348015610a5157600080fd5b50610a5a612691565b6040805194855260208501939093529183015260608201526080016103f9565b348015610a8657600080fd5b506103c1610a95366004613b2b565b6126d2565b6103c1610aa8366004614054565b61276f565b348015610ab957600080fd5b5061045260008051602061449d83398151915281565b348015610adb57600080fd5b50610aef610aea366004613aad565b612831565b6040805192151583529015156020830152016103f9565b348015610b1257600080fd5b506103c1610b21366004613c7f565b6128b8565b348015610b3257600080fd5b50610663610b41366004613b2b565b61295b565b6000610b506129de565b546001600160a01b03928316921691909114919050565b604051627e793160e11b815260048101829052600090819073__$e77f6d4722b46e0b0a57517726dbfd997e$__9062fcf262906024016040805180830381865af4158015610bb9573d6000803e3d6000fd5b505050506040513d601f19601f82011682018060405250810190610bdd9190614082565b91509150915091565b60006001600160e01b03198216637965db0b60e01b1480610c1757506301ffc9a760e01b6001600160e01b03198316145b92915050565b604051630129e6bf60e11b81526001600160a01b03831660048201526024810182905260009073__$e77f6d4722b46e0b0a57517726dbfd997e$__90630253cd7e906044015b602060405180830381865af4158015610c80573d6000803e3d6000fd5b505050506040513d601f19601f82011682018060405250810190610ca491906140a6565b9392505050565b610cb3612a0c565b81610cbd81610d03565b610cda57604051630f4a6ccd60e21b815260040160405180910390fd5b610ce5338484612a54565b505050565b6000610cf4612c51565b546001600160a01b0316919050565b600080610d0e612c7f565b60009384526005016020526040909220546001600160a01b031690911415919050565b6040516303ab749160e21b8152600481018390526001600160a01b038216602482015260009073__$e77f6d4722b46e0b0a57517726dbfd997e$__90630eadd24490604401610c63565b6040516354821c2160e01b81526001600160a01b03821660048201526000908190819073__$e77f6d4722b46e0b0a57517726dbfd997e$__906354821c2190602401606060405180830381865af4158015610dda573d6000803e3d6000fd5b505050506040513d601f19601f82011682018060405250810190610dfe91906140bf565b9196909550909350915050565b610e13612cad565b6001600160a01b031663d1cc99766040518163ffffffff1660e01b8152600401602060405180830381865afa158015610e50573d6000803e3d6000fd5b505050506040513d601f19601f82011682018060405250810190610e7491906140ed565b15610e92576040516319a90b2f60e21b815260040160405180910390fd5b610e9a612a0c565b81610ea481610d03565b610ec157604051630f4a6ccd60e21b815260040160405180910390fd5b610ce533848433612cb7565b6000610ed7612e33565b600092835260205250604090206001015490565b6040516312d4481960e11b81526001600160a01b038216600482015260009073__$e77f6d4722b46e0b0a57517726dbfd997e$__906325a89032906024015b602060405180830381865af4158015610f47573d6000803e3d6000fd5b505050506040513d601f19601f82011682018060405250810190610c1791906140a6565b6000610f7561136c565b905060005b81518110156110e4576000828281518110610f9757610f9761410a565b602002602001015190506000610fab612c51565b54604080517f5265736f6c766572206d697373696e67207461726765743a200000000000000060208201526039808201869052825180830390910181526059820192839052636795dbcd60e01b9092526001600160a01b0390921691636795dbcd9161101c91869190605d01614120565b602060405180830381865afa158015611039573d6000803e3d6000fd5b505050506040513d601f19601f8201168201806040525081019061105d9190614139565b905080611068612c51565b6000848152600191909101602090815260409182902080546001600160a01b0319166001600160a01b039485161790558151858152928416908301527f88a93678a3692f6789d9546fc621bf7234b101ddb7d4fe479455112831b8aa68910160405180910390a1505080806110dc9061416c565b915050610f7a565b5050565b6000806110f361136c565b905060005b81518110156112115760008282815181106111155761111561410a565b60200260200101519050611127612c51565b600082815260019190910160205260409020546001600160a01b031661114b612c51565b546040516321f8a72160e01b8152600481018490526001600160a01b03909116906321f8a72190602401602060405180830381865afa158015611192573d6000803e3d6000fd5b505050506040513d601f19601f820116820180604052508101906111b69190614139565b6001600160a01b03161415806111ef575060006111d1612c51565b600083815260019190910160205260409020546001600160a01b0316145b156111fe576000935050505090565b50806112098161416c565b9150506110f8565b50600191505090565b6000611224612691565b50919392505050565b61123682610ecd565b61123f81612e61565b610ce58383612e6b565b604051631eb5512b60e31b8152600481018390526001600160a01b03821660248201526044016103b8565b3361127d61220f565b6001600160a01b0316146112a35760405162461bcd60e51b81526004016103b890614185565b6112af84848484612ee2565b50505050565b6112bd612a0c565b6112c56130f8565b6001600160a01b0316336001600160a01b0316146112f657604051637b3f42c160e01b81526004016103b8906141ba565b60405163392d430160e01b81526001600160a01b03831660048201526024810182905273__$e77f6d4722b46e0b0a57517726dbfd997e$__9063392d43019060440160006040518083038186803b15801561135057600080fd5b505af4158015611364573d6000803e3d6000fd5b505050505050565b604080516003808252608082019092526060916020820183803683370190505090507121bab93932b731bca1b7b73a3937b63632b960711b816000815181106113b7576113b761410a565b602002602001018181525050762632b73234b733a6b0b935b2ba21b7b73a3937b63632b960491b816001815181106113f1576113f161410a565b6020026020010181815250506a14995cd95c9d99519d5b9960aa1b8160028151811061141f5761141f61410a565b60200260200101818152505090565b61144660008051602061449d8339815191523361235c565b6114635760405163a5523ee560e01b815260040160405180910390fd5b61146b61311d565b565b6060818067ffffffffffffffff81111561148957611489613cfc565b6040519080825280602002602001820160405280156114b2578160200160208202803683370190505b50915060005b81811015611515576114e18585838181106114d5576114d561410a565b90506020020135611bd5565b8382815181106114f3576114f361410a565b911515602092830291909101909101528061150d8161416c565b9150506114b8565b505092915050565b611525612a0c565b61152d6130f8565b6001600160a01b0316336001600160a01b03161461155e57604051637b3f42c160e01b81526004016103b8906141ba565b8161156881610d03565b61158557604051630f4a6ccd60e21b815260040160405180910390fd5b604051634ba0c9b560e01b815273__$e77f6d4722b46e0b0a57517726dbfd997e$__90634ba0c9b5906115c0908790879087906004016141eb565b60006040518083038186803b1580156115d857600080fd5b505af41580156115ec573d6000803e3d6000fd5b5050505050505050565b6000611600612c7f565b600092835260070160205250604090205490565b600061161e612a0c565b6116266130f8565b6001600160a01b0316336001600160a01b03161461165757604051637b3f42c160e01b81526004016103b8906141ba565b8461166181610d03565b61167e57604051630f4a6ccd60e21b815260040160405180910390fd5b60405163500d2f6d60e01b8152600481018790526001600160a01b038087166024830152851660448201526064810184905273__$e77f6d4722b46e0b0a57517726dbfd997e$__9063500d2f6d90608401602060405180830381865af41580156116ec573d6000803e3d6000fd5b505050506040513d601f19601f8201168201806040525081019061171091906140a6565b91506001600160a01b03808516908616877ff8ca259b4b82670be7501ff56ad1fc9c7cd199d3431e3c502f2c5f86884bc15061174c868861420c565b60405190815260200160405180910390a450949350505050565b600080600073__$e77f6d4722b46e0b0a57517726dbfd997e$__635257ed678787876040518463ffffffff1660e01b81526004016117a6939291906141eb565b606060405180830381865af41580156117c3573d6000803e3d6000fd5b505050506040513d601f19601f820116820180604052508101906117e791906140bf565b92509250925093509350939050565b6040516354821c2160e01b81526001600160a01b038216600482015260009073__$e77f6d4722b46e0b0a57517726dbfd997e$__906354821c2190602401606060405180830381865af4158015611851573d6000803e3d6000fd5b505050506040513d601f19601f8201168201806040525081019061187591906140bf565b50909392505050565b604051635575fba760e01b81526001600160a01b03831660048201526024810182905260009073__$e77f6d4722b46e0b0a57517726dbfd997e$__90635575fba790604401610c63565b60408051632910ae9d60e01b81526001600160a01b0384166004820152825160248201526020830151604482015290820151606482015260608201516084820152608082015160a482015260a082015160c482015260c082015160e4820152600090819073__$e77f6d4722b46e0b0a57517726dbfd997e$__90632910ae9d90610104016040805180830381865af4158015611968573d6000803e3d6000fd5b505050506040513d601f19601f8201168201806040525081019061198c919061421f565b915091505b9250929050565b6119a0612cad565b6001600160a01b031663d1cc99766040518163ffffffff1660e01b8152600401602060405180830381865afa1580156119dd573d6000803e3d6000fd5b505050506040513d601f19601f82011682018060405250810190611a0191906140ed565b15611a1f576040516319a90b2f60e21b815260040160405180910390fd5b33611a2861220f565b6001600160a01b031614611a4e5760405162461bcd60e51b81526004016103b890614185565b611a5661317e565b6001600160a01b0316631eae0893846040518263ffffffff1660e01b8152600401611a8391815260200190565b602060405180830381865afa158015611aa0573d6000803e3d6000fd5b505050506040513d601f19601f82011682018060405250810190611ac491906140ed565b1580611ad45750611ad483610d03565b15611af257604051631eb3268560e31b815260040160405180910390fd5b6001600160a01b038216611b195760405163c1ab6dc160e01b815260040160405180910390fd5b81611b22612c7f565b60008581526005919091016020526040902080546001600160a01b0319166001600160a01b03929092169190911790558015611b6f57611b6d83611b64612c7f565b60030190613188565b505b604080518481526001600160a01b0384166020820152821515918101919091527ff776c30df345d55df252bb5181a0c2bb23d601166606790a6f1b938d7e158503906060015b60405180910390a1505050565b6000611bcc613194565b5460ff16919050565b6000610c1782611be3612c7f565b600301906131c2565b611bf4612cad565b6001600160a01b031663d1cc99766040518163ffffffff1660e01b8152600401602060405180830381865afa158015611c31573d6000803e3d6000fd5b505050506040513d601f19601f82011682018060405250810190611c5591906140ed565b15611c73576040516319a90b2f60e21b815260040160405180910390fd5b611c7b612a0c565b611c836130f8565b6001600160a01b0316336001600160a01b031614611cb457604051637b3f42c160e01b81526004016103b8906141ba565b611cbd866125c8565b6001600160a01b031663d505accf883088888888886040518863ffffffff1660e01b8152600401611cf49796959493929190614244565b600060405180830381600087803b158015611d0e57600080fd5b505af1158015611d22573d6000803e3d6000fd5b50505050611d328787878a612cb7565b50505050505050565b611d43612cad565b6001600160a01b031663d1cc99766040518163ffffffff1660e01b8152600401602060405180830381865afa158015611d80573d6000803e3d6000fd5b505050506040513d601f19601f82011682018060405250810190611da491906140ed565b15611dc2576040516319a90b2f60e21b815260040160405180910390fd5b611dca612a0c565b86611dd481610d03565b611df157604051630f4a6ccd60e21b815260040160405180910390fd5b611dfa886125c8565b6001600160a01b031663d505accf33308a898989896040518863ffffffff1660e01b8152600401611e319796959493929190614244565b600060405180830381600087803b158015611e4b57600080fd5b505af1158015611e5f573d6000803e3d6000fd5b505050506115ec33898989612cb7565b33611e7861220f565b6001600160a01b031614611e9e5760405162461bcd60e51b81526004016103b890614185565b61146b60006131da565b6000611eb26130f8565b6001600160a01b0316336001600160a01b031614611ee357604051637b3f42c160e01b81526004016103b8906141ba565b81611eed81610d03565b611f0a57604051630f4a6ccd60e21b815260040160405180910390fd5b604051637d044b4360e01b81526001600160a01b03851660048201526024810184905273__$e77f6d4722b46e0b0a57517726dbfd997e$__90637d044b4390604401602060405180830381865af4158015611f69573d6000803e3d6000fd5b505050506040513d601f19601f82011682018060405250810190611f8d91906140a6565b91505b5092915050565b604051633ea2414760e11b81526001600160a01b03831660048201526024810182905260009073__$e77f6d4722b46e0b0a57517726dbfd997e$__90637d44828e90604401606060405180830381865af4158015611ff9573d6000803e3d6000fd5b505050506040513d601f19601f8201168201806040525081019061201d91906140bf565b5090949350505050565b600054610100900460ff16158080156120475750600054600160ff909116105b806120615750303b158015612061575060005460ff166001145b6120c45760405162461bcd60e51b815260206004820152602e60248201527f496e697469616c697a61626c653a20636f6e747261637420697320616c72656160448201526d191e481a5b9a5d1a585b1a5e995960921b60648201526084016103b8565b6000805460ff1916600117905580156120e7576000805461ff0019166101001790555b60006120f1613247565b6001600160a01b0316036121525760405162461bcd60e51b815260206004820152602260248201527f4d7573742062652063616c6c65642066726f6d2070726f787920636f6e74726160448201526118dd60f21b60648201526084016103b8565b61215b886131da565b6121648761326f565b61216d826132cb565b61217688613341565b6121838887878787613364565b80156115ec576000805461ff0019169055604051600181527f7f26b83ff96e1f2b6a682f133852f6798a09c465da95921460cefb38474024989060200160405180910390a15050505050505050565b6121ea60008051602061449d8339815191523361235c565b6122075760405163a5523ee560e01b815260040160405180910390fd5b61146b613380565b6000610cf46133c8565b612221612cad565b6001600160a01b031663d1cc99766040518163ffffffff1660e01b8152600401602060405180830381865afa15801561225e573d6000803e3d6000fd5b505050506040513d601f19601f8201168201806040525081019061228291906140ed565b156122a0576040516319a90b2f60e21b815260040160405180910390fd5b336122a961220f565b6001600160a01b0316146122cf5760405162461bcd60e51b81526004016103b890614185565b816122d981610d03565b6122f657604051630f4a6ccd60e21b815260040160405180910390fd5b811561230e5761230883611b64612c7f565b50612325565b6123238361231a612c7f565b600301906133f6565b505b6040805184815283151560208201527f97caf2b3b2f0aa460ca08b20c07f7a43ccf688e2f3b7179f2cf9113fb892bf819101611bb5565b6000612366612e33565b6000938452602090815260408085206001600160a01b039490941685529290525090205460ff1690565b60405163948060dd60e01b81526001600160a01b038216600482015260009073__$e77f6d4722b46e0b0a57517726dbfd997e$__9063948060dd90602401610f2a565b6123db612cad565b6001600160a01b031663d1cc99766040518163ffffffff1660e01b8152600401602060405180830381865afa158015612418573d6000803e3d6000fd5b505050506040513d601f19601f8201168201806040525081019061243c91906140ed565b1561245a576040516319a90b2f60e21b815260040160405180910390fd5b612462612a0c565b61246a6130f8565b6001600160a01b0316336001600160a01b03161461249b57604051637b3f42c160e01b81526004016103b8906141ba565b610ce583838386612cb7565b6124bf60008051602061449d8339815191528261122d565b50565b6124bf60008051602061449d83398151915282612632565b60608167ffffffffffffffff8111156124f5576124f5613cfc565b60405190808252806020026020018201604052801561252857816020015b60608152602001906001900390816125135790505b50905060005b82811015611f90576125983085858481811061254c5761254c61410a565b905060200281019061255e9190614285565b8080601f01602080910402602001604051908101604052809392919081815260200183838082843760009201919091525061340292505050565b8282815181106125aa576125aa61410a565b602002602001018190525080806125c09061416c565b91505061252e565b60006125d2612c7f565b60009283526005016020525060409020546001600160a01b031690565b60405163ca42303160e01b81526001600160a01b038216600482015260009073__$e77f6d4722b46e0b0a57517726dbfd997e$__9063ca42303190602401610f2a565b336001600160a01b0382160361266d57604051631eb5512b60e31b8152600481018390526001600160a01b03821660248201526044016103b8565b6110e48282613427565b606061268c612684612c7f565b600301613443565b905090565b60008060008061269f612c7f565b5493506126aa612c7f565b6009015492506126b8612c7f565b6001015491506126c6612c7f565b60020154905090919293565b336126db61220f565b6001600160a01b0316146127015760405162461bcd60e51b81526004016103b890614185565b6001600160a01b0381166127665760405162461bcd60e51b815260206004820152602660248201527f4f776e61626c653a206e6577206f776e657220697320746865207a65726f206160448201526564647265737360d01b60648201526084016103b8565b6124bf816131da565b612777612cad565b6001600160a01b031663d1cc99766040518163ffffffff1660e01b8152600401602060405180830381865afa1580156127b4573d6000803e3d6000fd5b505050506040513d601f19601f820116820180604052508101906127d891906140ed565b156127f6576040516319a90b2f60e21b815260040160405180910390fd5b6127fe612a0c565b8261280881610d03565b61282557604051630f4a6ccd60e21b815260040160405180910390fd5b6112af33858585612cb7565b604051633dfbca3560e21b81526001600160a01b038316600482015260248101829052600090819073__$e77f6d4722b46e0b0a57517726dbfd997e$__9063f7ef28d4906044016040805180830381865af4158015612894573d6000803e3d6000fd5b505050506040513d601f19601f8201168201806040525081019061198c91906142cc565b6128c0612a0c565b6128c86130f8565b6001600160a01b0316336001600160a01b0316146128f957604051637b3f42c160e01b81526004016103b8906141ba565b8161290381610d03565b61292057604051630f4a6ccd60e21b815260040160405180910390fd5b604051633edef4ed60e21b815273__$e77f6d4722b46e0b0a57517726dbfd997e$__9063fb7bd3b4906115c0908790879087906004016141eb565b604051630fc7008160e41b81526001600160a01b038216600482015260609073__$e77f6d4722b46e0b0a57517726dbfd997e$__9063fc70081090602401600060405180830381865af41580156129b6573d6000803e3d6000fd5b505050506040513d6000823e601f3d908101601f19168201604052610c1791908101906142fb565b600080610c1760017f6f969d660e14559aec53d066903ba87981d0679d31bf1d3793a220e70e02808b61420c565b612a14611bc2565b1561146b5760405162461bcd60e51b815260206004820152601060248201526f14185d5cd8589b194e881c185d5cd95960821b60448201526064016103b8565b80600003612a75576040516310eb483f60e21b815260040160405180910390fd5b612a7d612cad565b60405163862fd6e560e01b81526001600160a01b038581166004830152919091169063862fd6e590602401602060405180830381865afa158015612ac5573d6000803e3d6000fd5b505050506040513d601f19601f82011682018060405250810190612ae991906140ed565b15612b0757604051631f6d627d60e11b815260040160405180910390fd5b612b0f612cad565b604051639519832b60e01b8152600481018490526001600160a01b0385811660248301529190911690639519832b906044016020604051808303816000875af1158015612b60573d6000803e3d6000fd5b505050506040513d601f19601f82011682018060405250810190612b8491906140a6565b5060405163148b8b9d60e11b815260009073__$e77f6d4722b46e0b0a57517726dbfd997e$__90632917173a90612bc3908790879087906004016141eb565b602060405180830381865af4158015612be0573d6000803e3d6000fd5b505050506040513d601f19601f82011682018060405250810190612c0491906140a6565b60408051858152602081018390529192506001600160a01b038616917fc3ded2be7db21b1af963f267d27750e4a15f174547d88b886b9bda43e2c6fa32910160405180910390a250505050565b600080610c1760017f4abde63c3e81aefa5764b017968bc473e83e093d7e1a10247d19e0a3e412401861420c565b600080610c1760017f53832330c92cb5d80f0e1ff6fdb9886f7fad39132543bafb7497316eae2a831761420c565b600061268c6130f8565b81600003612cd8576040516310eb483f60e21b815260040160405180910390fd5b6000612ce2612c7f565b600085815260059190910160205260409020546001600160a01b03169050612d0981610b46565b8015612d155750823414155b80612d305750612d2481610b46565b158015612d3057503415155b15612d5e57604051631471902b60e01b815260048101859052602481018490523460448201526064016103b8565b60405163aa5974d360e01b81526001600160a01b03808716600483015260248201869052604482018590528316606482015273__$e77f6d4722b46e0b0a57517726dbfd997e$__9063aa5974d39060840160006040518083038186803b158015612dc757600080fd5b505af4158015612ddb573d6000803e3d6000fd5b505060408051878152602081018790526001600160a01b0389811682840152915191861693507fddcff2534e44ab893ab86cadbfcf556c7c257bd657d168b0bfed850311dfe4f8925081900360600190a25050505050565b600080610c1760017f35e4a72724550e3953b041d501f29ff9ff417812c2917a203d9c4833b9d1d6f961420c565b6124bf8133613450565b612e75828261235c565b6110e4576001612e83612e33565b6000848152602091825260408082206001600160a01b0386168084529352808220805460ff1916941515949094179093559151339285917f2f8788117e7eff1d82e926ec794901d17c78024a50270940304540a733656f0d9190a45050565b6127108411612f0457604051630821f57960e31b815260040160405180910390fd5b6127108311612f26576040516374cea83b60e11b815260040160405180910390fd5b612710821115612f49576040516370a4af3d60e01b815260040160405180910390fd5b612710811115612f6c57604051631da7276f60e01b815260040160405180910390fd5b612f74612c7f565b548414612fc7577fb6b557cee4263a37fd3d5628283cf80f163f642348be22b584f987f624ee710c612fa4612c7f565b5460408051918252602082018790520160405180910390a183612fc5612c7f565b555b612fcf612c7f565b60090154831461302b577fbd5d5ae34f2dd641ea43162200c0f86567cbf1b92441fef559df6aa00dd4f2ab613002612c7f565b6009015460408051918252602082018690520160405180910390a182613026612c7f565b600901555b613033612c7f565b60010154821461308f577f651b17c8e9402610e6210cfaa5b252d2186f8a16adf58c9c0fd5793bc4ea9b1f613066612c7f565b6001015460408051918252602082018590520160405180910390a18161308a612c7f565b600101555b613097612c7f565b6002015481146112af57806130aa612c7f565b600201557f7e8f030f9238551b066874b952f0c6ba811ba426ab231ba4825421d5d8f5cd956130d7612c7f565b6002015460408051918252602082018490520160405180910390a150505050565b600061268c762632b73234b733a6b0b935b2ba21b7b73a3937b63632b960491b6134b4565b613125613515565b600061312f613194565b805460ff19169115159190911790557f5db9ee0a495bf2e6ff9c91a7834c1ba4fdd244a5e8aa4e537bd38aeae4b073aa335b6040516001600160a01b03909116815260200160405180910390a1565b600061268c613560565b6000610ca48383613580565b600080610c1760017f9c789132bdb3678132848a8dcd780bffd2b1abdce3984c522ac1d8aeb48f05f361420c565b60008181526001830160205260408120541515610ca4565b60006131e46133c8565b546001600160a01b03169050816131f96133c8565b80546001600160a01b0319166001600160a01b03928316179055604051838216918316907f8be0079c531659141344cd1fd0a4f28419497f9722a3daafe3b4186f6b6457e090600090a35050565b60007f360894a13ba1a3210667c828492db98dca3e2076cc3735a920a3ca505d382bbc610cf4565b6000613279612c51565b546001600160a01b0316146132a1576040516304b79d6360e51b815260040160405180910390fd5b806132aa612c51565b80546001600160a01b0319166001600160a01b039290921691909117905550565b60006132d56129de565b546001600160a01b0316146133385760405162461bcd60e51b815260206004820152602360248201527f5472616e7366657248656c7065723a20416c726561647920696e697469616c696044820152621e995960ea1b60648201526084016103b8565b806132aa6129de565b61334c600082612e6b565b6124bf60008051602061449d83398151915282612e6b565b61336d856131da565b61337984848484612ee2565b5050505050565b613388612a0c565b6001613392613194565b805460ff19169115159190911790557f62e78cea01bee320cd4e420270b5ea74000d11b0c9f74754ebdbfc544b05a25833613161565b600080610c1760017f9acda75aebd150dd434541a4747a6dc606f4f1a59662477e67daf1fc0bf9e0aa61420c565b6000610ca483836135cf565b6060610ca483836040518060600160405280602781526020016144bd602791396136c2565b61343082610ecd565b61343981612e61565b610ce5838361373a565b60606000610ca4836137b2565b61345a828261235c565b6110e457613472816001600160a01b0316601461380e565b61347d83602061380e565b60405160200161348e9291906143a1565b60408051601f198184030181529082905262461bcd60e51b82526103b891600401614416565b6000806134bf612c51565b600084815260019190910160205260409020546001600160a01b0316905080610c175760408051602081018590520160408051601f19818403018152908290526346e2ec9360e01b82526103b891600401614416565b61351d611bc2565b61146b5760405162461bcd60e51b815260206004820152601460248201527314185d5cd8589b194e881b9bdd081c185d5cd95960621b60448201526064016103b8565b600061268c7121bab93932b731bca1b7b73a3937b63632b960711b6134b4565b60008181526001830160205260408120546135c757508154600181810184556000848152602080822090930184905584548482528286019093526040902091909155610c17565b506000610c17565b600081815260018301602052604081205480156136b85760006135f360018361420c565b85549091506000906136079060019061420c565b905081811461366c5760008660000182815481106136275761362761410a565b906000526020600020015490508087600001848154811061364a5761364a61410a565b6000918252602080832090910192909255918252600188019052604090208390555b855486908061367d5761367d614429565b600190038181906000526020600020016000905590558560010160008681526020019081526020016000206000905560019350505050610c17565b6000915050610c17565b6060600080856001600160a01b0316856040516136df919061443f565b600060405180830381855af49150503d806000811461371a576040519150601f19603f3d011682016040523d82523d6000602084013e61371f565b606091505b5091509150613730868383876139aa565b9695505050505050565b613744828261235c565b156110e4576000613753612e33565b6000848152602091825260408082206001600160a01b0386168084529352808220805460ff1916941515949094179093559151339285917ff6391f5c32d9c69d2a47ea670b442974b53935d1edc7fd64eb21e047a839171b9190a45050565b60608160000180548060200260200160405190810160405280929190818152602001828054801561380257602002820191906000526020600020905b8154815260200190600101908083116137ee575b50505050509050919050565b6060600061381d83600261445b565b613828906002614472565b67ffffffffffffffff81111561384057613840613cfc565b6040519080825280601f01601f19166020018201604052801561386a576020820181803683370190505b509050600360fc1b816000815181106138855761388561410a565b60200101906001600160f81b031916908160001a905350600f60fb1b816001815181106138b4576138b461410a565b60200101906001600160f81b031916908160001a90535060006138d884600261445b565b6138e3906001614472565b90505b600181111561395b576f181899199a1a9b1b9c1cb0b131b232b360811b85600f16601081106139175761391761410a565b1a60f81b82828151811061392d5761392d61410a565b60200101906001600160f81b031916908160001a90535060049490941c9361395481614485565b90506138e6565b508315610ca45760405162461bcd60e51b815260206004820181905260248201527f537472696e67733a20686578206c656e67746820696e73756666696369656e7460448201526064016103b8565b60608315613a19578251600003613a12576001600160a01b0385163b613a125760405162461bcd60e51b815260206004820152601d60248201527f416464726573733a2063616c6c20746f206e6f6e2d636f6e747261637400000060448201526064016103b8565b5081613a23565b613a238383613a2b565b949350505050565b815115613a3b5781518083602001fd5b8060405162461bcd60e51b81526004016103b89190614416565b600060208284031215613a6757600080fd5b5035919050565b600060208284031215613a8057600080fd5b81356001600160e01b031981168114610ca457600080fd5b6001600160a01b03811681146124bf57600080fd5b60008060408385031215613ac057600080fd5b8235613acb81613a98565b946020939093013593505050565b60008060408385031215613aec57600080fd5b50508035926020909101359150565b60008060408385031215613b0e57600080fd5b823591506020830135613b2081613a98565b809150509250929050565b600060208284031215613b3d57600080fd5b8135610ca481613a98565b60008060008060808587031215613b5e57600080fd5b5050823594602084013594506040840135936060013592509050565b6020808252825182820181905260009190848201906040850190845b81811015613bb257835183529284019291840191600101613b96565b50909695505050505050565b60008083601f840112613bd057600080fd5b50813567ffffffffffffffff811115613be857600080fd5b6020830191508360208260051b850101111561199157600080fd5b60008060208385031215613c1657600080fd5b823567ffffffffffffffff811115613c2d57600080fd5b613c3985828601613bbe565b90969095509350505050565b6020808252825182820181905260009190848201906040850190845b81811015613bb2578351151583529284019291840191600101613c61565b600080600060608486031215613c9457600080fd5b8335613c9f81613a98565b95602085013595506040909401359392505050565b60008060008060808587031215613cca57600080fd5b843593506020850135613cdc81613a98565b92506040850135613cec81613a98565b9396929550929360600135925050565b634e487b7160e01b600052604160045260246000fd5b60405160e0810167ffffffffffffffff81118282101715613d3557613d35613cfc565b60405290565b604051601f8201601f1916810167ffffffffffffffff81118282101715613d6457613d64613cfc565b604052919050565b600080828403610100811215613d8157600080fd5b8335613d8c81613a98565b925060e0601f1982011215613da057600080fd5b50613da9613d12565b6020840135815260408401356020820152606084013560408201526080840135606082015260a0840135608082015260c084013560a082015260e084013560c0820152809150509250929050565b80151581146124bf57600080fd5b600080600060608486031215613e1a57600080fd5b833592506020840135613e2c81613a98565b91506040840135613e3c81613df7565b809150509250925092565b803560ff81168114613e5857600080fd5b919050565b600080600080600080600060e0888a031215613e7857600080fd5b8735613e8381613a98565b9650602088013595506040880135945060608801359350613ea660808901613e47565b925060a0880135915060c0880135905092959891949750929550565b600080600080600080600060e0888a031215613edd57600080fd5b87359650602088013595506040880135613ef681613a98565b945060608801359350613ea660808901613e47565b600080600080600080600060e0888a031215613f2657600080fd5b8735613f3181613a98565b96506020880135613f4181613a98565b955060408801359450606088013593506080880135925060a0880135915060c0880135613f6d81613a98565b8091505092959891949750929550565b60008060408385031215613f9057600080fd5b823591506020830135613b2081613df7565b60005b83811015613fbd578181015183820152602001613fa5565b50506000910152565b60008151808452613fde816020860160208601613fa2565b601f01601f19169290920160200192915050565b6000602080830181845280855180835260408601915060408160051b870101925083870160005b8281101561404757603f19888603018452614035858351613fc6565b94509285019290850190600101614019565b5092979650505050505050565b60008060006060848603121561406957600080fd5b83359250602084013591506040840135613e3c81613a98565b6000806040838503121561409557600080fd5b505080516020909101519092909150565b6000602082840312156140b857600080fd5b5051919050565b6000806000606084860312156140d457600080fd5b8351925060208401519150604084015190509250925092565b6000602082840312156140ff57600080fd5b8151610ca481613df7565b634e487b7160e01b600052603260045260246000fd5b828152604060208201526000613a236040830184613fc6565b60006020828403121561414b57600080fd5b8151610ca481613a98565b634e487b7160e01b600052601160045260246000fd5b60006001820161417e5761417e614156565b5060010190565b6020808252818101527f4f776e61626c653a2063616c6c6572206973206e6f7420746865206f776e6572604082015260600190565b6020808252601790820152762632b73234b733a6b0b935b2ba21b7b73a3937b63632b960491b604082015260600190565b6001600160a01b039390931683526020830191909152604082015260600190565b81810381811115610c1757610c17614156565b6000806040838503121561423257600080fd5b825191506020830151613b2081613df7565b6001600160a01b0397881681529590961660208601526040850193909352606084019190915260ff16608083015260a082015260c081019190915260e00190565b6000808335601e1984360301811261429c57600080fd5b83018035915067ffffffffffffffff8211156142b757600080fd5b60200191503681900382131561199157600080fd5b600080604083850312156142df57600080fd5b82516142ea81613df7565b6020840151909250613b2081613df7565b6000602080838503121561430e57600080fd5b825167ffffffffffffffff8082111561432657600080fd5b818501915085601f83011261433a57600080fd5b81518181111561434c5761434c613cfc565b8060051b915061435d848301613d3b565b818152918301840191848101908884111561437757600080fd5b938501935b838510156143955784518252938501939085019061437c565b98975050505050505050565b7f416363657373436f6e74726f6c3a206163636f756e74200000000000000000008152600083516143d9816017850160208801613fa2565b7001034b99036b4b9b9b4b733903937b6329607d1b601791840191820152835161440a816028840160208801613fa2565b01602801949350505050565b602081526000610ca46020830184613fc6565b634e487b7160e01b600052603160045260246000fd5b60008251614451818460208701613fa2565b9190910192915050565b8082028115828204841417610c1757610c17614156565b80820180821115610c1757610c17614156565b60008161449457614494614156565b50600019019056fe97667070c54ef182b0f5858b034beac1b6f3089aa2d3188bb1e8929f4fa9b929416464726573733a206c6f772d6c6576656c2064656c65676174652063616c6c206661696c6564a2646970667358221220a79626630293e28a546f52389627b89d08ffa62729a7894f0eb200f0bde3892264736f6c63430008130033",
  "linkReferences": {
    "contracts/protocol/libraries/logics/DepositManagementLogic.sol": {
      "DepositManagementLogic": [
        {
          "length": 20,
          "start": 2977
        },
        {
          "length": 20,
          "start": 3173
        },
        {
          "length": 20,
          "start": 3449
        },
        {
          "length": 20,
          "start": 3520
        },
        {
          "length": 20,
          "start": 3884
        },
        {
          "length": 20,
          "start": 4923
        },
        {
          "length": 20,
          "start": 5556
        },
        {
          "length": 20,
          "start": 5842
        },
        {
          "length": 20,
          "start": 6029
        },
        {
          "length": 20,
          "start": 6199
        },
        {
          "length": 20,
          "start": 6342
        },
        {
          "length": 20,
          "start": 6478
        },
        {
          "length": 20,
          "start": 8015
        },
        {
          "length": 20,
          "start": 8159
        },
        {
          "length": 20,
          "start": 9169
        },
        {
          "length": 20,
          "start": 9776
        },
        {
          "length": 20,
          "start": 10363
        },
        {
          "length": 20,
          "start": 10575
        },
        {
          "length": 20,
          "start": 10652
        },
        {
          "length": 20,
          "start": 11191
        },
        {
          "length": 20,
          "start": 11698
        }
      ]
    }
  },
  "deployedLinkReferences": {
    "contracts/protocol/libraries/logics/DepositManagementLogic.sol": {
      "DepositManagementLogic": [
        {
          "length": 20,
          "start": 2945
        },
        {
          "length": 20,
          "start": 3141
        },
        {
          "length": 20,
          "start": 3417
        },
        {
          "length": 20,
          "start": 3488
        },
        {
          "length": 20,
          "start": 3852
        },
        {
          "length": 20,
          "start": 4891
        },
        {
          "length": 20,
          "start": 5524
        },
        {
          "length": 20,
          "start": 5810
        },
        {
          "length": 20,
          "start": 5997
        },
        {
          "length": 20,
          "start": 6167
        },
        {
          "length": 20,
          "start": 6310
        },
        {
          "length": 20,
          "start": 6446
        },
        {
          "length": 20,
          "start": 7983
        },
        {
          "length": 20,
          "start": 8127
        },
        {
          "length": 20,
          "start": 9137
        },
        {
          "length": 20,
          "start": 9744
        },
        {
          "length": 20,
          "start": 10331
        },
        {
          "length": 20,
          "start": 10543
        },
        {
          "length": 20,
          "start": 10620
        },
        {
          "length": 20,
          "start": 11159
        },
        {
          "length": 20,
          "start": 11666
        }
      ]
    }
  }
}