{
  "_format": "hh-sol-artifact-1",
  "contractName": "TokenVault",
  "sourceName": "contracts/protocol/TokenVault.sol",
  "abi": [
    {
      "inputs": [],
      "name": "AmountIsZero",
      "type": "error"
    },
    {
      "inputs": [
        {
          "internalType": "address",
          "name": "caller",
          "type": "address"
        }
      ],
      "name": "CallerNotBaseCurrency",
      "type": "error"
    },
    {
      "inputs": [],
      "name": "CallerNotOperator",
      "type": "error"
    },
    {
      "inputs": [
        {
          "internalType": "bytes32",
          "name": "ccy",
          "type": "bytes32"
        },
        {
          "internalType": "uint256",
          "name": "amount",
          "type": "uint256"
        },
        {
          "internalType": "uint256",
          "name": "msgValue",
          "type": "uint256"
        }
      ],
      "name": "InvalidAmount",
      "type": "error"
    },
    {
      "inputs": [],
      "name": "InvalidCurrency",
      "type": "error"
    },
    {
      "inputs": [],
      "name": "InvalidLiquidationProtocolFeeRate",
      "type": "error"
    },
    {
      "inputs": [],
      "name": "InvalidLiquidationThresholdRate",
      "type": "error"
    },
    {
      "inputs": [],
      "name": "InvalidLiquidatorFeeRate",
      "type": "error"
    },
    {
      "inputs": [],
      "name": "InvalidToken",
      "type": "error"
    },
    {
      "inputs": [],
      "name": "MarketTerminated",
      "type": "error"
    },
    {
      "inputs": [
        {
          "internalType": "string",
          "name": "name",
          "type": "string"
        }
      ],
      "name": "MissingAddress",
      "type": "error"
    },
    {
      "inputs": [
        {
          "internalType": "bytes32",
          "name": "role",
          "type": "bytes32"
        },
        {
          "internalType": "address",
          "name": "account",
          "type": "address"
        }
      ],
      "name": "NotAllowedAccess",
      "type": "error"
    },
    {
      "inputs": [
        {
          "internalType": "string",
          "name": "name",
          "type": "string"
        }
      ],
      "name": "OnlyAcceptedContract",
      "type": "error"
    },
    {
      "inputs": [],
      "name": "RedemptionIsRequired",
      "type": "error"
    },
    {
      "inputs": [],
      "name": "ResolverAlreadyRegistered",
      "type": "error"
    },
    {
      "inputs": [],
      "name": "UnregisteredCurrency",
      "type": "error"
    },
    {
      "anonymous": false,
      "inputs": [
        {
          "indexed": false,
          "internalType": "uint256",
          "name": "previousRate",
          "type": "uint256"
        },
        {
          "indexed": false,
          "internalType": "uint256",
          "name": "ratio",
          "type": "uint256"
        }
      ],
      "name": "AutoLiquidationThresholdRateUpdated",
      "type": "event"
    },
    {
      "anonymous": false,
      "inputs": [
        {
          "indexed": false,
          "internalType": "bytes32",
          "name": "name",
          "type": "bytes32"
        },
        {
          "indexed": false,
          "internalType": "address",
          "name": "destination",
          "type": "address"
        }
      ],
      "name": "CacheUpdated",
      "type": "event"
    },
    {
      "anonymous": false,
      "inputs": [
        {
          "indexed": false,
          "internalType": "bytes32",
          "name": "ccy",
          "type": "bytes32"
        },
        {
          "indexed": false,
          "internalType": "address",
          "name": "tokenAddress",
          "type": "address"
        },
        {
          "indexed": false,
          "internalType": "bool",
          "name": "isCollateral",
          "type": "bool"
        }
      ],
      "name": "CurrencyRegistered",
      "type": "event"
    },
    {
      "anonymous": false,
      "inputs": [
        {
          "indexed": false,
          "internalType": "bytes32",
          "name": "ccy",
          "type": "bytes32"
        },
        {
          "indexed": false,
          "internalType": "bool",
          "name": "isCollateral",
          "type": "bool"
        }
      ],
      "name": "CurrencyUpdated",
      "type": "event"
    },
    {
      "anonymous": false,
      "inputs": [
        {
          "indexed": true,
          "internalType": "address",
          "name": "user",
          "type": "address"
        },
        {
          "indexed": false,
          "internalType": "bytes32",
          "name": "ccy",
          "type": "bytes32"
        },
        {
          "indexed": false,
          "internalType": "uint256",
          "name": "amount",
          "type": "uint256"
        }
      ],
      "name": "Deposit",
      "type": "event"
    },
    {
      "anonymous": false,
      "inputs": [
        {
          "indexed": false,
          "internalType": "uint8",
          "name": "version",
          "type": "uint8"
        }
      ],
      "name": "Initialized",
      "type": "event"
    },
    {
      "anonymous": false,
      "inputs": [
        {
          "indexed": false,
          "internalType": "uint256",
          "name": "previousRate",
          "type": "uint256"
        },
        {
          "indexed": false,
          "internalType": "uint256",
          "name": "ratio",
          "type": "uint256"
        }
      ],
      "name": "LiquidationProtocolFeeRateUpdated",
      "type": "event"
    },
    {
      "anonymous": false,
      "inputs": [
        {
          "indexed": false,
          "internalType": "uint256",
          "name": "previousRate",
          "type": "uint256"
        },
        {
          "indexed": false,
          "internalType": "uint256",
          "name": "ratio",
          "type": "uint256"
        }
      ],
      "name": "LiquidatorFeeRateUpdated",
      "type": "event"
    },
    {
      "anonymous": false,
      "inputs": [
        {
          "indexed": true,
          "internalType": "address",
          "name": "previousOwner",
          "type": "address"
        },
        {
          "indexed": true,
          "internalType": "address",
          "name": "newOwner",
          "type": "address"
        }
      ],
      "name": "OwnershipTransferred",
      "type": "event"
    },
    {
      "anonymous": false,
      "inputs": [
        {
          "indexed": false,
          "internalType": "address",
          "name": "account",
          "type": "address"
        }
      ],
      "name": "Paused",
      "type": "event"
    },
    {
      "anonymous": false,
      "inputs": [
        {
          "indexed": true,
          "internalType": "bytes32",
          "name": "role",
          "type": "bytes32"
        },
        {
          "indexed": true,
          "internalType": "bytes32",
          "name": "previousAdminRole",
          "type": "bytes32"
        },
        {
          "indexed": true,
          "internalType": "bytes32",
          "name": "newAdminRole",
          "type": "bytes32"
        }
      ],
      "name": "RoleAdminChanged",
      "type": "event"
    },
    {
      "anonymous": false,
      "inputs": [
        {
          "indexed": true,
          "internalType": "bytes32",
          "name": "role",
          "type": "bytes32"
        },
        {
          "indexed": true,
          "internalType": "address",
          "name": "account",
          "type": "address"
        },
        {
          "indexed": true,
          "internalType": "address",
          "name": "sender",
          "type": "address"
        }
      ],
      "name": "RoleGranted",
      "type": "event"
    },
    {
      "anonymous": false,
      "inputs": [
        {
          "indexed": true,
          "internalType": "bytes32",
          "name": "role",
          "type": "bytes32"
        },
        {
          "indexed": true,
          "internalType": "address",
          "name": "account",
          "type": "address"
        },
        {
          "indexed": true,
          "internalType": "address",
          "name": "sender",
          "type": "address"
        }
      ],
      "name": "RoleRevoked",
      "type": "event"
    },
    {
      "anonymous": false,
      "inputs": [
        {
          "indexed": true,
          "internalType": "bytes32",
          "name": "ccy",
          "type": "bytes32"
        },
        {
          "indexed": true,
          "internalType": "address",
          "name": "from",
          "type": "address"
        },
        {
          "indexed": true,
          "internalType": "address",
          "name": "to",
          "type": "address"
        },
        {
          "indexed": false,
          "internalType": "uint256",
          "name": "amount",
          "type": "uint256"
        }
      ],
      "name": "Transfer",
      "type": "event"
    },
    {
      "anonymous": false,
      "inputs": [
        {
          "indexed": false,
          "internalType": "address",
          "name": "account",
          "type": "address"
        }
      ],
      "name": "Unpaused",
      "type": "event"
    },
    {
      "anonymous": false,
      "inputs": [
        {
          "indexed": true,
          "internalType": "address",
          "name": "user",
          "type": "address"
        },
        {
          "indexed": false,
          "internalType": "bytes32",
          "name": "ccy",
          "type": "bytes32"
        },
        {
          "indexed": false,
          "internalType": "uint256",
          "name": "amount",
          "type": "uint256"
        }
      ],
      "name": "Withdraw",
      "type": "event"
    },
    {
      "inputs": [],
      "name": "DEFAULT_ADMIN_ROLE",
      "outputs": [
        {
          "internalType": "bytes32",
          "name": "",
          "type": "bytes32"
        }
      ],
      "stateMutability": "view",
      "type": "function"
    },
    {
      "inputs": [],
      "name": "OPERATOR_ROLE",
      "outputs": [
        {
          "internalType": "bytes32",
          "name": "",
          "type": "bytes32"
        }
      ],
      "stateMutability": "view",
      "type": "function"
    },
    {
      "inputs": [
        {
          "internalType": "address",
          "name": "_user",
          "type": "address"
        },
        {
          "internalType": "bytes32",
          "name": "_ccy",
          "type": "bytes32"
        },
        {
          "internalType": "uint256",
          "name": "_amount",
          "type": "uint256"
        }
      ],
      "name": "addDepositAmount",
      "outputs": [],
      "stateMutability": "nonpayable",
      "type": "function"
    },
    {
      "inputs": [
        {
          "internalType": "address",
          "name": "admin",
          "type": "address"
        }
      ],
      "name": "addOperator",
      "outputs": [],
      "stateMutability": "nonpayable",
      "type": "function"
    },
    {
      "inputs": [],
      "name": "buildCache",
      "outputs": [],
      "stateMutability": "nonpayable",
      "type": "function"
    },
    {
      "inputs": [
        {
          "internalType": "address",
          "name": "_user",
          "type": "address"
        },
        {
          "components": [
            {
              "internalType": "bytes32",
              "name": "ccy",
              "type": "bytes32"
            },
            {
              "internalType": "uint256",
              "name": "workingLendOrdersAmount",
              "type": "uint256"
            },
            {
              "internalType": "uint256",
              "name": "claimableAmount",
              "type": "uint256"
            },
            {
              "internalType": "uint256",
              "name": "workingBorrowOrdersAmount",
              "type": "uint256"
            },
            {
              "internalType": "uint256",
              "name": "debtAmount",
              "type": "uint256"
            },
            {
              "internalType": "uint256",
              "name": "lentAmount",
              "type": "uint256"
            },
            {
              "internalType": "uint256",
              "name": "borrowedAmount",
              "type": "uint256"
            }
          ],
          "internalType": "struct ILendingMarketController.AdditionalFunds",
          "name": "_additionalFunds",
          "type": "tuple"
        }
      ],
      "name": "calculateCoverage",
      "outputs": [
        {
          "internalType": "uint256",
          "name": "coverage",
          "type": "uint256"
        },
        {
          "internalType": "bool",
          "name": "isInsufficientDepositAmount",
          "type": "bool"
        }
      ],
      "stateMutability": "view",
      "type": "function"
    },
    {
      "inputs": [
        {
          "internalType": "uint256",
          "name": "_amount",
          "type": "uint256"
        }
      ],
      "name": "calculateLiquidationFees",
      "outputs": [
        {
          "internalType": "uint256",
          "name": "protocolFee",
          "type": "uint256"
        },
        {
          "internalType": "uint256",
          "name": "liquidatorFee",
          "type": "uint256"
        }
      ],
      "stateMutability": "view",
      "type": "function"
    },
    {
      "inputs": [
        {
          "internalType": "address",
          "name": "_user",
          "type": "address"
        },
        {
          "internalType": "bytes32",
          "name": "_ccy",
          "type": "bytes32"
        }
      ],
      "name": "cleanUpUsedCurrencies",
      "outputs": [],
      "stateMutability": "nonpayable",
      "type": "function"
    },
    {
      "inputs": [
        {
          "internalType": "bytes32",
          "name": "_ccy",
          "type": "bytes32"
        },
        {
          "internalType": "uint256",
          "name": "_amount",
          "type": "uint256"
        }
      ],
      "name": "deposit",
      "outputs": [],
      "stateMutability": "payable",
      "type": "function"
    },
    {
      "inputs": [
        {
          "internalType": "address",
          "name": "_from",
          "type": "address"
        },
        {
          "internalType": "bytes32",
          "name": "_ccy",
          "type": "bytes32"
        },
        {
          "internalType": "uint256",
          "name": "_amount",
          "type": "uint256"
        }
      ],
      "name": "depositFrom",
      "outputs": [],
      "stateMutability": "payable",
      "type": "function"
    },
    {
      "inputs": [
        {
          "internalType": "address",
          "name": "_user",
          "type": "address"
        },
        {
          "internalType": "bytes32",
          "name": "_ccy",
          "type": "bytes32"
        }
      ],
      "name": "executeForcedReset",
      "outputs": [
        {
          "internalType": "uint256",
          "name": "",
          "type": "uint256"
        }
      ],
      "stateMutability": "nonpayable",
      "type": "function"
    },
    {
      "inputs": [
        {
          "internalType": "address",
          "name": "_user",
          "type": "address"
        },
        {
          "internalType": "bytes32",
          "name": "_ccy",
          "type": "bytes32"
        }
      ],
      "name": "getBorrowableAmount",
      "outputs": [
        {
          "internalType": "uint256",
          "name": "",
          "type": "uint256"
        }
      ],
      "stateMutability": "view",
      "type": "function"
    },
    {
      "inputs": [
        {
          "internalType": "address",
          "name": "_user",
          "type": "address"
        },
        {
          "internalType": "bytes32",
          "name": "_ccy",
          "type": "bytes32"
        }
      ],
      "name": "getCollateralAmount",
      "outputs": [
        {
          "internalType": "uint256",
          "name": "amount",
          "type": "uint256"
        }
      ],
      "stateMutability": "view",
      "type": "function"
    },
    {
      "inputs": [],
      "name": "getCollateralCurrencies",
      "outputs": [
        {
          "internalType": "bytes32[]",
          "name": "",
          "type": "bytes32[]"
        }
      ],
      "stateMutability": "view",
      "type": "function"
    },
    {
      "inputs": [
        {
          "internalType": "address",
          "name": "_user",
          "type": "address"
        }
      ],
      "name": "getCoverage",
      "outputs": [
        {
          "internalType": "uint256",
          "name": "",
          "type": "uint256"
        }
      ],
      "stateMutability": "view",
      "type": "function"
    },
    {
      "inputs": [
        {
          "internalType": "address",
          "name": "_user",
          "type": "address"
        },
        {
          "internalType": "bytes32",
          "name": "_ccy",
          "type": "bytes32"
        }
      ],
      "name": "getDepositAmount",
      "outputs": [
        {
          "internalType": "uint256",
          "name": "",
          "type": "uint256"
        }
      ],
      "stateMutability": "view",
      "type": "function"
    },
    {
      "inputs": [
        {
          "internalType": "address",
          "name": "_user",
          "type": "address"
        },
        {
          "internalType": "bytes32",
          "name": "_liquidationCcy",
          "type": "bytes32"
        },
        {
          "internalType": "uint256",
          "name": "_liquidationAmountMaximum",
          "type": "uint256"
        }
      ],
      "name": "getLiquidationAmount",
      "outputs": [
        {
          "internalType": "uint256",
          "name": "liquidationAmount",
          "type": "uint256"
        },
        {
          "internalType": "uint256",
          "name": "protocolFee",
          "type": "uint256"
        },
        {
          "internalType": "uint256",
          "name": "liquidatorFee",
          "type": "uint256"
        }
      ],
      "stateMutability": "view",
      "type": "function"
    },
    {
      "inputs": [],
      "name": "getLiquidationConfiguration",
      "outputs": [
        {
          "internalType": "uint256",
          "name": "liquidationThresholdRate",
          "type": "uint256"
        },
        {
          "internalType": "uint256",
          "name": "liquidationProtocolFeeRate",
          "type": "uint256"
        },
        {
          "internalType": "uint256",
          "name": "liquidatorFeeRate",
          "type": "uint256"
        }
      ],
      "stateMutability": "view",
      "type": "function"
    },
    {
      "inputs": [],
      "name": "getRevision",
      "outputs": [
        {
          "internalType": "uint256",
          "name": "",
          "type": "uint256"
        }
      ],
      "stateMutability": "pure",
      "type": "function"
    },
    {
      "inputs": [
        {
          "internalType": "bytes32",
          "name": "role",
          "type": "bytes32"
        }
      ],
      "name": "getRoleAdmin",
      "outputs": [
        {
          "internalType": "bytes32",
          "name": "",
          "type": "bytes32"
        }
      ],
      "stateMutability": "view",
      "type": "function"
    },
    {
      "inputs": [
        {
          "internalType": "bytes32",
          "name": "_ccy",
          "type": "bytes32"
        }
      ],
      "name": "getTokenAddress",
      "outputs": [
        {
          "internalType": "address",
          "name": "",
          "type": "address"
        }
      ],
      "stateMutability": "view",
      "type": "function"
    },
    {
      "inputs": [
        {
          "internalType": "address",
          "name": "_user",
          "type": "address"
        }
      ],
      "name": "getTotalCollateralAmount",
      "outputs": [
        {
          "internalType": "uint256",
          "name": "totalCollateralAmount",
          "type": "uint256"
        }
      ],
      "stateMutability": "view",
      "type": "function"
    },
    {
      "inputs": [
        {
          "internalType": "bytes32",
          "name": "_ccy",
          "type": "bytes32"
        }
      ],
      "name": "getTotalDepositAmount",
      "outputs": [
        {
          "internalType": "uint256",
          "name": "",
          "type": "uint256"
        }
      ],
      "stateMutability": "view",
      "type": "function"
    },
    {
      "inputs": [
        {
          "internalType": "address",
          "name": "_user",
          "type": "address"
        }
      ],
      "name": "getTotalUnusedCollateralAmount",
      "outputs": [
        {
          "internalType": "uint256",
          "name": "",
          "type": "uint256"
        }
      ],
      "stateMutability": "view",
      "type": "function"
    },
    {
      "inputs": [
        {
          "internalType": "address",
          "name": "_user",
          "type": "address"
        }
      ],
      "name": "getUsedCurrencies",
      "outputs": [
        {
          "internalType": "bytes32[]",
          "name": "",
          "type": "bytes32[]"
        }
      ],
      "stateMutability": "view",
      "type": "function"
    },
    {
      "inputs": [
        {
          "internalType": "bytes32",
          "name": "_ccy",
          "type": "bytes32"
        },
        {
          "internalType": "address",
          "name": "_user",
          "type": "address"
        }
      ],
      "name": "getWithdrawableCollateral",
      "outputs": [
        {
          "internalType": "uint256",
          "name": "",
          "type": "uint256"
        }
      ],
      "stateMutability": "view",
      "type": "function"
    },
    {
      "inputs": [
        {
          "internalType": "address",
          "name": "_user",
          "type": "address"
        }
      ],
      "name": "getWithdrawableCollateral",
      "outputs": [
        {
          "internalType": "uint256",
          "name": "",
          "type": "uint256"
        }
      ],
      "stateMutability": "view",
      "type": "function"
    },
    {
      "inputs": [
        {
          "internalType": "bytes32",
          "name": "role",
          "type": "bytes32"
        },
        {
          "internalType": "address",
          "name": "account",
          "type": "address"
        }
      ],
      "name": "grantRole",
      "outputs": [],
      "stateMutability": "nonpayable",
      "type": "function"
    },
    {
      "inputs": [
        {
          "internalType": "bytes32",
          "name": "role",
          "type": "bytes32"
        },
        {
          "internalType": "address",
          "name": "account",
          "type": "address"
        }
      ],
      "name": "hasRole",
      "outputs": [
        {
          "internalType": "bool",
          "name": "",
          "type": "bool"
        }
      ],
      "stateMutability": "view",
      "type": "function"
    },
    {
      "inputs": [
        {
          "internalType": "address",
          "name": "_owner",
          "type": "address"
        },
        {
          "internalType": "address",
          "name": "_resolver",
          "type": "address"
        },
        {
          "internalType": "uint256",
          "name": "_liquidationThresholdRate",
          "type": "uint256"
        },
        {
          "internalType": "uint256",
          "name": "_liquidationProtocolFeeRate",
          "type": "uint256"
        },
        {
          "internalType": "uint256",
          "name": "_liquidatorFeeRate",
          "type": "uint256"
        },
        {
          "internalType": "address",
          "name": "_nativeToken",
          "type": "address"
        }
      ],
      "name": "initialize",
      "outputs": [],
      "stateMutability": "nonpayable",
      "type": "function"
    },
    {
      "inputs": [
        {
          "internalType": "bytes32[]",
          "name": "_ccys",
          "type": "bytes32[]"
        }
      ],
      "name": "isCollateral",
      "outputs": [
        {
          "internalType": "bool[]",
          "name": "isCollateralCurrencies",
          "type": "bool[]"
        }
      ],
      "stateMutability": "view",
      "type": "function"
    },
    {
      "inputs": [
        {
          "internalType": "bytes32",
          "name": "_ccy",
          "type": "bytes32"
        }
      ],
      "name": "isCollateral",
      "outputs": [
        {
          "internalType": "bool",
          "name": "",
          "type": "bool"
        }
      ],
      "stateMutability": "view",
      "type": "function"
    },
    {
      "inputs": [
        {
          "internalType": "address",
          "name": "_user",
          "type": "address"
        },
        {
          "internalType": "bytes32",
          "name": "_orderCcy",
          "type": "bytes32"
        }
      ],
      "name": "isCovered",
      "outputs": [
        {
          "internalType": "bool",
          "name": "isEnoughCollateral",
          "type": "bool"
        },
        {
          "internalType": "bool",
          "name": "isEnoughDepositInOrderCcy",
          "type": "bool"
        }
      ],
      "stateMutability": "view",
      "type": "function"
    },
    {
      "inputs": [
        {
          "internalType": "bytes32",
          "name": "_ccy",
          "type": "bytes32"
        }
      ],
      "name": "isRegisteredCurrency",
      "outputs": [
        {
          "internalType": "bool",
          "name": "",
          "type": "bool"
        }
      ],
      "stateMutability": "view",
      "type": "function"
    },
    {
      "inputs": [],
      "name": "isResolverCached",
      "outputs": [
        {
          "internalType": "bool",
          "name": "",
          "type": "bool"
        }
      ],
      "stateMutability": "view",
      "type": "function"
    },
    {
      "inputs": [
        {
          "internalType": "bytes[]",
          "name": "data",
          "type": "bytes[]"
        }
      ],
      "name": "multicall",
      "outputs": [
        {
          "internalType": "bytes[]",
          "name": "results",
          "type": "bytes[]"
        }
      ],
      "stateMutability": "nonpayable",
      "type": "function"
    },
    {
      "inputs": [],
      "name": "owner",
      "outputs": [
        {
          "internalType": "address",
          "name": "",
          "type": "address"
        }
      ],
      "stateMutability": "view",
      "type": "function"
    },
    {
      "inputs": [],
      "name": "pause",
      "outputs": [],
      "stateMutability": "nonpayable",
      "type": "function"
    },
    {
      "inputs": [],
      "name": "paused",
      "outputs": [
        {
          "internalType": "bool",
          "name": "",
          "type": "bool"
        }
      ],
      "stateMutability": "view",
      "type": "function"
    },
    {
      "inputs": [
        {
          "internalType": "bytes32",
          "name": "_ccy",
          "type": "bytes32"
        },
        {
          "internalType": "address",
          "name": "_tokenAddress",
          "type": "address"
        },
        {
          "internalType": "bool",
          "name": "_isCollateral",
          "type": "bool"
        }
      ],
      "name": "registerCurrency",
      "outputs": [],
      "stateMutability": "nonpayable",
      "type": "function"
    },
    {
      "inputs": [
        {
          "internalType": "address",
          "name": "_user",
          "type": "address"
        },
        {
          "internalType": "bytes32",
          "name": "_ccy",
          "type": "bytes32"
        },
        {
          "internalType": "uint256",
          "name": "_amount",
          "type": "uint256"
        }
      ],
      "name": "removeDepositAmount",
      "outputs": [],
      "stateMutability": "nonpayable",
      "type": "function"
    },
    {
      "inputs": [
        {
          "internalType": "address",
          "name": "admin",
          "type": "address"
        }
      ],
      "name": "removeOperator",
      "outputs": [],
      "stateMutability": "nonpayable",
      "type": "function"
    },
    {
      "inputs": [],
      "name": "renounceOwnership",
      "outputs": [],
      "stateMutability": "nonpayable",
      "type": "function"
    },
    {
      "inputs": [
        {
          "internalType": "bytes32",
          "name": "role",
          "type": "bytes32"
        },
        {
          "internalType": "address",
          "name": "account",
          "type": "address"
        }
      ],
      "name": "renounceRole",
      "outputs": [],
      "stateMutability": "pure",
      "type": "function"
    },
    {
      "inputs": [],
      "name": "requiredContracts",
      "outputs": [
        {
          "internalType": "bytes32[]",
          "name": "contracts",
          "type": "bytes32[]"
        }
      ],
      "stateMutability": "pure",
      "type": "function"
    },
    {
      "inputs": [],
      "name": "resolver",
      "outputs": [
        {
          "internalType": "contract IAddressResolver",
          "name": "",
          "type": "address"
        }
      ],
      "stateMutability": "view",
      "type": "function"
    },
    {
      "inputs": [
        {
          "internalType": "bytes32",
          "name": "role",
          "type": "bytes32"
        },
        {
          "internalType": "address",
          "name": "account",
          "type": "address"
        }
      ],
      "name": "revokeRole",
      "outputs": [],
      "stateMutability": "nonpayable",
      "type": "function"
    },
    {
      "inputs": [
        {
          "internalType": "bytes4",
          "name": "interfaceId",
          "type": "bytes4"
        }
      ],
      "name": "supportsInterface",
      "outputs": [
        {
          "internalType": "bool",
          "name": "",
          "type": "bool"
        }
      ],
      "stateMutability": "view",
      "type": "function"
    },
    {
      "inputs": [
        {
          "internalType": "bytes32",
          "name": "_ccy",
          "type": "bytes32"
        },
        {
          "internalType": "address",
          "name": "_from",
          "type": "address"
        },
        {
          "internalType": "address",
          "name": "_to",
          "type": "address"
        },
        {
          "internalType": "uint256",
          "name": "_amount",
          "type": "uint256"
        }
      ],
      "name": "transferFrom",
      "outputs": [
        {
          "internalType": "uint256",
          "name": "untransferredAmount",
          "type": "uint256"
        }
      ],
      "stateMutability": "nonpayable",
      "type": "function"
    },
    {
      "inputs": [
        {
          "internalType": "address",
          "name": "newOwner",
          "type": "address"
        }
      ],
      "name": "transferOwnership",
      "outputs": [],
      "stateMutability": "nonpayable",
      "type": "function"
    },
    {
      "inputs": [],
      "name": "unpause",
      "outputs": [],
      "stateMutability": "nonpayable",
      "type": "function"
    },
    {
      "inputs": [
        {
          "internalType": "bytes32",
          "name": "_ccy",
          "type": "bytes32"
        },
        {
          "internalType": "bool",
          "name": "_isCollateral",
          "type": "bool"
        }
      ],
      "name": "updateCurrency",
      "outputs": [],
      "stateMutability": "nonpayable",
      "type": "function"
    },
    {
      "inputs": [
        {
          "internalType": "uint256",
          "name": "_liquidationThresholdRate",
          "type": "uint256"
        },
        {
          "internalType": "uint256",
          "name": "_liquidationProtocolFeeRate",
          "type": "uint256"
        },
        {
          "internalType": "uint256",
          "name": "_liquidatorFeeRate",
          "type": "uint256"
        }
      ],
      "name": "updateLiquidationConfiguration",
      "outputs": [],
      "stateMutability": "nonpayable",
      "type": "function"
    },
    {
      "inputs": [
        {
          "internalType": "bytes32",
          "name": "_ccy",
          "type": "bytes32"
        },
        {
          "internalType": "uint256",
          "name": "_amount",
          "type": "uint256"
        }
      ],
      "name": "withdraw",
      "outputs": [],
      "stateMutability": "nonpayable",
      "type": "function"
    },
    {
      "stateMutability": "payable",
      "type": "receive"
    }
  ],
  "bytecode": "0x608060405234801561001057600080fd5b50613e14806100206000396000f3fe6080604052600436106103385760003560e01c80635bffeb66116101ab578063a217fddf116100f7578063d5e190d011610095578063f5b541a61161006f578063f5b541a6146109ae578063f7ef28d4146109d0578063fb7bd3b414610a07578063fc70081014610a2757600080fd5b8063d5e190d014610964578063ed6dd51414610979578063f2fde38b1461098e57600080fd5b8063b12e4410116100d1578063b12e4410146108e4578063b1a5d12d14610904578063ca42303114610924578063d547741f1461094457600080fd5b8063a217fddf14610882578063ac8a584a14610897578063ac9650d8146108b757600080fd5b80638456cb591161016457806391d148541161013e57806391d148541461080f578063948060dd1461082f57806396994e371461084f5780639870d7fe1461086257600080fd5b80638456cb59146107c55780638da5cb5b146107da5780638e19aff3146107ef57600080fd5b80635bffeb661461071b5780635c975abb1461073b5780635d95df8a14610750578063715018a6146107705780637d044b43146107855780637d44828e146107a557600080fd5b80632f2ff15d116102855780634ba0c9b5116102235780635257ed67116101fd5780635257ed671461066b57806354821c21146106a65780635575fba7146106c657806359047200146106e657600080fd5b80634ba0c9b51461060b5780634c6aa99c1461062b578063500d2f6d1461064b57600080fd5b8063392d43011161025f578063392d4301146105875780633d03b9da146105a75780633f4ba83a146105c95780633f90a08e146105de57600080fd5b80632f2ff15d1461052757806330312daa1461054757806336568abe1461056757600080fd5b80630eadd244116102f2578063248a9ca3116102cc578063248a9ca3146104bd57806325a89032146104dd57806329985e5a146104fd5780632af64bd31461051257600080fd5b80630eadd244146104765780631316529d146104965780631de26e16146104aa57600080fd5b8062fcf2621461037157806301ffc9a7146103ab5780630253cd7e146103db578063040cf0201461040957806304f3bcec146104295780630cf7505d1461045657600080fd5b3661036c5761034633610a47565b61036a5760405163efd4e4e160e01b81523360048201526024015b60405180910390fd5b005b600080fd5b34801561037d57600080fd5b5061039161038c36600461348c565b610a68565b604080519283526020830191909152015b60405180910390f35b3480156103b757600080fd5b506103cb6103c63660046134a5565b610ae7565b60405190151581526020016103a2565b3480156103e757600080fd5b506103fb6103f63660046134e4565b610b1e565b6040519081526020016103a2565b34801561041557600080fd5b5061036a610424366004613510565b610bac565b34801561043557600080fd5b5061043e610beb565b6040516001600160a01b0390911681526020016103a2565b34801561046257600080fd5b506103cb61047136600461348c565b610c04565b34801561048257600080fd5b506103fb610491366004613532565b610c32565b3480156104a257600080fd5b5060016103fb565b61036a6104b8366004613510565b610c7c565b3480156104c957600080fd5b506103fb6104d836600461348c565b610d3d565b3480156104e957600080fd5b506103fb6104f8366004613562565b610d5b565b34801561050957600080fd5b5061036a610ddb565b34801561051e57600080fd5b506103cb610f58565b34801561053357600080fd5b5061036a610542366004613532565b61108a565b34801561055357600080fd5b5061036a61056236600461357f565b6110a6565b34801561057357600080fd5b5061036a610582366004613532565b6110e0565b34801561059357600080fd5b5061036a6105a23660046134e4565b61110b565b3480156105b357600080fd5b506105bc6111c2565b6040516103a291906135ab565b3480156105d557600080fd5b5061036a611284565b3480156105ea57600080fd5b506105fe6105f9366004613634565b6112c3565b6040516103a29190613676565b34801561061757600080fd5b5061036a6106263660046136b0565b611373565b34801561063757600080fd5b506103fb61064636600461348c565b61144c565b34801561065757600080fd5b506103fb6106663660046136e5565b61146a565b34801561067757600080fd5b5061068b6106863660046136b0565b6115bc565b604080519384526020840192909252908201526060016103a2565b3480156106b257600080fd5b506103fb6106c1366004613562565b61164c565b3480156106d257600080fd5b506103fb6106e13660046134e4565b6116d4565b3480156106f257600080fd5b5061070661070136600461379d565b61171e565b604080519283529015156020830152016103a2565b34801561072757600080fd5b5061036a610736366004613836565b6117ee565b34801561074757600080fd5b506103cb611a18565b34801561075c57600080fd5b506103cb61076b36600461348c565b611a2b565b34801561077c57600080fd5b5061036a611a42565b34801561079157600080fd5b506103fb6107a03660046134e4565b611a7b565b3480156107b157600080fd5b506103fb6107c03660046134e4565b611b6a565b3480156107d157600080fd5b5061036a611bfa565b3480156107e657600080fd5b5061043e611c37565b3480156107fb57600080fd5b5061036a61080a366004613878565b611c41565b34801561081b57600080fd5b506103cb61082a366004613532565b611d84565b34801561083b57600080fd5b506103fb61084a366004613562565b611db8565b61036a61085d3660046136b0565b611dfb565b34801561086e57600080fd5b5061036a61087d366004613562565b611ece565b34801561088e57600080fd5b506103fb600081565b3480156108a357600080fd5b5061036a6108b2366004613562565b611ee9565b3480156108c357600080fd5b506108d76108d2366004613634565b611f01565b6040516103a291906138ed565b3480156108f057600080fd5b5061043e6108ff36600461348c565b611fef565b34801561091057600080fd5b5061036a61091f36600461394f565b612016565b34801561093057600080fd5b506103fb61093f366004613562565b6121c0565b34801561095057600080fd5b5061036a61095f366004613532565b612203565b34801561097057600080fd5b506105bc612248565b34801561098557600080fd5b5061068b612262565b34801561099a57600080fd5b5061036a6109a9366004613562565b612293565b3480156109ba57600080fd5b506103fb600080516020613d9883398151915281565b3480156109dc57600080fd5b506109f06109eb3660046134e4565b612330565b6040805192151583529015156020830152016103a2565b348015610a1357600080fd5b5061036a610a223660046136b0565b6123b7565b348015610a3357600080fd5b506105bc610a42366004613562565b61245a565b6000610a516124dd565b546001600160a01b03928316921691909114919050565b604051627e793160e11b815260048101829052600090819073__$e77f6d4722b46e0b0a57517726dbfd997e$__9062fcf262906024016040805180830381865af4158015610aba573d6000803e3d6000fd5b505050506040513d601f19601f82011682018060405250810190610ade91906139b6565b91509150915091565b60006001600160e01b03198216637965db0b60e01b1480610b1857506301ffc9a760e01b6001600160e01b03198316145b92915050565b604051630129e6bf60e11b81526001600160a01b03831660048201526024810182905260009073__$e77f6d4722b46e0b0a57517726dbfd997e$__90630253cd7e906044015b602060405180830381865af4158015610b81573d6000803e3d6000fd5b505050506040513d601f19601f82011682018060405250810190610ba591906139da565b9392505050565b610bb461250b565b81610bbe81610c04565b610bdb57604051630f4a6ccd60e21b815260040160405180910390fd5b610be6338484612553565b505050565b6000610bf5612751565b546001600160a01b0316919050565b600080610c0f61277f565b60009384526005016020526040909220546001600160a01b031690911415919050565b6040516303ab749160e21b8152600481018390526001600160a01b038216602482015260009073__$e77f6d4722b46e0b0a57517726dbfd997e$__90630eadd24490604401610b64565b610c846127ad565b6001600160a01b031663d1cc99766040518163ffffffff1660e01b8152600401602060405180830381865afa158015610cc1573d6000803e3d6000fd5b505050506040513d601f19601f82011682018060405250810190610ce591906139f3565b15610d03576040516319a90b2f60e21b815260040160405180910390fd5b610d0b61250b565b81610d1581610c04565b610d3257604051630f4a6ccd60e21b815260040160405180910390fd5b610be63384846127b7565b6000610d4761290a565b600092835260205250604090206001015490565b6040516312d4481960e11b81526001600160a01b038216600482015260009073__$e77f6d4722b46e0b0a57517726dbfd997e$__906325a89032906024015b602060405180830381865af4158015610db7573d6000803e3d6000fd5b505050506040513d601f19601f82011682018060405250810190610b1891906139da565b6000610de56111c2565b905060005b8151811015610f54576000828281518110610e0757610e07613a10565b602002602001015190506000610e1b612751565b54604080517f5265736f6c766572206d697373696e67207461726765743a200000000000000060208201526039808201869052825180830390910181526059820192839052636795dbcd60e01b9092526001600160a01b0390921691636795dbcd91610e8c91869190605d01613a26565b602060405180830381865afa158015610ea9573d6000803e3d6000fd5b505050506040513d601f19601f82011682018060405250810190610ecd9190613a47565b905080610ed8612751565b6000848152600191909101602090815260409182902080546001600160a01b0319166001600160a01b039485161790558151858152928416908301527f88a93678a3692f6789d9546fc621bf7234b101ddb7d4fe479455112831b8aa68910160405180910390a150508080610f4c90613a7a565b915050610dea565b5050565b600080610f636111c2565b905060005b8151811015611081576000828281518110610f8557610f85613a10565b60200260200101519050610f97612751565b600082815260019190910160205260409020546001600160a01b0316610fbb612751565b546040516321f8a72160e01b8152600481018490526001600160a01b03909116906321f8a72190602401602060405180830381865afa158015611002573d6000803e3d6000fd5b505050506040513d601f19601f820116820180604052508101906110269190613a47565b6001600160a01b031614158061105f57506000611041612751565b600083815260019190910160205260409020546001600160a01b0316145b1561106e576000935050505090565b508061107981613a7a565b915050610f68565b50600191505090565b61109382610d3d565b61109c81612938565b610be68383612942565b336110af611c37565b6001600160a01b0316146110d55760405162461bcd60e51b815260040161036190613a93565b610be68383836129b9565b604051631eb5512b60e31b8152600481018390526001600160a01b0382166024820152604401610361565b61111361250b565b61111b612b40565b6001600160a01b0316336001600160a01b03161461114c57604051637b3f42c160e01b815260040161036190613ac8565b60405163392d430160e01b81526001600160a01b03831660048201526024810182905273__$e77f6d4722b46e0b0a57517726dbfd997e$__9063392d43019060440160006040518083038186803b1580156111a657600080fd5b505af41580156111ba573d6000803e3d6000fd5b505050505050565b604080516003808252608082019092526060916020820183803683370190505090507121bab93932b731bca1b7b73a3937b63632b960711b8160008151811061120d5761120d613a10565b602002602001018181525050762632b73234b733a6b0b935b2ba21b7b73a3937b63632b960491b8160018151811061124757611247613a10565b6020026020010181815250506a14995cd95c9d99519d5b9960aa1b8160028151811061127557611275613a10565b60200260200101818152505090565b61129c600080516020613d9883398151915233611d84565b6112b95760405163a5523ee560e01b815260040160405180910390fd5b6112c1612b65565b565b6060818067ffffffffffffffff8111156112df576112df61372d565b604051908082528060200260200182016040528015611308578160200160208202803683370190505b50915060005b8181101561136b5761133785858381811061132b5761132b613a10565b90506020020135611a2b565b83828151811061134957611349613a10565b911515602092830291909101909101528061136381613a7a565b91505061130e565b505092915050565b61137b61250b565b611383612b40565b6001600160a01b0316336001600160a01b0316146113b457604051637b3f42c160e01b815260040161036190613ac8565b816113be81610c04565b6113db57604051630f4a6ccd60e21b815260040160405180910390fd5b604051634ba0c9b560e01b815273__$e77f6d4722b46e0b0a57517726dbfd997e$__90634ba0c9b59061141690879087908790600401613af9565b60006040518083038186803b15801561142e57600080fd5b505af4158015611442573d6000803e3d6000fd5b5050505050505050565b600061145661277f565b600092835260070160205250604090205490565b600061147461250b565b61147c612b40565b6001600160a01b0316336001600160a01b0316146114ad57604051637b3f42c160e01b815260040161036190613ac8565b846114b781610c04565b6114d457604051630f4a6ccd60e21b815260040160405180910390fd5b60405163500d2f6d60e01b8152600481018790526001600160a01b038087166024830152851660448201526064810184905273__$e77f6d4722b46e0b0a57517726dbfd997e$__9063500d2f6d90608401602060405180830381865af4158015611542573d6000803e3d6000fd5b505050506040513d601f19601f8201168201806040525081019061156691906139da565b91506001600160a01b03808516908616877ff8ca259b4b82670be7501ff56ad1fc9c7cd199d3431e3c502f2c5f86884bc1506115a28688613b1a565b60405190815260200160405180910390a450949350505050565b600080600073__$e77f6d4722b46e0b0a57517726dbfd997e$__635257ed678787876040518463ffffffff1660e01b81526004016115fc93929190613af9565b606060405180830381865af4158015611619573d6000803e3d6000fd5b505050506040513d601f19601f8201168201806040525081019061163d9190613b2d565b92509250925093509350939050565b6040516354821c2160e01b81526001600160a01b038216600482015260009073__$e77f6d4722b46e0b0a57517726dbfd997e$__906354821c2190602401606060405180830381865af41580156116a7573d6000803e3d6000fd5b505050506040513d601f19601f820116820180604052508101906116cb9190613b2d565b50909392505050565b604051635575fba760e01b81526001600160a01b03831660048201526024810182905260009073__$e77f6d4722b46e0b0a57517726dbfd997e$__90635575fba790604401610b64565b60408051632910ae9d60e01b81526001600160a01b0384166004820152825160248201526020830151604482015290820151606482015260608201516084820152608082015160a482015260a082015160c482015260c082015160e4820152600090819073__$e77f6d4722b46e0b0a57517726dbfd997e$__90632910ae9d90610104016040805180830381865af41580156117be573d6000803e3d6000fd5b505050506040513d601f19601f820116820180604052508101906117e29190613b5b565b915091505b9250929050565b6117f66127ad565b6001600160a01b031663d1cc99766040518163ffffffff1660e01b8152600401602060405180830381865afa158015611833573d6000803e3d6000fd5b505050506040513d601f19601f8201168201806040525081019061185791906139f3565b15611875576040516319a90b2f60e21b815260040160405180910390fd5b3361187e611c37565b6001600160a01b0316146118a45760405162461bcd60e51b815260040161036190613a93565b6118ac612bc6565b6001600160a01b0316631eae0893846040518263ffffffff1660e01b81526004016118d991815260200190565b602060405180830381865afa1580156118f6573d6000803e3d6000fd5b505050506040513d601f19601f8201168201806040525081019061191a91906139f3565b158061192a575061192a83610c04565b1561194857604051631eb3268560e31b815260040160405180910390fd5b6001600160a01b03821661196f5760405163c1ab6dc160e01b815260040160405180910390fd5b8161197861277f565b60008581526005919091016020526040902080546001600160a01b0319166001600160a01b039290921691909117905580156119c5576119c3836119ba61277f565b60030190612bd0565b505b604080518481526001600160a01b0384166020820152821515918101919091527ff776c30df345d55df252bb5181a0c2bb23d601166606790a6f1b938d7e158503906060015b60405180910390a1505050565b6000611a22612bdc565b5460ff16919050565b6000610b1882611a3961277f565b60030190612c0a565b33611a4b611c37565b6001600160a01b031614611a715760405162461bcd60e51b815260040161036190613a93565b6112c16000612c22565b6000611a85612b40565b6001600160a01b0316336001600160a01b031614611ab657604051637b3f42c160e01b815260040161036190613ac8565b81611ac081610c04565b611add57604051630f4a6ccd60e21b815260040160405180910390fd5b604051637d044b4360e01b81526001600160a01b03851660048201526024810184905273__$e77f6d4722b46e0b0a57517726dbfd997e$__90637d044b4390604401602060405180830381865af4158015611b3c573d6000803e3d6000fd5b505050506040513d601f19601f82011682018060405250810190611b6091906139da565b91505b5092915050565b604051633ea2414760e11b81526001600160a01b03831660048201526024810182905260009073__$e77f6d4722b46e0b0a57517726dbfd997e$__90637d44828e90604401606060405180830381865af4158015611bcc573d6000803e3d6000fd5b505050506040513d601f19601f82011682018060405250810190611bf09190613b2d565b5090949350505050565b611c12600080516020613d9883398151915233611d84565b611c2f5760405163a5523ee560e01b815260040160405180910390fd5b6112c1612c8f565b6000610bf5612cd7565b611c496127ad565b6001600160a01b031663d1cc99766040518163ffffffff1660e01b8152600401602060405180830381865afa158015611c86573d6000803e3d6000fd5b505050506040513d601f19601f82011682018060405250810190611caa91906139f3565b15611cc8576040516319a90b2f60e21b815260040160405180910390fd5b33611cd1611c37565b6001600160a01b031614611cf75760405162461bcd60e51b815260040161036190613a93565b81611d0181610c04565b611d1e57604051630f4a6ccd60e21b815260040160405180910390fd5b8115611d3657611d30836119ba61277f565b50611d4d565b611d4b83611d4261277f565b60030190612d05565b505b6040805184815283151560208201527f97caf2b3b2f0aa460ca08b20c07f7a43ccf688e2f3b7179f2cf9113fb892bf819101611a0b565b6000611d8e61290a565b6000938452602090815260408085206001600160a01b039490941685529290525090205460ff1690565b60405163948060dd60e01b81526001600160a01b038216600482015260009073__$e77f6d4722b46e0b0a57517726dbfd997e$__9063948060dd90602401610d9a565b611e036127ad565b6001600160a01b031663d1cc99766040518163ffffffff1660e01b8152600401602060405180830381865afa158015611e40573d6000803e3d6000fd5b505050506040513d601f19601f82011682018060405250810190611e6491906139f3565b15611e82576040516319a90b2f60e21b815260040160405180910390fd5b611e8a61250b565b611e92612b40565b6001600160a01b0316336001600160a01b031614611ec357604051637b3f42c160e01b815260040161036190613ac8565b610be68383836127b7565b611ee6600080516020613d988339815191528261108a565b50565b611ee6600080516020613d9883398151915282612203565b60608167ffffffffffffffff811115611f1c57611f1c61372d565b604051908082528060200260200182016040528015611f4f57816020015b6060815260200190600190039081611f3a5790505b50905060005b82811015611b6357611fbf30858584818110611f7357611f73613a10565b9050602002810190611f859190613b80565b8080601f016020809104026020016040519081016040528093929190818152602001838380828437600092019190915250612d1192505050565b828281518110611fd157611fd1613a10565b60200260200101819052508080611fe790613a7a565b915050611f55565b6000611ff961277f565b60009283526005016020525060409020546001600160a01b031690565b600054610100900460ff16158080156120365750600054600160ff909116105b806120505750303b158015612050575060005460ff166001145b6120b35760405162461bcd60e51b815260206004820152602e60248201527f496e697469616c697a61626c653a20636f6e747261637420697320616c72656160448201526d191e481a5b9a5d1a585b1a5e995960921b6064820152608401610361565b6000805460ff1916600117905580156120d6576000805461ff0019166101001790555b60006120e0612d36565b6001600160a01b0316036121415760405162461bcd60e51b815260206004820152602260248201527f4d7573742062652063616c6c65642066726f6d2070726f787920636f6e74726160448201526118dd60f21b6064820152608401610361565b61214a87612c22565b61215386612d5e565b61215c82612dba565b61216587612e30565b61217187868686612e53565b80156121b7576000805461ff0019169055604051600181527f7f26b83ff96e1f2b6a682f133852f6798a09c465da95921460cefb38474024989060200160405180910390a15b50505050505050565b60405163ca42303160e01b81526001600160a01b038216600482015260009073__$e77f6d4722b46e0b0a57517726dbfd997e$__9063ca42303190602401610d9a565b336001600160a01b0382160361223e57604051631eb5512b60e31b8152600481018390526001600160a01b0382166024820152604401610361565b610f548282612e6d565b606061225d61225561277f565b600301612e89565b905090565b600080600061226f61277f565b54925061227a61277f565b60010154915061228861277f565b600201549050909192565b3361229c611c37565b6001600160a01b0316146122c25760405162461bcd60e51b815260040161036190613a93565b6001600160a01b0381166123275760405162461bcd60e51b815260206004820152602660248201527f4f776e61626c653a206e6577206f776e657220697320746865207a65726f206160448201526564647265737360d01b6064820152608401610361565b611ee681612c22565b604051633dfbca3560e21b81526001600160a01b038316600482015260248101829052600090819073__$e77f6d4722b46e0b0a57517726dbfd997e$__9063f7ef28d4906044016040805180830381865af4158015612393573d6000803e3d6000fd5b505050506040513d601f19601f820116820180604052508101906117e29190613bc7565b6123bf61250b565b6123c7612b40565b6001600160a01b0316336001600160a01b0316146123f857604051637b3f42c160e01b815260040161036190613ac8565b8161240281610c04565b61241f57604051630f4a6ccd60e21b815260040160405180910390fd5b604051633edef4ed60e21b815273__$e77f6d4722b46e0b0a57517726dbfd997e$__9063fb7bd3b49061141690879087908790600401613af9565b604051630fc7008160e41b81526001600160a01b038216600482015260609073__$e77f6d4722b46e0b0a57517726dbfd997e$__9063fc70081090602401600060405180830381865af41580156124b5573d6000803e3d6000fd5b505050506040513d6000823e601f3d908101601f19168201604052610b189190810190613bf6565b600080610b1860017f6f969d660e14559aec53d066903ba87981d0679d31bf1d3793a220e70e02808b613b1a565b612513611a18565b156112c15760405162461bcd60e51b815260206004820152601060248201526f14185d5cd8589b194e881c185d5cd95960821b6044820152606401610361565b80600003612574576040516310eb483f60e21b815260040160405180910390fd5b61257c6127ad565b60405163862fd6e560e01b81526001600160a01b038581166004830152919091169063862fd6e590602401602060405180830381865afa1580156125c4573d6000803e3d6000fd5b505050506040513d601f19601f820116820180604052508101906125e891906139f3565b1561260657604051631f6d627d60e11b815260040160405180910390fd5b61260e6127ad565b604051639519832b60e01b8152600481018490526001600160a01b0385811660248301529190911690639519832b906044016020604051808303816000875af115801561265f573d6000803e3d6000fd5b505050506040513d601f19601f8201168201806040525081019061268391906139da565b5060405163148b8b9d60e11b815260009073__$e77f6d4722b46e0b0a57517726dbfd997e$__90632917173a906126c290879087908790600401613af9565b602060405180830381865af41580156126df573d6000803e3d6000fd5b505050506040513d601f19601f8201168201806040525081019061270391906139da565b60408051858152602081018390529192506001600160a01b038616917fc3ded2be7db21b1af963f267d27750e4a15f174547d88b886b9bda43e2c6fa3291015b60405180910390a250505050565b600080610b1860017f4abde63c3e81aefa5764b017968bc473e83e093d7e1a10247d19e0a3e4124018613b1a565b600080610b1860017f53832330c92cb5d80f0e1ff6fdb9886f7fad39132543bafb7497316eae2a8317613b1a565b600061225d612b40565b806000036127d8576040516310eb483f60e21b815260040160405180910390fd5b60006127e261277f565b600084815260059190910160205260409020546001600160a01b0316905061280981610a47565b80156128155750813414155b80612830575061282481610a47565b15801561283057503415155b1561285e57604051631471902b60e01b81526004810184905260248101839052346044820152606401610361565b604051631d64487f60e31b815273__$e77f6d4722b46e0b0a57517726dbfd997e$__9063eb2243f89061289990879087908790600401613af9565b60006040518083038186803b1580156128b157600080fd5b505af41580156128c5573d6000803e3d6000fd5b505060408051868152602081018690526001600160a01b03881693507f19dacbf83c5de6658e14cbf7bcae5c15eca2eedecf1c66fbca928e4d351bea0f925001612743565b600080610b1860017f35e4a72724550e3953b041d501f29ff9ff417812c2917a203d9c4833b9d1d6f9613b1a565b611ee68133612e94565b61294c8282611d84565b610f5457600161295a61290a565b6000848152602091825260408082206001600160a01b0386168084529352808220805460ff1916941515949094179093559151339285917f2f8788117e7eff1d82e926ec794901d17c78024a50270940304540a733656f0d9190a45050565b61271083116129db57604051630821f57960e31b815260040160405180910390fd5b6127108211156129fe576040516370a4af3d60e01b815260040160405180910390fd5b612710811115612a2157604051631da7276f60e01b815260040160405180910390fd5b612a2961277f565b548314612a7c577fd3353684d64f1c80498433d8407c96e6bbeb1ec88b6200ec97d2c910fdbd0da4612a5961277f565b5460408051918252602082018690520160405180910390a182612a7a61277f565b555b612a8461277f565b600101548214612ae0577f651b17c8e9402610e6210cfaa5b252d2186f8a16adf58c9c0fd5793bc4ea9b1f612ab761277f565b6001015460408051918252602082018590520160405180910390a181612adb61277f565b600101555b612ae861277f565b600201548114610be65780612afb61277f565b600201557f7e8f030f9238551b066874b952f0c6ba811ba426ab231ba4825421d5d8f5cd95612b2861277f565b60020154604080519182526020820184905201611a0b565b600061225d762632b73234b733a6b0b935b2ba21b7b73a3937b63632b960491b612ef8565b612b6d612f59565b6000612b77612bdc565b805460ff19169115159190911790557f5db9ee0a495bf2e6ff9c91a7834c1ba4fdd244a5e8aa4e537bd38aeae4b073aa335b6040516001600160a01b03909116815260200160405180910390a1565b600061225d612fa4565b6000610ba58383612fc4565b600080610b1860017f9c789132bdb3678132848a8dcd780bffd2b1abdce3984c522ac1d8aeb48f05f3613b1a565b60008181526001830160205260408120541515610ba5565b6000612c2c612cd7565b546001600160a01b0316905081612c41612cd7565b80546001600160a01b0319166001600160a01b03928316179055604051838216918316907f8be0079c531659141344cd1fd0a4f28419497f9722a3daafe3b4186f6b6457e090600090a35050565b612c9761250b565b6001612ca1612bdc565b805460ff19169115159190911790557f62e78cea01bee320cd4e420270b5ea74000d11b0c9f74754ebdbfc544b05a25833612ba9565b600080610b1860017f9acda75aebd150dd434541a4747a6dc606f4f1a59662477e67daf1fc0bf9e0aa613b1a565b6000610ba58383613013565b6060610ba58383604051806060016040528060278152602001613db860279139613106565b60007f360894a13ba1a3210667c828492db98dca3e2076cc3735a920a3ca505d382bbc610bf5565b6000612d68612751565b546001600160a01b031614612d90576040516304b79d6360e51b815260040160405180910390fd5b80612d99612751565b80546001600160a01b0319166001600160a01b039290921691909117905550565b6000612dc46124dd565b546001600160a01b031614612e275760405162461bcd60e51b815260206004820152602360248201527f5472616e7366657248656c7065723a20416c726561647920696e697469616c696044820152621e995960ea1b6064820152608401610361565b80612d996124dd565b612e3b600082612942565b611ee6600080516020613d9883398151915282612942565b612e5c84612c22565b612e678383836129b9565b50505050565b612e7682610d3d565b612e7f81612938565b610be683836131e3565b6060610b188261325b565b612e9e8282611d84565b610f5457612eb6816001600160a01b031660146132b7565b612ec18360206132b7565b604051602001612ed2929190613c9c565b60408051601f198184030181529082905262461bcd60e51b825261036191600401613d11565b600080612f03612751565b600084815260019190910160205260409020546001600160a01b0316905080610b185760408051602081018590520160408051601f19818403018152908290526346e2ec9360e01b825261036191600401613d11565b612f61611a18565b6112c15760405162461bcd60e51b815260206004820152601460248201527314185d5cd8589b194e881b9bdd081c185d5cd95960621b6044820152606401610361565b600061225d7121bab93932b731bca1b7b73a3937b63632b960711b612ef8565b600081815260018301602052604081205461300b57508154600181810184556000848152602080822090930184905584548482528286019093526040902091909155610b18565b506000610b18565b600081815260018301602052604081205480156130fc576000613037600183613b1a565b855490915060009061304b90600190613b1a565b90508181146130b057600086600001828154811061306b5761306b613a10565b906000526020600020015490508087600001848154811061308e5761308e613a10565b6000918252602080832090910192909255918252600188019052604090208390555b85548690806130c1576130c1613d24565b600190038181906000526020600020016000905590558560010160008681526020019081526020016000206000905560019350505050610b18565b6000915050610b18565b60606001600160a01b0384163b61316e5760405162461bcd60e51b815260206004820152602660248201527f416464726573733a2064656c65676174652063616c6c20746f206e6f6e2d636f6044820152651b9d1c9858dd60d21b6064820152608401610361565b600080856001600160a01b0316856040516131899190613d3a565b600060405180830381855af49150503d80600081146131c4576040519150601f19603f3d011682016040523d82523d6000602084013e6131c9565b606091505b50915091506131d9828286613453565b9695505050505050565b6131ed8282611d84565b15610f545760006131fc61290a565b6000848152602091825260408082206001600160a01b0386168084529352808220805460ff1916941515949094179093559151339285917ff6391f5c32d9c69d2a47ea670b442974b53935d1edc7fd64eb21e047a839171b9190a45050565b6060816000018054806020026020016040519081016040528092919081815260200182805480156132ab57602002820191906000526020600020905b815481526020019060010190808311613297575b50505050509050919050565b606060006132c6836002613d56565b6132d1906002613d6d565b67ffffffffffffffff8111156132e9576132e961372d565b6040519080825280601f01601f191660200182016040528015613313576020820181803683370190505b509050600360fc1b8160008151811061332e5761332e613a10565b60200101906001600160f81b031916908160001a905350600f60fb1b8160018151811061335d5761335d613a10565b60200101906001600160f81b031916908160001a9053506000613381846002613d56565b61338c906001613d6d565b90505b6001811115613404576f181899199a1a9b1b9c1cb0b131b232b360811b85600f16601081106133c0576133c0613a10565b1a60f81b8282815181106133d6576133d6613a10565b60200101906001600160f81b031916908160001a90535060049490941c936133fd81613d80565b905061338f565b508315610ba55760405162461bcd60e51b815260206004820181905260248201527f537472696e67733a20686578206c656e67746820696e73756666696369656e746044820152606401610361565b60608315613462575081610ba5565b8251156134725782518084602001fd5b8160405162461bcd60e51b81526004016103619190613d11565b60006020828403121561349e57600080fd5b5035919050565b6000602082840312156134b757600080fd5b81356001600160e01b031981168114610ba557600080fd5b6001600160a01b0381168114611ee657600080fd5b600080604083850312156134f757600080fd5b8235613502816134cf565b946020939093013593505050565b6000806040838503121561352357600080fd5b50508035926020909101359150565b6000806040838503121561354557600080fd5b823591506020830135613557816134cf565b809150509250929050565b60006020828403121561357457600080fd5b8135610ba5816134cf565b60008060006060848603121561359457600080fd5b505081359360208301359350604090920135919050565b6020808252825182820181905260009190848201906040850190845b818110156135e3578351835292840192918401916001016135c7565b50909695505050505050565b60008083601f84011261360157600080fd5b50813567ffffffffffffffff81111561361957600080fd5b6020830191508360208260051b85010111156117e757600080fd5b6000806020838503121561364757600080fd5b823567ffffffffffffffff81111561365e57600080fd5b61366a858286016135ef565b90969095509350505050565b6020808252825182820181905260009190848201906040850190845b818110156135e3578351151583529284019291840191600101613692565b6000806000606084860312156136c557600080fd5b83356136d0816134cf565b95602085013595506040909401359392505050565b600080600080608085870312156136fb57600080fd5b84359350602085013561370d816134cf565b9250604085013561371d816134cf565b9396929550929360600135925050565b634e487b7160e01b600052604160045260246000fd5b60405160e0810167ffffffffffffffff811182821017156137665761376661372d565b60405290565b604051601f8201601f1916810167ffffffffffffffff811182821017156137955761379561372d565b604052919050565b6000808284036101008112156137b257600080fd5b83356137bd816134cf565b925060e0601f19820112156137d157600080fd5b506137da613743565b6020840135815260408401356020820152606084013560408201526080840135606082015260a0840135608082015260c084013560a082015260e084013560c0820152809150509250929050565b8015158114611ee657600080fd5b60008060006060848603121561384b57600080fd5b83359250602084013561385d816134cf565b9150604084013561386d81613828565b809150509250925092565b6000806040838503121561388b57600080fd5b82359150602083013561355781613828565b60005b838110156138b85781810151838201526020016138a0565b50506000910152565b600081518084526138d981602086016020860161389d565b601f01601f19169290920160200192915050565b6000602080830181845280855180835260408601915060408160051b870101925083870160005b8281101561394257603f198886030184526139308583516138c1565b94509285019290850190600101613914565b5092979650505050505050565b60008060008060008060c0878903121561396857600080fd5b8635613973816134cf565b95506020870135613983816134cf565b945060408701359350606087013592506080870135915060a08701356139a8816134cf565b809150509295509295509295565b600080604083850312156139c957600080fd5b505080516020909101519092909150565b6000602082840312156139ec57600080fd5b5051919050565b600060208284031215613a0557600080fd5b8151610ba581613828565b634e487b7160e01b600052603260045260246000fd5b828152604060208201526000613a3f60408301846138c1565b949350505050565b600060208284031215613a5957600080fd5b8151610ba5816134cf565b634e487b7160e01b600052601160045260246000fd5b600060018201613a8c57613a8c613a64565b5060010190565b6020808252818101527f4f776e61626c653a2063616c6c6572206973206e6f7420746865206f776e6572604082015260600190565b6020808252601790820152762632b73234b733a6b0b935b2ba21b7b73a3937b63632b960491b604082015260600190565b6001600160a01b039390931683526020830191909152604082015260600190565b81810381811115610b1857610b18613a64565b600080600060608486031215613b4257600080fd5b8351925060208401519150604084015190509250925092565b60008060408385031215613b6e57600080fd5b82519150602083015161355781613828565b6000808335601e19843603018112613b9757600080fd5b83018035915067ffffffffffffffff821115613bb257600080fd5b6020019150368190038213156117e757600080fd5b60008060408385031215613bda57600080fd5b8251613be581613828565b602084015190925061355781613828565b60006020808385031215613c0957600080fd5b825167ffffffffffffffff80821115613c2157600080fd5b818501915085601f830112613c3557600080fd5b815181811115613c4757613c4761372d565b8060051b9150613c5884830161376c565b8181529183018401918481019088841115613c7257600080fd5b938501935b83851015613c9057845182529385019390850190613c77565b98975050505050505050565b7f416363657373436f6e74726f6c3a206163636f756e7420000000000000000000815260008351613cd481601785016020880161389d565b7001034b99036b4b9b9b4b733903937b6329607d1b6017918401918201528351613d0581602884016020880161389d565b01602801949350505050565b602081526000610ba560208301846138c1565b634e487b7160e01b600052603160045260246000fd5b60008251613d4c81846020870161389d565b9190910192915050565b8082028115828204841417610b1857610b18613a64565b80820180821115610b1857610b18613a64565b600081613d8f57613d8f613a64565b50600019019056fe97667070c54ef182b0f5858b034beac1b6f3089aa2d3188bb1e8929f4fa9b929416464726573733a206c6f772d6c6576656c2064656c65676174652063616c6c206661696c6564a264697066735822122026753fcc3e9eb52b6f1834f72ffed548f3a0d0f74c809ee7509aeca984c3ba2664736f6c63430008130033",
  "linkReferences": {
    "contracts/protocol/libraries/logics/DepositManagementLogic.sol": {
      "DepositManagementLogic": [
        {
          "length": 20,
          "start": 2722
        },
        {
          "length": 20,
          "start": 2918
        },
        {
          "length": 20,
          "start": 3194
        },
        {
          "length": 20,
          "start": 3484
        },
        {
          "length": 20,
          "start": 4497
        },
        {
          "length": 20,
          "start": 5130
        },
        {
          "length": 20,
          "start": 5416
        },
        {
          "length": 20,
          "start": 5603
        },
        {
          "length": 20,
          "start": 5773
        },
        {
          "length": 20,
          "start": 5916
        },
        {
          "length": 20,
          "start": 6052
        },
        {
          "length": 20,
          "start": 6946
        },
        {
          "length": 20,
          "start": 7090
        },
        {
          "length": 20,
          "start": 7673
        },
        {
          "length": 20,
          "start": 8705
        },
        {
          "length": 20,
          "start": 9082
        },
        {
          "length": 20,
          "start": 9294
        },
        {
          "length": 20,
          "start": 9371
        },
        {
          "length": 20,
          "start": 9910
        },
        {
          "length": 20,
          "start": 10381
        }
      ]
    }
  },
  "deployedLinkReferences": {
    "contracts/protocol/libraries/logics/DepositManagementLogic.sol": {
      "DepositManagementLogic": [
        {
          "length": 20,
          "start": 2690
        },
        {
          "length": 20,
          "start": 2886
        },
        {
          "length": 20,
          "start": 3162
        },
        {
          "length": 20,
          "start": 3452
        },
        {
          "length": 20,
          "start": 4465
        },
        {
          "length": 20,
          "start": 5098
        },
        {
          "length": 20,
          "start": 5384
        },
        {
          "length": 20,
          "start": 5571
        },
        {
          "length": 20,
          "start": 5741
        },
        {
          "length": 20,
          "start": 5884
        },
        {
          "length": 20,
          "start": 6020
        },
        {
          "length": 20,
          "start": 6914
        },
        {
          "length": 20,
          "start": 7058
        },
        {
          "length": 20,
          "start": 7641
        },
        {
          "length": 20,
          "start": 8673
        },
        {
          "length": 20,
          "start": 9050
        },
        {
          "length": 20,
          "start": 9262
        },
        {
          "length": 20,
          "start": 9339
        },
        {
          "length": 20,
          "start": 9878
        },
        {
          "length": 20,
          "start": 10349
        }
      ]
    }
  }
}